{
  "address": "0xD1BCcbcb8F1380499BE9F1E230090A61C74AfAe9",
  "abi": [
    {
      "inputs": [
        {
          "internalType": "address",
          "name": "_checkpointManager",
          "type": "address"
        },
        {
          "internalType": "address",
          "name": "_fxRoot",
          "type": "address"
        },
        {
          "internalType": "address",
          "name": "_homeProxy",
          "type": "address"
        },
        {
          "internalType": "contract IArbitrator",
          "name": "_arbitrator",
          "type": "address"
        },
        {
          "internalType": "bytes",
          "name": "_arbitratorExtraData",
          "type": "bytes"
        },
        {
          "internalType": "string",
          "name": "_metaEvidence",
          "type": "string"
        },
        {
          "internalType": "string",
          "name": "_termsOfService",
          "type": "string"
        },
        {
          "internalType": "uint256",
          "name": "_winnerMultiplier",
          "type": "uint256"
        },
        {
          "internalType": "uint256",
          "name": "_loserMultiplier",
          "type": "uint256"
        },
        {
          "internalType": "uint256",
          "name": "_loserAppealPeriodMultiplier",
          "type": "uint256"
        }
      ],
      "stateMutability": "nonpayable",
      "type": "constructor"
    },
    {
      "anonymous": false,
      "inputs": [
        {
          "indexed": true,
          "internalType": "uint256",
          "name": "_projectID",
          "type": "uint256"
        }
      ],
      "name": "ArbitrationCanceled",
      "type": "event"
    },
    {
      "anonymous": false,
      "inputs": [
        {
          "indexed": true,
          "internalType": "uint256",
          "name": "_projectID",
          "type": "uint256"
        },
        {
          "indexed": true,
          "internalType": "uint256",
          "name": "_disputeID",
          "type": "uint256"
        }
      ],
      "name": "ArbitrationCreated",
      "type": "event"
    },
    {
      "anonymous": false,
      "inputs": [
        {
          "indexed": true,
          "internalType": "uint256",
          "name": "_projectID",
          "type": "uint256"
        }
      ],
      "name": "ArbitrationFailed",
      "type": "event"
    },
    {
      "anonymous": false,
      "inputs": [
        {
          "indexed": true,
          "internalType": "uint256",
          "name": "_projectID",
          "type": "uint256"
        },
        {
          "indexed": true,
          "internalType": "address",
          "name": "_requester",
          "type": "address"
        }
      ],
      "name": "ArbitrationRequested",
      "type": "event"
    },
    {
      "anonymous": false,
      "inputs": [
        {
          "indexed": true,
          "internalType": "uint256",
          "name": "_localDisputeID",
          "type": "uint256"
        },
        {
          "indexed": true,
          "internalType": "uint256",
          "name": "_round",
          "type": "uint256"
        },
        {
          "indexed": false,
          "internalType": "uint256",
          "name": "ruling",
          "type": "uint256"
        },
        {
          "indexed": true,
          "internalType": "address",
          "name": "_contributor",
          "type": "address"
        },
        {
          "indexed": false,
          "internalType": "uint256",
          "name": "_amount",
          "type": "uint256"
        }
      ],
      "name": "Contribution",
      "type": "event"
    },
    {
      "anonymous": false,
      "inputs": [
        {
          "indexed": true,
          "internalType": "contract IArbitrator",
          "name": "_arbitrator",
          "type": "address"
        },
        {
          "indexed": true,
          "internalType": "uint256",
          "name": "_disputeID",
          "type": "uint256"
        },
        {
          "indexed": false,
          "internalType": "uint256",
          "name": "_metaEvidenceID",
          "type": "uint256"
        },
        {
          "indexed": false,
          "internalType": "uint256",
          "name": "_evidenceGroupID",
          "type": "uint256"
        }
      ],
      "name": "Dispute",
      "type": "event"
    },
    {
      "anonymous": false,
      "inputs": [
        {
          "indexed": true,
          "internalType": "contract IArbitrator",
          "name": "_arbitrator",
          "type": "address"
        },
        {
          "indexed": true,
          "internalType": "uint256",
          "name": "_evidenceGroupID",
          "type": "uint256"
        },
        {
          "indexed": true,
          "internalType": "address",
          "name": "_party",
          "type": "address"
        },
        {
          "indexed": false,
          "internalType": "string",
          "name": "_evidence",
          "type": "string"
        }
      ],
      "name": "Evidence",
      "type": "event"
    },
    {
      "anonymous": false,
      "inputs": [
        {
          "indexed": true,
          "internalType": "uint256",
          "name": "_metaEvidenceID",
          "type": "uint256"
        },
        {
          "indexed": false,
          "internalType": "string",
          "name": "_evidence",
          "type": "string"
        }
      ],
      "name": "MetaEvidence",
      "type": "event"
    },
    {
      "anonymous": false,
      "inputs": [
        {
          "indexed": true,
          "internalType": "contract IArbitrator",
          "name": "_arbitrator",
          "type": "address"
        },
        {
          "indexed": true,
          "internalType": "uint256",
          "name": "_disputeID",
          "type": "uint256"
        },
        {
          "indexed": false,
          "internalType": "uint256",
          "name": "_ruling",
          "type": "uint256"
        }
      ],
      "name": "Ruling",
      "type": "event"
    },
    {
      "anonymous": false,
      "inputs": [
        {
          "indexed": true,
          "internalType": "uint256",
          "name": "_localDisputeID",
          "type": "uint256"
        },
        {
          "indexed": true,
          "internalType": "uint256",
          "name": "_round",
          "type": "uint256"
        },
        {
          "indexed": true,
          "internalType": "uint256",
          "name": "_ruling",
          "type": "uint256"
        }
      ],
      "name": "RulingFunded",
      "type": "event"
    },
    {
      "anonymous": false,
      "inputs": [
        {
          "indexed": true,
          "internalType": "uint256",
          "name": "_localDisputeID",
          "type": "uint256"
        },
        {
          "indexed": true,
          "internalType": "uint256",
          "name": "_round",
          "type": "uint256"
        },
        {
          "indexed": false,
          "internalType": "uint256",
          "name": "_ruling",
          "type": "uint256"
        },
        {
          "indexed": true,
          "internalType": "address",
          "name": "_contributor",
          "type": "address"
        },
        {
          "indexed": false,
          "internalType": "uint256",
          "name": "_reward",
          "type": "uint256"
        }
      ],
      "name": "Withdrawal",
      "type": "event"
    },
    {
      "inputs": [],
      "name": "META_EVIDENCE_ID",
      "outputs": [
        {
          "internalType": "uint256",
          "name": "",
          "type": "uint256"
        }
      ],
      "stateMutability": "view",
      "type": "function"
    },
    {
      "inputs": [],
      "name": "MULTIPLIER_DIVISOR",
      "outputs": [
        {
          "internalType": "uint256",
          "name": "",
          "type": "uint256"
        }
      ],
      "stateMutability": "view",
      "type": "function"
    },
    {
      "inputs": [],
      "name": "NUMBER_OF_CHOICES_FOR_ARBITRATOR",
      "outputs": [
        {
          "internalType": "uint256",
          "name": "",
          "type": "uint256"
        }
      ],
      "stateMutability": "view",
      "type": "function"
    },
    {
      "inputs": [],
      "name": "SEND_MESSAGE_EVENT_SIG",
      "outputs": [
        {
          "internalType": "bytes32",
          "name": "",
          "type": "bytes32"
        }
      ],
      "stateMutability": "view",
      "type": "function"
    },
    {
      "inputs": [],
      "name": "VERSION",
      "outputs": [
        {
          "internalType": "string",
          "name": "",
          "type": "string"
        }
      ],
      "stateMutability": "view",
      "type": "function"
    },
    {
      "inputs": [
        {
          "internalType": "uint256",
          "name": "",
          "type": "uint256"
        }
      ],
      "name": "arbitrationIDToDisputeExists",
      "outputs": [
        {
          "internalType": "bool",
          "name": "",
          "type": "bool"
        }
      ],
      "stateMutability": "view",
      "type": "function"
    },
    {
      "inputs": [
        {
          "internalType": "uint256",
          "name": "",
          "type": "uint256"
        }
      ],
      "name": "arbitrationRequests",
      "outputs": [
        {
          "internalType": "enum SundialForeignArbitrationProxyWithAppeals.Status",
          "name": "status",
          "type": "uint8"
        },
        {
          "internalType": "uint248",
          "name": "deposit",
          "type": "uint248"
        },
        {
          "internalType": "address",
          "name": "requester",
          "type": "address"
        },
        {
          "internalType": "uint256",
          "name": "disputeID",
          "type": "uint256"
        },
        {
          "internalType": "uint256",
          "name": "answer",
          "type": "uint256"
        }
      ],
      "stateMutability": "view",
      "type": "function"
    },
    {
      "inputs": [],
      "name": "arbitrator",
      "outputs": [
        {
          "internalType": "contract IArbitrator",
          "name": "",
          "type": "address"
        }
      ],
      "stateMutability": "view",
      "type": "function"
    },
    {
      "inputs": [],
      "name": "arbitratorExtraData",
      "outputs": [
        {
          "internalType": "bytes",
          "name": "",
          "type": "bytes"
        }
      ],
      "stateMutability": "view",
      "type": "function"
    },
    {
      "inputs": [],
      "name": "checkpointManager",
      "outputs": [
        {
          "internalType": "contract ICheckpointManager",
          "name": "",
          "type": "address"
        }
      ],
      "stateMutability": "view",
      "type": "function"
    },
    {
      "inputs": [
        {
          "internalType": "uint256",
          "name": "_projectID",
          "type": "uint256"
        }
      ],
      "name": "createDisputeForProjectRequest",
      "outputs": [],
      "stateMutability": "payable",
      "type": "function"
    },
    {
      "inputs": [
        {
          "internalType": "uint256",
          "name": "",
          "type": "uint256"
        }
      ],
      "name": "disputeIDToArbitrationID",
      "outputs": [
        {
          "internalType": "uint256",
          "name": "",
          "type": "uint256"
        }
      ],
      "stateMutability": "view",
      "type": "function"
    },
    {
      "inputs": [
        {
          "internalType": "uint256",
          "name": "_externalDisputeID",
          "type": "uint256"
        }
      ],
      "name": "externalIDtoLocalID",
      "outputs": [
        {
          "internalType": "uint256",
          "name": "",
          "type": "uint256"
        }
      ],
      "stateMutability": "view",
      "type": "function"
    },
    {
      "inputs": [
        {
          "internalType": "uint256",
          "name": "_arbitrationID",
          "type": "uint256"
        },
        {
          "internalType": "uint256",
          "name": "_answer",
          "type": "uint256"
        }
      ],
      "name": "fundAppeal",
      "outputs": [
        {
          "internalType": "bool",
          "name": "",
          "type": "bool"
        }
      ],
      "stateMutability": "payable",
      "type": "function"
    },
    {
      "inputs": [],
      "name": "fxChildTunnel",
      "outputs": [
        {
          "internalType": "address",
          "name": "",
          "type": "address"
        }
      ],
      "stateMutability": "view",
      "type": "function"
    },
    {
      "inputs": [],
      "name": "fxRoot",
      "outputs": [
        {
          "internalType": "contract IFxStateSender",
          "name": "",
          "type": "address"
        }
      ],
      "stateMutability": "view",
      "type": "function"
    },
    {
      "inputs": [
        {
          "internalType": "uint256",
          "name": "_arbitrationID",
          "type": "uint256"
        },
        {
          "internalType": "uint256",
          "name": "_round",
          "type": "uint256"
        },
        {
          "internalType": "address",
          "name": "_contributor",
          "type": "address"
        }
      ],
      "name": "getContributionsToSuccessfulFundings",
      "outputs": [
        {
          "internalType": "uint256[]",
          "name": "fundedAnswers",
          "type": "uint256[]"
        },
        {
          "internalType": "uint256[]",
          "name": "contributions",
          "type": "uint256[]"
        }
      ],
      "stateMutability": "view",
      "type": "function"
    },
    {
      "inputs": [
        {
          "internalType": "uint256",
          "name": "",
          "type": "uint256"
        }
      ],
      "name": "getDisputeFee",
      "outputs": [
        {
          "internalType": "uint256",
          "name": "",
          "type": "uint256"
        }
      ],
      "stateMutability": "view",
      "type": "function"
    },
    {
      "inputs": [
        {
          "internalType": "uint256",
          "name": "_arbitrationID",
          "type": "uint256"
        },
        {
          "internalType": "uint256",
          "name": "_round",
          "type": "uint256"
        },
        {
          "internalType": "uint256",
          "name": "_answer",
          "type": "uint256"
        }
      ],
      "name": "getFundingStatus",
      "outputs": [
        {
          "internalType": "uint256",
          "name": "raised",
          "type": "uint256"
        },
        {
          "internalType": "bool",
          "name": "fullyFunded",
          "type": "bool"
        }
      ],
      "stateMutability": "view",
      "type": "function"
    },
    {
      "inputs": [],
      "name": "getMultipliers",
      "outputs": [
        {
          "internalType": "uint256",
          "name": "winner",
          "type": "uint256"
        },
        {
          "internalType": "uint256",
          "name": "loser",
          "type": "uint256"
        },
        {
          "internalType": "uint256",
          "name": "loserAppealPeriod",
          "type": "uint256"
        },
        {
          "internalType": "uint256",
          "name": "divisor",
          "type": "uint256"
        }
      ],
      "stateMutability": "view",
      "type": "function"
    },
    {
      "inputs": [
        {
          "internalType": "uint256",
          "name": "_arbitrationID",
          "type": "uint256"
        }
      ],
      "name": "getNumberOfRounds",
      "outputs": [
        {
          "internalType": "uint256",
          "name": "",
          "type": "uint256"
        }
      ],
      "stateMutability": "view",
      "type": "function"
    },
    {
      "inputs": [
        {
          "internalType": "uint256",
          "name": "_arbitrationID",
          "type": "uint256"
        },
        {
          "internalType": "uint256",
          "name": "_round",
          "type": "uint256"
        }
      ],
      "name": "getRoundInfo",
      "outputs": [
        {
          "internalType": "uint256[]",
          "name": "paidFees",
          "type": "uint256[]"
        },
        {
          "internalType": "uint256",
          "name": "feeRewards",
          "type": "uint256"
        },
        {
          "internalType": "uint256[]",
          "name": "fundedAnswers",
          "type": "uint256[]"
        }
      ],
      "stateMutability": "view",
      "type": "function"
    },
    {
      "inputs": [
        {
          "internalType": "uint256",
          "name": "_arbitrationID",
          "type": "uint256"
        },
        {
          "internalType": "address payable",
          "name": "_beneficiary",
          "type": "address"
        },
        {
          "internalType": "uint256",
          "name": "_contributedTo",
          "type": "uint256"
        }
      ],
      "name": "getTotalWithdrawableAmount",
      "outputs": [
        {
          "internalType": "uint256",
          "name": "sum",
          "type": "uint256"
        }
      ],
      "stateMutability": "view",
      "type": "function"
    },
    {
      "inputs": [
        {
          "internalType": "uint256",
          "name": "_projectID",
          "type": "uint256"
        }
      ],
      "name": "handleFailedDisputeCreation",
      "outputs": [],
      "stateMutability": "nonpayable",
      "type": "function"
    },
    {
      "inputs": [],
      "name": "loserAppealPeriodMultiplier",
      "outputs": [
        {
          "internalType": "uint256",
          "name": "",
          "type": "uint256"
        }
      ],
      "stateMutability": "view",
      "type": "function"
    },
    {
      "inputs": [],
      "name": "loserMultiplier",
      "outputs": [
        {
          "internalType": "uint256",
          "name": "",
          "type": "uint256"
        }
      ],
      "stateMutability": "view",
      "type": "function"
    },
    {
      "inputs": [
        {
          "internalType": "uint256",
          "name": "",
          "type": "uint256"
        }
      ],
      "name": "numberOfRulingOptions",
      "outputs": [
        {
          "internalType": "uint256",
          "name": "",
          "type": "uint256"
        }
      ],
      "stateMutability": "pure",
      "type": "function"
    },
    {
      "inputs": [
        {
          "internalType": "bytes32",
          "name": "",
          "type": "bytes32"
        }
      ],
      "name": "processedExits",
      "outputs": [
        {
          "internalType": "bool",
          "name": "",
          "type": "bool"
        }
      ],
      "stateMutability": "view",
      "type": "function"
    },
    {
      "inputs": [
        {
          "internalType": "uint256",
          "name": "_projectID",
          "type": "uint256"
        }
      ],
      "name": "projectIDToArbitrationID",
      "outputs": [
        {
          "internalType": "uint256",
          "name": "",
          "type": "uint256"
        }
      ],
      "stateMutability": "pure",
      "type": "function"
    },
    {
      "inputs": [
        {
          "internalType": "uint256",
          "name": "_projectID",
          "type": "uint256"
        }
      ],
      "name": "receiveArbitrationAcknowledgement",
      "outputs": [],
      "stateMutability": "nonpayable",
      "type": "function"
    },
    {
      "inputs": [
        {
          "internalType": "uint256",
          "name": "_projectID",
          "type": "uint256"
        }
      ],
      "name": "receiveArbitrationCancelation",
      "outputs": [],
      "stateMutability": "nonpayable",
      "type": "function"
    },
    {
      "inputs": [
        {
          "internalType": "bytes",
          "name": "inputData",
          "type": "bytes"
        }
      ],
      "name": "receiveMessage",
      "outputs": [],
      "stateMutability": "nonpayable",
      "type": "function"
    },
    {
      "inputs": [
        {
          "internalType": "uint256",
          "name": "_disputeID",
          "type": "uint256"
        },
        {
          "internalType": "uint256",
          "name": "_ruling",
          "type": "uint256"
        }
      ],
      "name": "rule",
      "outputs": [],
      "stateMutability": "nonpayable",
      "type": "function"
    },
    {
      "inputs": [
        {
          "internalType": "uint256",
          "name": "_arbitrationID",
          "type": "uint256"
        },
        {
          "internalType": "string",
          "name": "_evidenceURI",
          "type": "string"
        }
      ],
      "name": "submitEvidence",
      "outputs": [],
      "stateMutability": "nonpayable",
      "type": "function"
    },
    {
      "inputs": [],
      "name": "termsOfService",
      "outputs": [
        {
          "internalType": "string",
          "name": "",
          "type": "string"
        }
      ],
      "stateMutability": "view",
      "type": "function"
    },
    {
      "inputs": [],
      "name": "winnerMultiplier",
      "outputs": [
        {
          "internalType": "uint256",
          "name": "",
          "type": "uint256"
        }
      ],
      "stateMutability": "view",
      "type": "function"
    },
    {
      "inputs": [
        {
          "internalType": "uint256",
          "name": "_arbitrationID",
          "type": "uint256"
        },
        {
          "internalType": "address payable",
          "name": "_beneficiary",
          "type": "address"
        },
        {
          "internalType": "uint256",
          "name": "_round",
          "type": "uint256"
        },
        {
          "internalType": "uint256",
          "name": "_answer",
          "type": "uint256"
        }
      ],
      "name": "withdrawFeesAndRewards",
      "outputs": [
        {
          "internalType": "uint256",
          "name": "reward",
          "type": "uint256"
        }
      ],
      "stateMutability": "nonpayable",
      "type": "function"
    },
    {
      "inputs": [
        {
          "internalType": "uint256",
          "name": "_arbitrationID",
          "type": "uint256"
        },
        {
          "internalType": "address payable",
          "name": "_beneficiary",
          "type": "address"
        },
        {
          "internalType": "uint256",
          "name": "_contributedTo",
          "type": "uint256"
        }
      ],
      "name": "withdrawFeesAndRewardsForAllRounds",
      "outputs": [],
      "stateMutability": "nonpayable",
      "type": "function"
    }
  ],
  "transactionHash": "0x5ba123c000b6b186ac04d4de68b44553e08dc52be061b50ecaf950d897d473df",
  "args": [
    "0x2890bA17EfE978480615e330ecB65333b880928e",
    "0x3d1d3E34f7fB6D26245E6640E1c50710eFFf15bA",
    "0x5D2DDdbc108BAcE96fb6999BdbB8962313976452",
    "0xCF5F227De666AF96Cf671Cd5727247A427b28b7A",
    "0x00000000000000000000000000000000000000000000000000000000000000000000000000000000000000000000000000000000000000000000000000000000",
    "/ipfs/Qmc2cpRZgT5PmR4ZikDsVG54xejKF62qSBBnYf4R5bpiNH/realitio.json",
    "/ipfs/Qmf67KPWvFLSQEczsb8Kh9HtGUevNtSSVELqTS8yTe95GW/omen-rules.pdf",
    5000,
    20000,
    5000
  ],
  "solcInputHash": "987daf189cedf61a009117aeb9216ec2",
  "bytecode": "0x6101006040523480156200001257600080fd5b50604051620045e5380380620045e583398181016040526101408110156200003957600080fd5b81516020830151604080850151606086015160808701805193519597949692959194919392820192846401000000008211156200007557600080fd5b9083019060208201858111156200008b57600080fd5b8251640100000000811182820188101715620000a657600080fd5b82525081516020918201929091019080838360005b83811015620000d5578181015183820152602001620000bb565b50505050905090810190601f168015620001035780820380516001836020036101000a031916815260200191505b50604052602001805160405193929190846401000000008211156200012757600080fd5b9083019060208201858111156200013d57600080fd5b82516401000000008111828201881017156200015857600080fd5b82525081516020918201929091019080838360005b83811015620001875781810151838201526020016200016d565b50505050905090810190601f168015620001b55780820380516001836020036101000a031916815260200191505b5060405260200180516040519392919084640100000000821115620001d957600080fd5b908301906020820185811115620001ef57600080fd5b82516401000000008111828201881017156200020a57600080fd5b82525081516020918201929091019080838360005b83811015620002395781810151838201526020016200021f565b50505050905090810190601f168015620002675780820380516001836020036101000a031916815260200191505b5060405260200180519060200190929190805190602001909291908051906020019092919050505089898982600160006101000a8154816001600160a01b0302191690836001600160a01b03160217905550816000806101000a8154816001600160a01b0302191690836001600160a01b0316021790555080600260006101000a8154816001600160a01b0302191690836001600160a01b03160217905550505050866001600160a01b03166080816001600160a01b031660601b8152505085600490805190602001906200033e92919062000410565b5083516200035490600590602087019062000410565b5060a083905260c082905260e081905260408051602080825287518183015287516000937f61606860eb6c87306811e2695215385101daab53bd6ab4e9f9049aead9363c7d938a93909283928301918501908083838a5b83811015620003c5578181015183820152602001620003ab565b50505050905090810190601f168015620003f35780820380516001836020036101000a031916815260200191505b509250505060405180910390a250505050505050505050620004bc565b828054600181600116156101000203166002900490600052602060002090601f01602090048101928262000448576000855562000493565b82601f106200046357805160ff191683800117855562000493565b8280016001018555821562000493579182015b828111156200049357825182559160200191906001019062000476565b50620004a1929150620004a5565b5090565b5b80821115620004a15760008155600101620004a6565b60805160601c60a05160c05160e0516140966200054f60003980610aee5280611532528061215a5250806115b5528061213952806125af525080611501528061211852806125e2525080610c915280610e2d5280611370528061146752806116af528061194c5280611bd75280611cfe5280611ec5528061200c52806120f45280612290528061261152506140966000f3fe6080604052600436106102255760003560e01c80638599a73911610123578063c21ae061116100ab578063ec85635b1161006f578063ec85635b1461097c578063f953cec7146109bb578063fc6f8f1614610a6e578063fe2dddeb14610a98578063ffa1ad7414610ad757610225565b8063c21ae06114610826578063c599c66f14610850578063d5b4c69414610928578063d661dd3114610952578063de9b771f1461096757610225565b8063972c4928116100f2578063972c4928146107145780639b3ac99814610729578063a6a7f0eb1461073e578063bb2fe65f146107c2578063c0857ba01461081157610225565b80638599a739146105e85780638a9bb02a146106055780638d8b2d7e146106d5578063965394ab146106ff57610225565b8063503abb0d116101b1578063631eabd511610175578063631eabd5146104af578063649d4d261461052857806368cb30f5146105525780636cc6cde11461057c57806379873f8a146105ad57610225565b8063503abb0d146103f257806352356d021461041c57806354dba90f146104465780636059319e1461045b578063607f2d421461048557610225565b80631e117f49116101f85780631e117f4914610305578063311a6c561461031a578063362c34791461034c57806348a5b2b3146103915780634b2f0ea0146103bb57610225565b80630c139eb41461022a5780630c7ac7b6146102515780630e387de6146102db5780630fa8c7ce146102f0575b600080fd5b34801561023657600080fd5b5061023f610aec565b60408051918252519081900360200190f35b34801561025d57600080fd5b50610266610b10565b6040805160208082528351818301528351919283929083019185019080838360005b838110156102a0578181015183820152602001610288565b50505050905090810190601f1680156102cd5780820380516001836020036101000a031916815260200191505b509250505060405180910390f35b3480156102e757600080fd5b5061023f610b9e565b3480156102fc57600080fd5b5061023f610bc2565b34801561031157600080fd5b50610266610bc7565b34801561032657600080fd5b5061034a6004803603604081101561033d57600080fd5b5080359060200135610c22565b005b34801561035857600080fd5b5061023f6004803603608081101561036f57600080fd5b508035906001600160a01b036020820135169060408101359060600135610e82565b34801561039d57600080fd5b5061034a600480360360208110156103b457600080fd5b5035611121565b6103de600480360360408110156103d157600080fd5b5080359060200135611295565b604080519115158252519081900360200190f35b3480156103fe57600080fd5b5061023f6004803603602081101561041557600080fd5b5035611ab4565b34801561042857600080fd5b5061023f6004803603602081101561043f57600080fd5b5035611ac6565b34801561045257600080fd5b5061023f611acd565b34801561046757600080fd5b5061034a6004803603602081101561047e57600080fd5b5035611ad2565b34801561049157600080fd5b506103de600480360360208110156104a857600080fd5b5035611f72565b3480156104bb57600080fd5b506104d9600480360360208110156104d257600080fd5b5035611f87565b604051808660048111156104e957fe5b8152602001856001600160f81b03168152602001846001600160a01b031681526020018381526020018281526020019550505050505060405180910390f35b34801561053457600080fd5b5061023f6004803603602081101561054b57600080fd5b5035611fcc565b34801561055e57600080fd5b506103de6004803603602081101561057557600080fd5b50356120dd565b34801561058857600080fd5b506105916120f2565b604080516001600160a01b039092168252519081900360200190f35b3480156105b957600080fd5b506105c2612116565b604080519485526020850193909352838301919091526060830152519081900360800190f35b61034a600480360360208110156105fe57600080fd5b5035612182565b34801561061157600080fd5b506106356004803603604081101561062857600080fd5b508035906020013561245d565b604051808060200184815260200180602001838103835286818151815260200191508051906020019060200280838360005b8381101561067f578181015183820152602001610667565b50505050905001838103825284818151815260200191508051906020019060200280838360005b838110156106be5781810151838201526020016106a6565b505050509050019550505050505060405180910390f35b3480156106e157600080fd5b5061023f600480360360208110156106f857600080fd5b50356125a7565b34801561070b57600080fd5b5061023f6125ad565b34801561072057600080fd5b506105916125d1565b34801561073557600080fd5b5061023f6125e0565b34801561074a57600080fd5b5061034a6004803603604081101561076157600080fd5b8135919081019060408101602082013564010000000081111561078357600080fd5b82018360208201111561079557600080fd5b803590602001918460018302840111640100000000831117156107b757600080fd5b509092509050612604565b3480156107ce57600080fd5b506107f8600480360360608110156107e557600080fd5b508035906020810135906040013561269e565b6040805192835290151560208301528051918290030190f35b34801561081d57600080fd5b506105916126fd565b34801561083257600080fd5b5061023f6004803603602081101561084957600080fd5b503561270c565b34801561085c57600080fd5b5061088f6004803603606081101561087357600080fd5b50803590602081013590604001356001600160a01b031661271e565b604051808060200180602001838103835285818151815260200191508051906020019060200280838360005b838110156108d35781810151838201526020016108bb565b50505050905001838103825284818151815260200191508051906020019060200280838360005b838110156109125781810151838201526020016108fa565b5050505090500194505050505060405180910390f35b34801561093457600080fd5b5061034a6004803603602081101561094b57600080fd5b503561286a565b34801561095e57600080fd5b5061023f6129d3565b34801561097357600080fd5b506105916129d9565b34801561098857600080fd5b5061023f6004803603606081101561099f57600080fd5b508035906001600160a01b0360208201351690604001356129e8565b3480156109c757600080fd5b5061034a600480360360208110156109de57600080fd5b8101906020810181356401000000008111156109f957600080fd5b820183602082011115610a0b57600080fd5b80359060200191846001830284011164010000000083111715610a2d57600080fd5b91908080601f016020809104026020016040519081016040528093929190818152602001838380828437600092019190915250929550612bd3945050505050565b348015610a7a57600080fd5b5061023f60048036036020811015610a9157600080fd5b5035612bed565b348015610aa457600080fd5b5061034a60048036036060811015610abb57600080fd5b508035906001600160a01b036020820135169060400135612c02565b348015610ae357600080fd5b50610266612c3d565b7f000000000000000000000000000000000000000000000000000000000000000081565b6004805460408051602060026001851615610100026000190190941693909304601f81018490048402820184019092528181529291830182828015610b965780601f10610b6b57610100808354040283529160200191610b96565b820191906000526020600020905b815481529060010190602001808311610b7957829003601f168201915b505050505081565b7f8c5261668696ce22758910d05bab8f186d6eb247ceac2af2e82c7dc17669b03681565b600281565b6005805460408051602060026001851615610100026000190190941693909304601f81018490048402820184019092528181529291830182828015610b965780601f10610b6b57610100808354040283529160200191610b96565b6002811115610c69576040805162461bcd60e51b815260206004820152600e60248201526d496e76616c69642072756c696e6760901b604482015290519081900360640190fd5b6000828152600760209081526040808320548084526006909252909120336001600160a01b037f00000000000000000000000000000000000000000000000000000000000000001614610d03576040805162461bcd60e51b815260206004820152601760248201527f4f6e6c792061726269747261746f7220616c6c6f776564000000000000000000604482015290519081900360640190fd5b6002815460ff166004811115610d1557fe5b14610d64576040805162461bcd60e51b815260206004820152601a602482015279496e76616c6964206172626974726174696f6e2073746174757360301b604482015290519081900360640190fd5b60048101805484916000916000198101908110610d7d57fe5b90600052602060002090600502019050806004018054905060011415610dbb5780600401600081548110610dad57fe5b906000526020600020015491505b6003838101839055835460ff1916178355604080516024810186905260448082018590528251808303909101815260649091019091526020810180516001600160e01b0316636146a07b60e01b90811790915290610e1881612c5e565b60408051858152905189916001600160a01b037f000000000000000000000000000000000000000000000000000000000000000016917f394027a5fa6e098a1191094d1719d6929b9abc535fcc0c8f448d6a4e756222769181900360200190a35050505050505050565b600084815260066020526040812060048101805483919086908110610ea357fe5b6000918252602090912060059091020190506003825460ff166004811115610ec757fe5b14610f10576040805162461bcd60e51b8152602060048201526014602482015273111a5cdc1d5d19481b9bdd081c995cdbdb1d995960621b604482015290519081900360640190fd5b600084815260018201602052604090205460ff16610f55576001600160a01b038616600090815260028201602090815260408083208784529091529020549250611084565b6003820154600090815260018201602052604090205460ff16611022576004810154600110610f8557600061101b565b80600001600082600401600181548110610f9b57fe5b906000526020600020015481526020019081526020016000205481600001600083600401600081548110610fcb57fe5b6000918252602080832090910154835282810193909352604091820181205460038601546001600160a01b038c1683526002870185528383208a845290945291902054920191028161101957fe5b045b9250611084565b83826003015414156110845760008481526020829052604090205480611049576000611080565b60038201546001600160a01b038816600090815260028401602090815260408083208984529091529020548291028161107e57fe5b045b9350505b8215611117576001600160a01b038616600081815260028301602090815260408083208884529091528082208290555185156108fc0291869190818181858888f1935050505050856001600160a01b031685887f54b3cab3cb5c4aca3209db1151caff092e878011202e43a36782d4ebe0b963ae8787604051808381526020018281526020019250505060405180910390a45b5050949350505050565b333014611175576040805162461bcd60e51b815260206004820152601d60248201527f43616e206f6e6c792062652063616c6c65642076696120627269646765000000604482015290519081900360640190fd5b600081815260066020526040902081906001815460ff16600481111561119757fe5b146111e6576040805162461bcd60e51b815260206004820152601a602482015279496e76616c6964206172626974726174696f6e2073746174757360301b604482015290519081900360640190fd5b805460008381526006602052604081208181556001810180546001600160a01b031916905560028101829055600381018290556101009092046001600160f81b031691906112376004830182613f5d565b505060018201546040516001600160a01b039091169082156108fc029083906000818181858888f150506040518793507f841d361c2e9b919234bea88e56ddd3de1314046ccf176d49c24a3c3df788e9a0925060009150a250505050565b600081158015906112a7575060028211155b6112f8576040805162461bcd60e51b815260206004820152601760248201527f416e73776572206973206f7574206f6620626f756e6473000000000000000000604482015290519081900360640190fd5b60008381526006602052604090206002815460ff16600481111561131857fe5b14611362576040805162461bcd60e51b81526020600482015260156024820152742737903234b9b83aba32903a379030b83832b0b61760591b604482015290519081900360640190fd5b6000816002015490506000807f00000000000000000000000000000000000000000000000000000000000000006001600160a01b031663afe15cfb846040518263ffffffff1660e01b815260040180828152602001915050604080518083038186803b1580156113d157600080fd5b505afa1580156113e5573d6000803e3d6000fd5b505050506040513d60408110156113fb57600080fd5b508051602090910151909250905042821180159061141857508042105b611462576040805162461bcd60e51b815260206004820152601660248201527520b83832b0b6103832b934b7b21034b99037bb32b91760511b604482015290519081900360640190fd5b6000807f00000000000000000000000000000000000000000000000000000000000000006001600160a01b0316631c3db16d866040518263ffffffff1660e01b81526004018082815260200191505060206040518083038186803b1580156114c957600080fd5b505afa1580156114dd573d6000803e3d6000fd5b505050506040513d60208110156114f357600080fd5b5051905087811415611527577f000000000000000000000000000000000000000000000000000000000000000091506115d7565b6127106115568585037f0000000000000000000000000000000000000000000000000000000000000000612d37565b8161155d57fe5b04844203106115b3576040805162461bcd60e51b815260206004820152601f60248201527f41707065616c20706572696f64206973206f76657220666f72206c6f73657200604482015290519081900360640190fd5b7f000000000000000000000000000000000000000000000000000000000000000091505b50600485018054600019810191600091839081106115f157fe5b600091825260208083208c84526001600590930201918201905260409091205490915060ff1615611669576040805162461bcd60e51b815260206004820152601b60248201527f41707065616c2066656520697320616c726561647920706169642e0000000000604482015290519081900360640190fd5b6040805163791f8b7360e11b8152600481810189815260248301938452815460026000196101006001841615020190911604604484018190526000946001600160a01b037f0000000000000000000000000000000000000000000000000000000000000000169463f23f16e6948d94909390929160640190849080156117305780601f1061170557610100808354040283529160200191611730565b820191906000526020600020905b81548152906001019060200180831161171357829003601f168201915b5050935050505060206040518083038186803b15801561174f57600080fd5b505afa158015611763573d6000803e3d6000fd5b505050506040513d602081101561177957600080fd5b50519050600061179f61271061178f8488612d37565b8161179657fe5b84919004612d6b565b60008c8152602085905260408120549192509034906117bf908490612d80565b116117e35760008c8152602085905260409020546117de908390612d80565b6117e5565b345b9050336001600160a01b0316858e7fcae597f39a3ad75c2e10d46b031f023c5c2babcd58ca0491b122acda3968d4c08f85604051808381526020018281526020019250505060405180910390a433600090815260028501602090815260408083208f8452825280832080548501905590869052902080548201908190558211611918578360000160008d8152602001908152602001600020548460030160008282540192505081905550836004018c908060018154018082558091505060019003906000526020600020016000909190919091505560018460010160008e815260200190815260200160002060006101000a81548160ff0219169083151502179055508b858e7f39493c1b78d9a13bcc9e1d532fc7faed3889248d93affa811416ce3c6bcb1a6860405160405180910390a45b600484015460011015611a555760048a018054600101815560005260038401546119429084612d80565b84600301819055507f00000000000000000000000000000000000000000000000000000000000000006001600160a01b03166349912f88848b60046040518463ffffffff1660e01b81526004018083815260200180602001828103825283818154600181600116156101000203166002900481526020019150805460018160011615610100020316600290048015611a1b5780601f106119f057610100808354040283529160200191611a1b565b820191906000526020600020905b8154815290600101906020018083116119fe57829003601f168201915b505093505050506000604051808303818588803b158015611a3b57600080fd5b505af1158015611a4f573d6000803e3d6000fd5b50505050505b6000611a613483612d80565b1115611a8d57336108fc611a753484612d80565b6040518115909202916000818181858888f150505050505b50505060008981526001909101602052604090205460ff1696505050505050505b92915050565b60076020526000908152604090205481565b805b919050565b600081565b333014611b26576040805162461bcd60e51b815260206004820152601d60248201527f43616e206f6e6c792062652063616c6c65642076696120627269646765000000604482015290519081900360640190fd5b600081815260066020526040902081906001815460ff166004811115611b4857fe5b14611b97576040805162461bcd60e51b815260206004820152601a602482015279496e76616c6964206172626974726174696f6e2073746174757360301b604482015290519081900360640190fd5b60405163f7434ea960e01b815260206004828101918252805460026000196101006001841615020190911604602484018190526000936001600160a01b037f0000000000000000000000000000000000000000000000000000000000000000169363f7434ea993929091829160449091019084908015611c585780601f10611c2d57610100808354040283529160200191611c58565b820191906000526020600020905b815481529060010190602001808311611c3b57829003601f168201915b50509250505060206040518083038186803b158015611c7657600080fd5b505afa158015611c8a573d6000803e3d6000fd5b505050506040513d6020811015611ca057600080fd5b5051825490915061010090046001600160f81b03168111611f35576040805163c13517e160e01b8152600260048281018281526024840194855281546000196101006001831615020116839004604485018190526001600160a01b037f0000000000000000000000000000000000000000000000000000000000000000169563c13517e195889594939260649091019084908015611d7f5780601f10611d5457610100808354040283529160200191611d7f565b820191906000526020600020905b815481529060010190602001808311611d6257829003601f168201915b505093505050506020604051808303818588803b158015611d9f57600080fd5b505af193505050508015611dc557506040513d6020811015611dc057600080fd5b505160015b611e0457815460ff1916600417825560405184907f794bcf8358ec9066a41460c1fa506e1679707b1b1123e1ddc7f2fd601ff3c70490600090a2611f30565b6000818152600760209081526040808320879055868352600890915281208054600160ff19918216811790925585546002918116821760ff1687559086018490556004860180549092018255915261010090046001600160f81b03168290038015611e955760018401546040516001600160a01b039091169082156108fc029083906000818181858888f150505050505b604051829087907fd77ab978e3c3b4dbb04a8e8d23b2964df32870f5527cd1ffd8b11610fffade4790600090a3817f00000000000000000000000000000000000000000000000000000000000000006001600160a01b03167f74baab670a4015ab2f1b467c5252a96141a2573f2908e58a92081e80d3cfde3d600088604051808381526020018281526020019250505060405180910390a350505b611f6c565b815460ff1916600417825560405184907f794bcf8358ec9066a41460c1fa506e1679707b1b1123e1ddc7f2fd601ff3c70490600090a25b50505050565b60036020526000908152604090205460ff1681565b600660205260009081526040902080546001820154600283015460039093015460ff8316936101009093046001600160f81b0316926001600160a01b03909216919085565b60405163f7434ea960e01b815260206004828101918252805460026000196101006001841615020190911604602484018190526000936001600160a01b037f0000000000000000000000000000000000000000000000000000000000000000169363f7434ea99392909182916044909101908490801561208d5780601f106120625761010080835404028352916020019161208d565b820191906000526020600020905b81548152906001019060200180831161207057829003601f168201915b50509250505060206040518083038186803b1580156120ab57600080fd5b505afa1580156120bf573d6000803e3d6000fd5b505050506040513d60208110156120d557600080fd5b505192915050565b60086020526000908152604090205460ff1681565b7f000000000000000000000000000000000000000000000000000000000000000081565b7f00000000000000000000000000000000000000000000000000000000000000007f00000000000000000000000000000000000000000000000000000000000000007f000000000000000000000000000000000000000000000000000000000000000061271090919293565b60008181526008602052604090205460ff16156121df576040805162461bcd60e51b81526020600482015260166024820152754469737075746520616c72656164792065786973747360501b604482015290519081900360640190fd5b600081815260066020526040812090815460ff1660048111156121fe57fe5b14612250576040805162461bcd60e51b815260206004820152601d60248201527f4172626974726174696f6e20616c726561647920726571756573746564000000604482015290519081900360640190fd5b60405163f7434ea960e01b815260206004828101918252805460026000196101006001841615020190911604602484018190526000936001600160a01b037f0000000000000000000000000000000000000000000000000000000000000000169363f7434ea9939290918291604490910190849080156123115780601f106122e657610100808354040283529160200191612311565b820191906000526020600020905b8154815290600101906020018083116122f457829003601f168201915b50509250505060206040518083038186803b15801561232f57600080fd5b505afa158015612343573d6000803e3d6000fd5b505050506040513d602081101561235957600080fd5b50519050348111156123aa576040805162461bcd60e51b81526020600482015260156024820152744465706f7369742076616c756520746f6f206c6f7760581b604482015290519081900360640190fd5b81546001600160f81b03341661010002600160ff19909216821760ff16178355820180546001600160a01b0319163390811790915560408051602481018690526044808201939093528151808203909301835260640190526020810180516001600160e01b0316634f92e44d60e11b9081179091529061242981612c5e565b604051339086907fbeb7c7ca9632eceb7faaaf69b98051a5edd2a3930327b96316c86cb5dc8cb0a690600090a35050505050565b6060600060606000600660008781526020019081526020016000209050600081600401868154811061248b57fe5b90600052602060002090600502019050806004018054806020026020016040519081016040528092919081815260200182805480156124e957602002820191906000526020600020905b8154815260200190600101908083116124d5575b5050505060048301549194505067ffffffffffffffff8111801561250c57600080fd5b50604051908082528060200260200182016040528015612536578160200160208202803683370190505b50945060005b60048201548110156125965781600001600083600401838154811061255d57fe5b906000526020600020015481526020019081526020016000205486828151811061258357fe5b602090810291909101015260010161253c565b508060030154935050509250925092565b50600290565b7f000000000000000000000000000000000000000000000000000000000000000081565b6002546001600160a01b031681565b7f000000000000000000000000000000000000000000000000000000000000000081565b336001600160a01b0316837f00000000000000000000000000000000000000000000000000000000000000006001600160a01b03167fdccf2f8b2cc26eafcd61905cba744cff4b81d14740725f6376390dc6298a6a3c858560405180806020018281038252848482818152602001925080828437600083820152604051601f909101601f19169092018290039550909350505050a4505050565b60008381526006602052604081206004810180548392918391879081106126c157fe5b600091825260208083209783526005909102909601808752604080832054600190920190975295902054949760ff909516965093945050505050565b6001546001600160a01b031681565b60009081526007602052604090205490565b600083815260066020526040812060048101805460609384939290918790811061274457fe5b90600052602060002090600502019050806004018054806020026020016040519081016040528092919081815260200182805480156127a257602002820191906000526020600020905b81548152602001906001019080831161278e575b5050505060048301549195505067ffffffffffffffff811180156127c557600080fd5b506040519080825280602002602001820160405280156127ef578160200160208202803683370190505b50925060005b835181101561285f576001600160a01b03861660009081526002830160205260408120865190919087908490811061282957fe5b602002602001015181526020019081526020016000205484828151811061284c57fe5b60209081029190910101526001016127f5565b505050935093915050565b600081815260066020526040902081906004815460ff16600481111561288c57fe5b146128db576040805162461bcd60e51b815260206004820152601a602482015279496e76616c6964206172626974726174696f6e2073746174757360301b604482015290519081900360640190fd5b805460008381526006602052604081208181556001810180546001600160a01b031916905560028101829055600381018290556101009092046001600160f81b0316919061292c6004830182613f5d565b505060018201546040516001600160a01b039091169082156108fc029083906000818181858888f150506040805160248082018a90528251808303909101815260449091019091526020810180516001600160e01b03166302a67b3d60e51b908117909152935091506129a0905081612c5e565b60405186907f841d361c2e9b919234bea88e56ddd3de1314046ccf176d49c24a3c3df788e9a090600090a2505050505050565b61271081565b6000546001600160a01b031681565b60008381526006602052604081206003815460ff166004811115612a0857fe5b1015612a145750612bcc565b6003810154600482015460005b81811015612bc7576000846004018281548110612a3a57fe5b600091825260208083208a84526001600590930201918201905260409091205490915060ff16612a94576001600160a01b038816600090815260028201602090815260408083208a84529091529020549590950194612bbe565b600084815260018201602052604090205460ff16612b5e576004810154600110612abf576000612b55565b80600001600082600401600181548110612ad557fe5b906000526020600020015481526020019081526020016000205481600001600083600401600081548110612b0557fe5b6000918252602080832090910154835282810193909352604091820181205460038601546001600160a01b038e1683526002870185528383208d8452909452919020549201910281612b5357fe5b045b86019550612bbe565b86841415612bbe5760008781526020829052604090205480612b81576000612bb8565b60038201546001600160a01b038a16600090815260028401602090815260408083208c845290915290205482910281612bb657fe5b045b87019650505b50600101612a21565b505050505b9392505050565b6000612bde82612d9b565b9050612be981613234565b5050565b60009081526006602052604090206004015490565b6000838152600660205260408120600481015490915b81811015612c3557612c2c86868387610e82565b50600101612c18565b505050505050565b604051806040016040528060058152602001640322e302e360dc1b81525081565b600080546002546040805163b472047760e01b81526001600160a01b039283166004820181815260248301938452875160448401528751949095169563b472047795919488949293606401916020860191908190849084905b83811015612ccf578181015183820152602001612cb7565b50505050905090810190601f168015612cfc5780820380516001836020036101000a031916815260200191505b509350505050600060405180830381600087803b158015612d1c57600080fd5b505af1158015612d30573d6000803e3d6000fd5b5050505050565b600082612d4657506000611aae565b82820282848281612d5357fe5b0414612d6157600019612d63565b805b949350505050565b600082820183811015612d6157600019612d63565b600082821115612d9257506000611aae565b50808203611aae565b60606000612db0612dab8461332d565b613352565b90506000612dd182600281518110612dc457fe5b602002602001015161343a565b612df6612df184600881518110612de457fe5b602002602001015161349a565b61351f565b612e0684600981518110612dc457fe5b6040516020018084815260200183805190602001908083835b60208310612e3e5780518252601f199092019160209182019101612e1f565b51815160209384036101000a6000190180199092169116179052920193845250604080518085038152938201815283519382019390932060008181526003909252929020549194505060ff16159150612eca90505760405162461bcd60e51b81526004018080602001828103825260248152602001806140186024913960400191505060405180910390fd5b6000818152600360205260408120805460ff191660011790558251612f0390612dab90612efe9086906006908110612de457fe5b61332d565b90506000612f2482600381518110612f1757fe5b6020026020010151613352565b612f3485600981518110612dc457fe5b81518110612f3e57fe5b602002602001015190506000612f5382613352565b9050612f7281600081518110612f6557fe5b6020026020010151613692565b6002546001600160a01b03908116911614612fbe5760405162461bcd60e51b815260040180806020018281038252602581526020018061403c6025913960400191505060405180910390fd5b613006612fd186600681518110612de457fe5b612fe187600881518110612de457fe5b612ff188600781518110612de457fe5b61300189600581518110612dc457fe5b6136ac565b6130415760405162461bcd60e51b8152600401808060200182810382526023815260200180613ff56023913960400191505060405180910390fd5b6130af61305486600281518110612dc457fe5b61306487600381518110612dc457fe5b61307488600481518110612dc457fe5b60001b61308789600581518110612dc457fe5b60001b61309a8a600081518110612dc457fe5b6130aa8b600181518110612de457fe5b6138eb565b5060006130c282600181518110612f1757fe5b90507f8c5261668696ce22758910d05bab8f186d6eb247ceac2af2e82c7dc17669b03660001b6130f882600081518110612dc457fe5b1461314a576040805162461bcd60e51b815260206004820152601f60248201527f4678526f6f7454756e6e656c3a20494e56414c49445f5349474e415455524500604482015290519081900360640190fd5b600061315c83600281518110612de457fe5b9050600081806020019051602081101561317557600080fd5b810190808051604051939291908464010000000082111561319557600080fd5b9083019060208201858111156131aa57600080fd5b82516401000000008111828201881017156131c457600080fd5b82525081516020918201929091019080838360005b838110156131f15781810151838201526020016131d9565b50505050905090810190601f16801561321e5780820380516001836020036101000a031916815260200191505b5060405250919c9b505050505050505050505050565b6000306001600160a01b0316826040518082805190602001908083835b602083106132705780518252601f199092019160209182019101613251565b6001836020036101000a0380198251168184511680821785525050505050509050019150506000604051808303816000865af19150503d80600081146132d2576040519150601f19603f3d011682016040523d82523d6000602084013e6132d7565b606091505b5050905080612be9576040805162461bcd60e51b815260206004820152601760248201527f4661696c656420746f2063616c6c20636f6e7472616374000000000000000000604482015290519081900360640190fd5b613335613f81565b506040805180820190915281518152602082810190820152919050565b606061335d82613a5d565b61336657600080fd5b600061337183613a97565b905060008167ffffffffffffffff8111801561338c57600080fd5b506040519080825280602002602001820160405280156133c657816020015b6133b3613f81565b8152602001906001900390816133ab5790505b50905060006133d88560200151613aef565b60208601510190506000805b8481101561342f576133f583613b52565b915060405180604001604052808381526020018481525084828151811061341857fe5b6020908102919091010152918101916001016133e4565b509195945050505050565b80516000901580159061344f57508151602110155b61345857600080fd5b60006134678360200151613aef565b8351602080860151830180519394509184900392919083101561349157826020036101000a820491505b50949350505050565b80516060906134a857600080fd5b60006134b78360200151613aef565b835190915081900360008167ffffffffffffffff811180156134d857600080fd5b506040519080825280601f01601f191660200182016040528015613503576020820181803683370190505b5090506000816020019050613491848760200151018285613beb565b60408051602081019091526000815281516060919015611aae57600080613547600086613c36565b60f81c9050600181148061355e57508060ff166003145b156135ed57600185516002020367ffffffffffffffff8111801561358157600080fd5b506040519080825280601f01601f1916602001820160405280156135ac576020820181803683370190505b50925060006135bc600187613c36565b905080846000815181106135cc57fe5b60200101906001600160f81b031916908160001a905350600192505061363e565b600285516002020367ffffffffffffffff8111801561360b57600080fd5b506040519080825280601f01601f191660200182016040528015613636576020820181803683370190505b509250600091505b60ff82165b83518110156136895761365e8360ff16820360020187613c36565b84828151811061366a57fe5b60200101906001600160f81b031916908160001a905350600101613643565b50505092915050565b80516000906015146136a357600080fd5b611aae8261343a565b6000806136b88461332d565b905060006136c582613352565b9050606080856000806136d78b61351f565b90508051600014156136f3576000975050505050505050612d63565b60005b86518110156138db57815183111561371957600098505050505050505050612d63565b61373587828151811061372857fe5b6020026020010151613c93565b95508580519060200120841461375657600098505050505050505050612d63565b613765878281518110612f1757fe5b94508451601114156138225781518314156137c1578c8051906020012061379286601081518110612de457fe5b8051906020012014156137b057600198505050505050505050612d63565b600098505050505050505050612d63565b60008284815181106137cf57fe5b016020015160f81c905060108111156137f45760009950505050505050505050612d63565b613813868260ff168151811061380657fe5b6020026020010151613d0c565b945050600192909201916138d3565b8451600214156137b057600061384861384187600081518110612de457fe5b8486613d29565b90508251818501141561389e578d8051906020012061386d87600181518110612de457fe5b80519060200120141561388c5760019950505050505050505050612d63565b60009950505050505050505050612d63565b806138b55760009950505050505050505050612d63565b80840193506138ca8660018151811061380657fe5b94506138d39050565b6001016136f6565b5050505050505050949350505050565b600154604080516320a9cea560e11b81526004810185905290516000928392839283926001600160a01b0316916341539d4a9160248083019260a0929190829003018186803b15801561393d57600080fd5b505afa158015613951573d6000803e3d6000fd5b505050506040513d60a081101561396757600080fd5b81019080805190602001909291908051906020019092919080519060200190929190805190602001909291908051906020019092919050505050935050925092506139ff828b0384878d8d8d8d6040516020018085815260200184815260200183815260200182815260200194505050505060405160208183030381529060405280519060200120613e07909392919063ffffffff16565b613a50576040805162461bcd60e51b815260206004820152601c60248201527f4678526f6f7454756e6e656c3a20494e56414c49445f48454144455200000000604482015290519081900360640190fd5b9998505050505050505050565b8051600090613a6e57506000611ac8565b6020820151805160001a9060c0821015613a8d57600092505050611ac8565b5060019392505050565b8051600090613aa857506000611ac8565b600080613ab88460200151613aef565b602085015185519181019250015b80821015613ae657613ad782613b52565b60019093019290910190613ac6565b50909392505050565b8051600090811a6080811015613b09576000915050611ac8565b60b8811080613b24575060c08110801590613b24575060f881105b15613b33576001915050611ac8565b60c0811015613b475760b519019050611ac8565b60f519019050611ac8565b80516000908190811a6080811015613b6d5760019150613be4565b60b8811015613b8257607e1981019150613be4565b60c0811015613baf5760b78103600185019450806020036101000a85510460018201810193505050613be4565b60f8811015613bc45760be1981019150613be4565b60f78103600185019450806020036101000a855104600182018101935050505b5092915050565b80613bf557613c31565b5b60208110613c15578251825260209283019290910190601f1901613bf6565b8251825160208390036101000a60001901801990921691161782525b505050565b60006002830615613c67576010826002850481518110613c5257fe5b016020015160f81c81613c6157fe5b06613c89565b6010826002850481518110613c7857fe5b016020015160f81c81613c8757fe5b045b60f81b9392505050565b60606000826000015167ffffffffffffffff81118015613cb257600080fd5b506040519080825280601f01601f191660200182016040528015613cdd576020820181803683370190505b509050805160001415613cf1579050611ac8565b6000816020019050613be48460200151828660000151613beb565b8051600090602114613d1d57600080fd5b50602001516001015190565b60008080613d368661351f565b90506000815167ffffffffffffffff81118015613d5257600080fd5b506040519080825280601f01601f191660200182016040528015613d7d576020820181803683370190505b509050845b82518601811015613dd7576000878281518110613d9b57fe5b602001015160f81c60f81b9050808388840381518110613db757fe5b60200101906001600160f81b031916908160001a90535050600101613d82565b50808051906020012082805190602001201415613df75781519250613dfc565b600092505b509095945050505050565b60006020825181613e1457fe5b0615613e5e576040805162461bcd60e51b8152602060048201526014602482015273092dcecc2d8d2c840e0e4dedecc40d8cadccee8d60631b604482015290519081900360640190fd5b60006020835181613e6b57fe5b0490508060020a8510613ebd576040805162461bcd60e51b81526020600482015260156024820152744c65616620696e64657820697320746f6f2062696760581b604482015290519081900360640190fd5b60008660205b85518111613f4f5785810151925060028806613f0f5781836040516020018083815260200182815260200192505050604051602081830303815290604052805190602001209150613f41565b828260405160200180838152602001828152602001925050506040516020818303038152906040528051906020012091505b600288049750602001613ec3565b509094149695505050505050565b5080546000825560050290600052602060002090810190613f7e9190613f9b565b50565b604051806040016040528060008152602001600081525090565b80821115613fc257600060038201819055613fb96004830182613fc6565b50600501613f9b565b5090565b5080546000825590600052602060002090810190613f7e91905b80821115613fc25760008155600101613fe056fe4678526f6f7454756e6e656c3a20494e56414c49445f524543454950545f50524f4f464678526f6f7454756e6e656c3a20455849545f414c52454144595f50524f4345535345444678526f6f7454756e6e656c3a20494e56414c49445f46585f4348494c445f54554e4e454ca26469706673582212205dc35b449f967fb3b785d6d498951919c284fa134f616ac14316d2249f8e8e5a64736f6c63430007060033",
  "devdoc": {
    "details": "This contract is meant to be deployed to the Ethereum chains where Kleros is deployed.",
    "kind": "dev",
    "methods": {
      "constructor": {
        "params": {
          "_arbitrator": "Arbitrator contract address.",
          "_arbitratorExtraData": "The extra data used to raise a dispute in the arbitrator.",
          "_checkpointManager": "For Polygon FX-portal bridge",
          "_fxRoot": "Address of the FxRoot contract of the Polygon bridge",
          "_homeProxy": "The address of the proxy.",
          "_loserAppealPeriodMultiplier": "Multiplier for calculating the appeal period for the losing answer.",
          "_loserMultiplier": "Multiplier for calculation the appeal cost of the losing answer.",
          "_metaEvidence": "The URI of the meta evidence file.",
          "_termsOfService": "The path for the Terms of Service for Kleros as an arbitrator for Realitio.",
          "_winnerMultiplier": "Multiplier for calculating the appeal cost of the winning answer."
        }
      },
      "createDisputeForProjectRequest(uint256)": {
        "params": {
          "_projectID": "The ID of the project."
        }
      },
      "externalIDtoLocalID(uint256)": {
        "params": {
          "_externalDisputeID": "Dispute id as in arbitrator side."
        },
        "returns": {
          "_0": "localDisputeID Dispute id as in arbitrable contract."
        }
      },
      "fundAppeal(uint256,uint256)": {
        "params": {
          "_answer": "One of the possible rulings the arbitrator can give that the funder considers to be the correct answer to the project.",
          "_arbitrationID": "The ID of the arbitration, which is projectID cast into uint256."
        },
        "returns": {
          "_0": "Whether the answer was fully funded or not."
        }
      },
      "getContributionsToSuccessfulFundings(uint256,uint256,address)": {
        "params": {
          "_arbitrationID": "The ID of the arbitration.",
          "_contributor": "The address whose contributions to query.",
          "_round": "The round to query."
        },
        "returns": {
          "contributions": "The amount contributed to each funded answer by the contributor.",
          "fundedAnswers": "IDs of the answers that are fully funded."
        }
      },
      "getDisputeFee(uint256)": {
        "returns": {
          "_0": "The fee to create a dispute."
        }
      },
      "getFundingStatus(uint256,uint256,uint256)": {
        "params": {
          "_answer": "The answer choice to get funding status for.",
          "_arbitrationID": "The ID of the arbitration.",
          "_round": "The round to query."
        },
        "returns": {
          "fullyFunded": "Whether the answer is fully funded or not.",
          "raised": "The amount paid for this answer."
        }
      },
      "getMultipliers()": {
        "returns": {
          "divisor": "Multiplier divisor.",
          "loser": "Losers stake multiplier.",
          "loserAppealPeriod": "Multiplier for calculating an appeal period duration for the losing side.",
          "winner": "Winners stake multiplier."
        }
      },
      "getNumberOfRounds(uint256)": {
        "params": {
          "_arbitrationID": "The ID of the arbitration related to the project."
        },
        "returns": {
          "_0": "The number of rounds."
        }
      },
      "getRoundInfo(uint256,uint256)": {
        "params": {
          "_arbitrationID": "The ID of the arbitration.",
          "_round": "The round to query."
        },
        "returns": {
          "feeRewards": "The amount of fees that will be used as rewards.",
          "fundedAnswers": "IDs of fully funded answers.",
          "paidFees": "The amount of fees paid for each fully funded answer."
        }
      },
      "getTotalWithdrawableAmount(uint256,address,uint256)": {
        "details": "This function is O(n) where n is the total number of rounds.This could exceed the gas limit, therefore this function should be used only as a utility and not be relied upon by other contracts.",
        "params": {
          "_arbitrationID": "The ID of the arbitration.",
          "_beneficiary": "The contributor for which to query.",
          "_contributedTo": "Answer that received contributions from contributor."
        },
        "returns": {
          "sum": "The total amount available to withdraw."
        }
      },
      "handleFailedDisputeCreation(uint256)": {
        "params": {
          "_projectID": "The ID of the project."
        }
      },
      "numberOfRulingOptions(uint256)": {
        "returns": {
          "_0": "count The number of ruling options."
        }
      },
      "projectIDToArbitrationID(uint256)": {
        "params": {
          "_projectID": "The ID of the project."
        },
        "returns": {
          "_0": "The ID of the arbitration."
        }
      },
      "receiveArbitrationAcknowledgement(uint256)": {
        "params": {
          "_projectID": "The ID of the project."
        }
      },
      "receiveArbitrationCancelation(uint256)": {
        "params": {
          "_projectID": "The ID of the project."
        }
      },
      "receiveMessage(bytes)": {
        "details": "This function verifies if the transaction actually happened on child chain",
        "params": {
          "inputData": "RLP encoded data of the reference tx containing following list of fields  0 - headerNumber - Checkpoint header block number containing the reference tx  1 - blockProof - Proof that the block header (in the child chain) is a leaf in the submitted merkle root  2 - blockNumber - Block number containing the reference tx on child chain  3 - blockTime - Reference tx block time  4 - txRoot - Transactions root of block  5 - receiptRoot - Receipts root of block  6 - receipt - Receipt of the reference transaction  7 - receiptProof - Merkle proof of the reference receipt  8 - branchMask - 32 bits denoting the path of receipt in merkle tree  9 - receiptLogIndex - Log Index to read from the receipt"
        }
      },
      "rule(uint256,uint256)": {
        "details": "Accounts for the situation where the winner loses a case due to paying less appeal fees than expected.",
        "params": {
          "_disputeID": "The ID of the dispute in the ERC792 arbitrator.",
          "_ruling": "The ruling given by the arbitrator."
        }
      },
      "submitEvidence(uint256,string)": {
        "params": {
          "_arbitrationID": "The ID of the arbitration related to the project.",
          "_evidenceURI": "Link to evidence."
        }
      },
      "withdrawFeesAndRewards(uint256,address,uint256,uint256)": {
        "params": {
          "_answer": "The answer to query the reward from.",
          "_arbitrationID": "The ID of the arbitration.",
          "_beneficiary": "The address to send reward to.",
          "_round": "The round from which to withdraw."
        },
        "returns": {
          "reward": "The withdrawn amount."
        }
      },
      "withdrawFeesAndRewardsForAllRounds(uint256,address,uint256)": {
        "details": "This function is O(n) where n is the total number of rounds. Arbitration cost of subsequent rounds is `A(n) = 2A(n-1) + 1`.      So because of this exponential growth of costs, you can assume n is less than 10 at all times.",
        "params": {
          "_arbitrationID": "The ID of the arbitration.",
          "_beneficiary": "The address that made contributions.",
          "_contributedTo": "Answer that received contributions from contributor."
        }
      }
    },
    "title": "Arbitration proxy for Realitio on Ethereum side (A.K.A. the Foreign Chain). This version of the contract has an appeal support.",
    "version": 1
  },
  "userdoc": {
    "events": {
      "ArbitrationCanceled(uint256)": {
        "notice": "Should be emitted when the arbitration is canceled by the Home Chain."
      },
      "ArbitrationCreated(uint256,uint256)": {
        "notice": "Should be emitted when the dispute is created."
      },
      "ArbitrationFailed(uint256)": {
        "notice": "Should be emitted when the dispute could not be created."
      },
      "ArbitrationRequested(uint256,address)": {
        "notice": "Should be emitted when the arbitration is requested."
      }
    },
    "kind": "user",
    "methods": {
      "constructor": {
        "notice": "Creates an arbitration proxy on the foreign chain."
      },
      "createDisputeForProjectRequest(uint256)": {
        "notice": "Requests arbitration for the given projectID."
      },
      "externalIDtoLocalID(uint256)": {
        "notice": "Maps external (arbitrator side) dispute id to local (arbitrable) dispute id."
      },
      "fundAppeal(uint256,uint256)": {
        "notice": "Takes up to the total amount required to fund an answer. Reimburses the rest. Creates an appeal if at least two answers are funded."
      },
      "getContributionsToSuccessfulFundings(uint256,uint256,address)": {
        "notice": "Gets contributions to the answers that are fully funded."
      },
      "getDisputeFee(uint256)": {
        "notice": "Gets the fee to create a dispute."
      },
      "getFundingStatus(uint256,uint256,uint256)": {
        "notice": "Gets the information of a round of a project for a specific answer choice."
      },
      "getMultipliers()": {
        "notice": "Returns stake multipliers."
      },
      "getNumberOfRounds(uint256)": {
        "notice": "Gets the number of rounds of the specific project."
      },
      "getRoundInfo(uint256,uint256)": {
        "notice": "Gets the information of a round of a project."
      },
      "getTotalWithdrawableAmount(uint256,address,uint256)": {
        "notice": "Returns the sum of withdrawable amount."
      },
      "handleFailedDisputeCreation(uint256)": {
        "notice": "Cancels the arbitration in case the dispute could not be created."
      },
      "numberOfRulingOptions(uint256)": {
        "notice": "Returns number of possible ruling options. Valid rulings are [0, return value]."
      },
      "projectIDToArbitrationID(uint256)": {
        "notice": "Casts project ID into uint256 thus returning the related arbitration ID."
      },
      "receiveArbitrationAcknowledgement(uint256)": {
        "notice": "Receives the acknowledgement of the arbitration request for the given project. TRUSTED."
      },
      "receiveArbitrationCancelation(uint256)": {
        "notice": "Receives the cancelation of the arbitration request for the given project. TRUSTED."
      },
      "receiveMessage(bytes)": {
        "notice": "receive message from  L2 to L1, validated by proof"
      },
      "rule(uint256,uint256)": {
        "notice": "Rules a specified dispute. Can only be called by the arbitrator."
      },
      "submitEvidence(uint256,string)": {
        "notice": "Allows to submit evidence for a particular project."
      },
      "withdrawFeesAndRewards(uint256,address,uint256,uint256)": {
        "notice": "Sends the fee stake rewards and reimbursements proportional to the contributions made to the winner of a dispute. Reimburses contributions if there is no winner."
      },
      "withdrawFeesAndRewardsForAllRounds(uint256,address,uint256)": {
        "notice": "Allows to withdraw any rewards or reimbursable fees for all rounds at once."
      }
    },
    "version": 1
  },
  "storageLayout": {
    "storage": [
      {
        "astId": 2154,
        "contract": "src/SundialForeignArbitrationProxyWithAppeals.sol:SundialForeignArbitrationProxyWithAppeals",
        "label": "fxRoot",
        "offset": 0,
        "slot": "0",
        "type": "t_contract(IFxStateSender)2123"
      },
      {
        "astId": 2156,
        "contract": "src/SundialForeignArbitrationProxyWithAppeals.sol:SundialForeignArbitrationProxyWithAppeals",
        "label": "checkpointManager",
        "offset": 0,
        "slot": "1",
        "type": "t_contract(ICheckpointManager)2140"
      },
      {
        "astId": 2158,
        "contract": "src/SundialForeignArbitrationProxyWithAppeals.sol:SundialForeignArbitrationProxyWithAppeals",
        "label": "fxChildTunnel",
        "offset": 0,
        "slot": "2",
        "type": "t_address"
      },
      {
        "astId": 2162,
        "contract": "src/SundialForeignArbitrationProxyWithAppeals.sol:SundialForeignArbitrationProxyWithAppeals",
        "label": "processedExits",
        "offset": 0,
        "slot": "3",
        "type": "t_mapping(t_bytes32,t_bool)"
      },
      {
        "astId": 551,
        "contract": "src/SundialForeignArbitrationProxyWithAppeals.sol:SundialForeignArbitrationProxyWithAppeals",
        "label": "arbitratorExtraData",
        "offset": 0,
        "slot": "4",
        "type": "t_bytes_storage"
      },
      {
        "astId": 553,
        "contract": "src/SundialForeignArbitrationProxyWithAppeals.sol:SundialForeignArbitrationProxyWithAppeals",
        "label": "termsOfService",
        "offset": 0,
        "slot": "5",
        "type": "t_string_storage"
      },
      {
        "astId": 563,
        "contract": "src/SundialForeignArbitrationProxyWithAppeals.sol:SundialForeignArbitrationProxyWithAppeals",
        "label": "arbitrationRequests",
        "offset": 0,
        "slot": "6",
        "type": "t_mapping(t_uint256,t_struct(ArbitrationRequest)527_storage)"
      },
      {
        "astId": 567,
        "contract": "src/SundialForeignArbitrationProxyWithAppeals.sol:SundialForeignArbitrationProxyWithAppeals",
        "label": "disputeIDToArbitrationID",
        "offset": 0,
        "slot": "7",
        "type": "t_mapping(t_uint256,t_uint256)"
      },
      {
        "astId": 571,
        "contract": "src/SundialForeignArbitrationProxyWithAppeals.sol:SundialForeignArbitrationProxyWithAppeals",
        "label": "arbitrationIDToDisputeExists",
        "offset": 0,
        "slot": "8",
        "type": "t_mapping(t_uint256,t_bool)"
      }
    ],
    "types": {
      "t_address": {
        "encoding": "inplace",
        "label": "address",
        "numberOfBytes": "20"
      },
      "t_array(t_struct(Round)547_storage)dyn_storage": {
        "base": "t_struct(Round)547_storage",
        "encoding": "dynamic_array",
        "label": "struct SundialForeignArbitrationProxyWithAppeals.Round[]",
        "numberOfBytes": "32"
      },
      "t_array(t_uint256)dyn_storage": {
        "base": "t_uint256",
        "encoding": "dynamic_array",
        "label": "uint256[]",
        "numberOfBytes": "32"
      },
      "t_bool": {
        "encoding": "inplace",
        "label": "bool",
        "numberOfBytes": "1"
      },
      "t_bytes32": {
        "encoding": "inplace",
        "label": "bytes32",
        "numberOfBytes": "32"
      },
      "t_bytes_storage": {
        "encoding": "bytes",
        "label": "bytes",
        "numberOfBytes": "32"
      },
      "t_contract(ICheckpointManager)2140": {
        "encoding": "inplace",
        "label": "contract ICheckpointManager",
        "numberOfBytes": "20"
      },
      "t_contract(IFxStateSender)2123": {
        "encoding": "inplace",
        "label": "contract IFxStateSender",
        "numberOfBytes": "20"
      },
      "t_enum(Status)513": {
        "encoding": "inplace",
        "label": "enum SundialForeignArbitrationProxyWithAppeals.Status",
        "numberOfBytes": "1"
      },
      "t_mapping(t_address,t_mapping(t_uint256,t_uint256))": {
        "encoding": "mapping",
        "key": "t_address",
        "label": "mapping(address => mapping(uint256 => uint256))",
        "numberOfBytes": "32",
        "value": "t_mapping(t_uint256,t_uint256)"
      },
      "t_mapping(t_bytes32,t_bool)": {
        "encoding": "mapping",
        "key": "t_bytes32",
        "label": "mapping(bytes32 => bool)",
        "numberOfBytes": "32",
        "value": "t_bool"
      },
      "t_mapping(t_uint256,t_bool)": {
        "encoding": "mapping",
        "key": "t_uint256",
        "label": "mapping(uint256 => bool)",
        "numberOfBytes": "32",
        "value": "t_bool"
      },
      "t_mapping(t_uint256,t_struct(ArbitrationRequest)527_storage)": {
        "encoding": "mapping",
        "key": "t_uint256",
        "label": "mapping(uint256 => struct SundialForeignArbitrationProxyWithAppeals.ArbitrationRequest)",
        "numberOfBytes": "32",
        "value": "t_struct(ArbitrationRequest)527_storage"
      },
      "t_mapping(t_uint256,t_uint256)": {
        "encoding": "mapping",
        "key": "t_uint256",
        "label": "mapping(uint256 => uint256)",
        "numberOfBytes": "32",
        "value": "t_uint256"
      },
      "t_string_storage": {
        "encoding": "bytes",
        "label": "string",
        "numberOfBytes": "32"
      },
      "t_struct(ArbitrationRequest)527_storage": {
        "encoding": "inplace",
        "label": "struct SundialForeignArbitrationProxyWithAppeals.ArbitrationRequest",
        "members": [
          {
            "astId": 515,
            "contract": "src/SundialForeignArbitrationProxyWithAppeals.sol:SundialForeignArbitrationProxyWithAppeals",
            "label": "status",
            "offset": 0,
            "slot": "0",
            "type": "t_enum(Status)513"
          },
          {
            "astId": 517,
            "contract": "src/SundialForeignArbitrationProxyWithAppeals.sol:SundialForeignArbitrationProxyWithAppeals",
            "label": "deposit",
            "offset": 1,
            "slot": "0",
            "type": "t_uint248"
          },
          {
            "astId": 519,
            "contract": "src/SundialForeignArbitrationProxyWithAppeals.sol:SundialForeignArbitrationProxyWithAppeals",
            "label": "requester",
            "offset": 0,
            "slot": "1",
            "type": "t_address"
          },
          {
            "astId": 521,
            "contract": "src/SundialForeignArbitrationProxyWithAppeals.sol:SundialForeignArbitrationProxyWithAppeals",
            "label": "disputeID",
            "offset": 0,
            "slot": "2",
            "type": "t_uint256"
          },
          {
            "astId": 523,
            "contract": "src/SundialForeignArbitrationProxyWithAppeals.sol:SundialForeignArbitrationProxyWithAppeals",
            "label": "answer",
            "offset": 0,
            "slot": "3",
            "type": "t_uint256"
          },
          {
            "astId": 526,
            "contract": "src/SundialForeignArbitrationProxyWithAppeals.sol:SundialForeignArbitrationProxyWithAppeals",
            "label": "rounds",
            "offset": 0,
            "slot": "4",
            "type": "t_array(t_struct(Round)547_storage)dyn_storage"
          }
        ],
        "numberOfBytes": "160"
      },
      "t_struct(Round)547_storage": {
        "encoding": "inplace",
        "label": "struct SundialForeignArbitrationProxyWithAppeals.Round",
        "members": [
          {
            "astId": 531,
            "contract": "src/SundialForeignArbitrationProxyWithAppeals.sol:SundialForeignArbitrationProxyWithAppeals",
            "label": "paidFees",
            "offset": 0,
            "slot": "0",
            "type": "t_mapping(t_uint256,t_uint256)"
          },
          {
            "astId": 535,
            "contract": "src/SundialForeignArbitrationProxyWithAppeals.sol:SundialForeignArbitrationProxyWithAppeals",
            "label": "hasPaid",
            "offset": 0,
            "slot": "1",
            "type": "t_mapping(t_uint256,t_bool)"
          },
          {
            "astId": 541,
            "contract": "src/SundialForeignArbitrationProxyWithAppeals.sol:SundialForeignArbitrationProxyWithAppeals",
            "label": "contributions",
            "offset": 0,
            "slot": "2",
            "type": "t_mapping(t_address,t_mapping(t_uint256,t_uint256))"
          },
          {
            "astId": 543,
            "contract": "src/SundialForeignArbitrationProxyWithAppeals.sol:SundialForeignArbitrationProxyWithAppeals",
            "label": "feeRewards",
            "offset": 0,
            "slot": "3",
            "type": "t_uint256"
          },
          {
            "astId": 546,
            "contract": "src/SundialForeignArbitrationProxyWithAppeals.sol:SundialForeignArbitrationProxyWithAppeals",
            "label": "fundedAnswers",
            "offset": 0,
            "slot": "4",
            "type": "t_array(t_uint256)dyn_storage"
          }
        ],
        "numberOfBytes": "160"
      },
      "t_uint248": {
        "encoding": "inplace",
        "label": "uint248",
        "numberOfBytes": "31"
      },
      "t_uint256": {
        "encoding": "inplace",
        "label": "uint256",
        "numberOfBytes": "32"
      }
    }
  }
}