{
  "address": "0x28FA9DD09eFed57ac8881ED043dCa9dF7d1A4683",
  "abi": [
    {
      "inputs": [
        {
          "internalType": "address",
          "name": "_checkpointManager",
          "type": "address"
        },
        {
          "internalType": "address",
          "name": "_fxRoot",
          "type": "address"
        },
        {
          "internalType": "address",
          "name": "_homeProxy",
          "type": "address"
        },
        {
          "internalType": "contract IArbitrator",
          "name": "_arbitrator",
          "type": "address"
        },
        {
          "internalType": "bytes",
          "name": "_arbitratorExtraData",
          "type": "bytes"
        },
        {
          "internalType": "string",
          "name": "_metaEvidence",
          "type": "string"
        },
        {
          "internalType": "string",
          "name": "_termsOfService",
          "type": "string"
        }
      ],
      "stateMutability": "nonpayable",
      "type": "constructor"
    },
    {
      "anonymous": false,
      "inputs": [
        {
          "indexed": true,
          "internalType": "uint256",
          "name": "_projectID",
          "type": "uint256"
        }
      ],
      "name": "ArbitrationCanceled",
      "type": "event"
    },
    {
      "anonymous": false,
      "inputs": [
        {
          "indexed": true,
          "internalType": "uint256",
          "name": "_projectID",
          "type": "uint256"
        },
        {
          "indexed": true,
          "internalType": "uint256",
          "name": "_disputeID",
          "type": "uint256"
        }
      ],
      "name": "ArbitrationCreated",
      "type": "event"
    },
    {
      "anonymous": false,
      "inputs": [
        {
          "indexed": true,
          "internalType": "uint256",
          "name": "_projectID",
          "type": "uint256"
        }
      ],
      "name": "ArbitrationFailed",
      "type": "event"
    },
    {
      "anonymous": false,
      "inputs": [
        {
          "indexed": true,
          "internalType": "uint256",
          "name": "_projectID",
          "type": "uint256"
        },
        {
          "indexed": true,
          "internalType": "address",
          "name": "_requester",
          "type": "address"
        }
      ],
      "name": "ArbitrationRequested",
      "type": "event"
    },
    {
      "anonymous": false,
      "inputs": [
        {
          "indexed": true,
          "internalType": "contract IArbitrator",
          "name": "_arbitrator",
          "type": "address"
        },
        {
          "indexed": true,
          "internalType": "uint256",
          "name": "_disputeID",
          "type": "uint256"
        },
        {
          "indexed": false,
          "internalType": "uint256",
          "name": "_metaEvidenceID",
          "type": "uint256"
        },
        {
          "indexed": false,
          "internalType": "uint256",
          "name": "_evidenceGroupID",
          "type": "uint256"
        }
      ],
      "name": "Dispute",
      "type": "event"
    },
    {
      "anonymous": false,
      "inputs": [
        {
          "indexed": true,
          "internalType": "contract IArbitrator",
          "name": "_arbitrator",
          "type": "address"
        },
        {
          "indexed": true,
          "internalType": "uint256",
          "name": "_evidenceGroupID",
          "type": "uint256"
        },
        {
          "indexed": true,
          "internalType": "address",
          "name": "_party",
          "type": "address"
        },
        {
          "indexed": false,
          "internalType": "string",
          "name": "_evidence",
          "type": "string"
        }
      ],
      "name": "Evidence",
      "type": "event"
    },
    {
      "anonymous": false,
      "inputs": [
        {
          "indexed": true,
          "internalType": "uint256",
          "name": "_metaEvidenceID",
          "type": "uint256"
        },
        {
          "indexed": false,
          "internalType": "string",
          "name": "_evidence",
          "type": "string"
        }
      ],
      "name": "MetaEvidence",
      "type": "event"
    },
    {
      "anonymous": false,
      "inputs": [
        {
          "indexed": true,
          "internalType": "contract IArbitrator",
          "name": "_arbitrator",
          "type": "address"
        },
        {
          "indexed": true,
          "internalType": "uint256",
          "name": "_disputeID",
          "type": "uint256"
        },
        {
          "indexed": false,
          "internalType": "uint256",
          "name": "_ruling",
          "type": "uint256"
        }
      ],
      "name": "Ruling",
      "type": "event"
    },
    {
      "inputs": [],
      "name": "META_EVIDENCE_ID",
      "outputs": [
        {
          "internalType": "uint256",
          "name": "",
          "type": "uint256"
        }
      ],
      "stateMutability": "view",
      "type": "function"
    },
    {
      "inputs": [],
      "name": "NUMBER_OF_CHOICES_FOR_ARBITRATOR",
      "outputs": [
        {
          "internalType": "uint256",
          "name": "",
          "type": "uint256"
        }
      ],
      "stateMutability": "view",
      "type": "function"
    },
    {
      "inputs": [],
      "name": "SEND_MESSAGE_EVENT_SIG",
      "outputs": [
        {
          "internalType": "bytes32",
          "name": "",
          "type": "bytes32"
        }
      ],
      "stateMutability": "view",
      "type": "function"
    },
    {
      "inputs": [
        {
          "internalType": "uint256",
          "name": "",
          "type": "uint256"
        }
      ],
      "name": "arbitrationRequests",
      "outputs": [
        {
          "internalType": "enum SundialForeignArbitrationProxy.Status",
          "name": "status",
          "type": "uint8"
        },
        {
          "internalType": "uint248",
          "name": "deposit",
          "type": "uint248"
        },
        {
          "internalType": "address",
          "name": "requester",
          "type": "address"
        }
      ],
      "stateMutability": "view",
      "type": "function"
    },
    {
      "inputs": [],
      "name": "arbitrator",
      "outputs": [
        {
          "internalType": "contract IArbitrator",
          "name": "",
          "type": "address"
        }
      ],
      "stateMutability": "view",
      "type": "function"
    },
    {
      "inputs": [],
      "name": "arbitratorExtraData",
      "outputs": [
        {
          "internalType": "bytes",
          "name": "",
          "type": "bytes"
        }
      ],
      "stateMutability": "view",
      "type": "function"
    },
    {
      "inputs": [],
      "name": "checkpointManager",
      "outputs": [
        {
          "internalType": "contract ICheckpointManager",
          "name": "",
          "type": "address"
        }
      ],
      "stateMutability": "view",
      "type": "function"
    },
    {
      "inputs": [
        {
          "internalType": "uint256",
          "name": "_projectID",
          "type": "uint256"
        }
      ],
      "name": "createDisputeForProjectRequest",
      "outputs": [],
      "stateMutability": "payable",
      "type": "function"
    },
    {
      "inputs": [
        {
          "internalType": "uint256",
          "name": "",
          "type": "uint256"
        }
      ],
      "name": "disputeIDToDisputeDetails",
      "outputs": [
        {
          "internalType": "uint256",
          "name": "projectID",
          "type": "uint256"
        }
      ],
      "stateMutability": "view",
      "type": "function"
    },
    {
      "inputs": [],
      "name": "fxChildTunnel",
      "outputs": [
        {
          "internalType": "address",
          "name": "",
          "type": "address"
        }
      ],
      "stateMutability": "view",
      "type": "function"
    },
    {
      "inputs": [],
      "name": "fxRoot",
      "outputs": [
        {
          "internalType": "contract IFxStateSender",
          "name": "",
          "type": "address"
        }
      ],
      "stateMutability": "view",
      "type": "function"
    },
    {
      "inputs": [
        {
          "internalType": "uint256",
          "name": "",
          "type": "uint256"
        }
      ],
      "name": "getDisputeFee",
      "outputs": [
        {
          "internalType": "uint256",
          "name": "",
          "type": "uint256"
        }
      ],
      "stateMutability": "view",
      "type": "function"
    },
    {
      "inputs": [
        {
          "internalType": "uint256",
          "name": "_projectID",
          "type": "uint256"
        }
      ],
      "name": "handleFailedDisputeCreation",
      "outputs": [],
      "stateMutability": "nonpayable",
      "type": "function"
    },
    {
      "inputs": [
        {
          "internalType": "bytes32",
          "name": "",
          "type": "bytes32"
        }
      ],
      "name": "processedExits",
      "outputs": [
        {
          "internalType": "bool",
          "name": "",
          "type": "bool"
        }
      ],
      "stateMutability": "view",
      "type": "function"
    },
    {
      "inputs": [
        {
          "internalType": "uint256",
          "name": "",
          "type": "uint256"
        }
      ],
      "name": "projectIDToDisputeExists",
      "outputs": [
        {
          "internalType": "bool",
          "name": "",
          "type": "bool"
        }
      ],
      "stateMutability": "view",
      "type": "function"
    },
    {
      "inputs": [
        {
          "internalType": "uint256",
          "name": "_projectID",
          "type": "uint256"
        }
      ],
      "name": "receiveArbitrationAcknowledgement",
      "outputs": [],
      "stateMutability": "nonpayable",
      "type": "function"
    },
    {
      "inputs": [
        {
          "internalType": "uint256",
          "name": "_projectID",
          "type": "uint256"
        }
      ],
      "name": "receiveArbitrationCancelation",
      "outputs": [],
      "stateMutability": "nonpayable",
      "type": "function"
    },
    {
      "inputs": [
        {
          "internalType": "bytes",
          "name": "inputData",
          "type": "bytes"
        }
      ],
      "name": "receiveMessage",
      "outputs": [],
      "stateMutability": "nonpayable",
      "type": "function"
    },
    {
      "inputs": [
        {
          "internalType": "uint256",
          "name": "_disputeID",
          "type": "uint256"
        },
        {
          "internalType": "uint256",
          "name": "_ruling",
          "type": "uint256"
        }
      ],
      "name": "rule",
      "outputs": [],
      "stateMutability": "nonpayable",
      "type": "function"
    },
    {
      "inputs": [
        {
          "internalType": "uint256",
          "name": "_arbitrationID",
          "type": "uint256"
        },
        {
          "internalType": "string",
          "name": "_evidenceURI",
          "type": "string"
        }
      ],
      "name": "submitEvidence",
      "outputs": [],
      "stateMutability": "nonpayable",
      "type": "function"
    },
    {
      "inputs": [],
      "name": "termsOfService",
      "outputs": [
        {
          "internalType": "string",
          "name": "",
          "type": "string"
        }
      ],
      "stateMutability": "view",
      "type": "function"
    }
  ],
  "transactionHash": "0xa88b4c9f4232f96bdb3546cd44b371393b1b7e6b5e912d3b2732276575214c04",
  "args": [
    "0x2890bA17EfE978480615e330ecB65333b880928e",
    "0x3d1d3E34f7fB6D26245E6640E1c50710eFFf15bA",
    "0x2c851D061277527503EB444CE43FAc1DF4e2bbc9",
    "0xCF5F227De666AF96Cf671Cd5727247A427b28b7A",
    "0x00000000000000000000000000000000000000000000000000000000000000000000000000000000000000000000000000000000000000000000000000000000",
    "/ipfs/Qmc2cpRZgT5PmR4ZikDsVG54xejKF62qSBBnYf4R5bpiNH/realitio.json",
    "/ipfs/Qmf67KPWvFLSQEczsb8Kh9HtGUevNtSSVELqTS8yTe95GW/omen-rules.pdf"
  ],
  "solcInputHash": "127b2a11293c1ac47855702efa1893d5",
  "bytecode": "0x60a06040523480156200001157600080fd5b506040516200323b3803806200323b833981016040819052620000349162000293565b600180546001600160a01b03808a166001600160a01b03199283161790925560008054838a169083161790556002805483891692169190911790558416608052825162000089906004906020860190620000e8565b5080516200009f906005906020840190620000e8565b5060007f61606860eb6c87306811e2695215385101daab53bd6ab4e9f9049aead9363c7d83604051620000d3919062000375565b60405180910390a250505050505050620003e7565b828054620000f690620003aa565b90600052602060002090601f0160209004810192826200011a576000855562000165565b82601f106200013557805160ff191683800117855562000165565b8280016001018555821562000165579182015b828111156200016557825182559160200191906001019062000148565b506200017392915062000177565b5090565b5b8082111562000173576000815560010162000178565b6001600160a01b0381168114620001a457600080fd5b50565b8051620001b4816200018e565b919050565b634e487b7160e01b600052604160045260246000fd5b60005b83811015620001ec578181015183820152602001620001d2565b83811115620001fc576000848401525b50505050565b600082601f8301126200021457600080fd5b81516001600160401b0380821115620002315762000231620001b9565b604051601f8301601f19908116603f011681019082821181831017156200025c576200025c620001b9565b816040528381528660208588010111156200027657600080fd5b62000289846020830160208901620001cf565b9695505050505050565b600080600080600080600060e0888a031215620002af57600080fd5b8751620002bc816200018e565b6020890151909750620002cf816200018e565b9550620002df60408901620001a7565b9450620002ef60608901620001a7565b60808901519094506001600160401b03808211156200030d57600080fd5b6200031b8b838c0162000202565b945060a08a01519150808211156200033257600080fd5b620003408b838c0162000202565b935060c08a01519150808211156200035757600080fd5b50620003668a828b0162000202565b91505092959891949750929550565b602081526000825180602084015262000396816040850160208701620001cf565b601f01601f19169190910160400192915050565b600181811c90821680620003bf57607f821691505b60208210811415620003e157634e487b7160e01b600052602260045260246000fd5b50919050565b608051612e006200043b6000396000818161030f0152818161051f01528181610680015281816108b50152818161096a01528181610af501528181610b9e01528181610d0d0152610e910152612e006000f3fe60806040526004361061012a5760003560e01c8063649d4d26116100ab578063a6a7f0eb1161006f578063a6a7f0eb146103ac578063bde80ca7146103cc578063c0857ba0146103f9578063d5b4c69414610419578063de9b771f14610439578063f953cec71461045957600080fd5b8063649d4d26146102dd5780636cc6cde1146102fd5780638599a7391461034957806395125f701461035c578063972c49281461038c57600080fd5b806348a5b2b3116100f257806348a5b2b3146101e857806354dba90f146102085780636059319e1461021d578063607f2d421461023d578063631eabd51461027d57600080fd5b80630c7ac7b61461012f5780630e387de61461015a5780630fa8c7ce1461019c5780631e117f49146101b1578063311a6c56146101c6575b600080fd5b34801561013b57600080fd5b50610144610479565b60405161015191906126ca565b60405180910390f35b34801561016657600080fd5b5061018e7f8c5261668696ce22758910d05bab8f186d6eb247ceac2af2e82c7dc17669b03681565b604051908152602001610151565b3480156101a857600080fd5b5061018e600281565b3480156101bd57600080fd5b50610144610507565b3480156101d257600080fd5b506101e66101e13660046126dd565b610514565b005b3480156101f457600080fd5b506101e66102033660046126ff565b6106ea565b34801561021457600080fd5b5061018e600081565b34801561022957600080fd5b506101e66102383660046126ff565b610809565b34801561024957600080fd5b5061026d6102583660046126ff565b60036020526000908152604090205460ff1681565b6040519015158152602001610151565b34801561028957600080fd5b506102ce6102983660046126ff565b6006602052600090815260409020805460019091015460ff82169161010090046001600160f81b0316906001600160a01b031683565b6040516101519392919061272e565b3480156102e957600080fd5b5061018e6102f83660046126ff565b610b84565b34801561030957600080fd5b506103317f000000000000000000000000000000000000000000000000000000000000000081565b6040516001600160a01b039091168152602001610151565b6101e66103573660046126ff565b610c29565b34801561036857600080fd5b5061026d6103773660046126ff565b60086020526000908152604090205460ff1681565b34801561039857600080fd5b50600254610331906001600160a01b031681565b3480156103b857600080fd5b506101e66103c7366004612776565b610e84565b3480156103d857600080fd5b5061018e6103e73660046126ff565b60076020526000908152604090205481565b34801561040557600080fd5b50600154610331906001600160a01b031681565b34801561042557600080fd5b506101e66104343660046126ff565b610ef7565b34801561044557600080fd5b50600054610331906001600160a01b031681565b34801561046557600080fd5b506101e6610474366004612861565b611010565b60048054610486906128e1565b80601f01602080910402602001604051908101604052809291908181526020018280546104b2906128e1565b80156104ff5780601f106104d4576101008083540402835291602001916104ff565b820191906000526020600020905b8154815290600101906020018083116104e257829003601f168201915b505050505081565b60058054610486906128e1565b336001600160a01b037f000000000000000000000000000000000000000000000000000000000000000016146105915760405162461bcd60e51b815260206004820152601760248201527f4f6e6c792061726269747261746f7220616c6c6f77656400000000000000000060448201526064015b60405180910390fd5b60028111156105d35760405162461bcd60e51b815260206004820152600e60248201526d496e76616c69642072756c696e6760901b6044820152606401610588565b60008281526007602090815260408083208054808552600690935292206002815460ff16600481111561060857610608612718565b146106255760405162461bcd60e51b815260040161058890612916565b805460ff1916600317815560408051602481018490526044808201879052825180830390910181526064909101909152602081018051636146a07b60e01b6001600160e01b0390911681179091529061067d8161102a565b867f00000000000000000000000000000000000000000000000000000000000000006001600160a01b03167f394027a5fa6e098a1191094d1719d6929b9abc535fcc0c8f448d6a4e75622276886040516106d991815260200190565b60405180910390a350505050505050565b3330146107395760405162461bcd60e51b815260206004820152601d60248201527f43616e206f6e6c792062652063616c6c656420766961206272696467650000006044820152606401610588565b60008181526006602052604090206001815460ff16600481111561075f5761075f612718565b1461077c5760405162461bcd60e51b815260040161058890612916565b8054600083815260066020526040808220828155600190810180546001600160a01b031916905584015490516101009093046001600160f81b0316926001600160a01b03909116916108fc841502918491818181858888f150506040518693507f841d361c2e9b919234bea88e56ddd3de1314046ccf176d49c24a3c3df788e9a0925060009150a2505050565b3330146108585760405162461bcd60e51b815260206004820152601d60248201527f43616e206f6e6c792062652063616c6c656420766961206272696467650000006044820152606401610588565b60008181526006602052604090206001815460ff16600481111561087e5761087e612718565b1461089b5760405162461bcd60e51b815260040161058890612916565b60405163f7434ea960e01b81526000906001600160a01b037f0000000000000000000000000000000000000000000000000000000000000000169063f7434ea9906108ea9060049081016129ed565b60206040518083038186803b15801561090257600080fd5b505afa158015610916573d6000803e3d6000fd5b505050506040513d601f19601f8201168201806040525081019061093a9190612a00565b825490915061010090046001600160f81b03168111610b495760405163c13517e160e01b81526001600160a01b037f0000000000000000000000000000000000000000000000000000000000000000169063c13517e19083906109a4906002906004908101612a19565b6020604051808303818588803b1580156109bd57600080fd5b505af1935050505080156109ee575060408051601f3d908101601f191682019092526109eb91810190612a00565b60015b610a2d57815460ff1916600417825560405183907f794bcf8358ec9066a41460c1fa506e1679707b1b1123e1ddc7f2fd601ff3c70490600090a2505050565b600081815260076020908152604080832087815587845260089092528220805460ff191660011790558454909190610a759085906001600160f81b0361010090910416612a48565b6002865590508015610aad5760018501546040516001600160a01b039091169082156108fc029083906000818181858888f150505050505b604051839087907fd77ab978e3c3b4dbb04a8e8d23b2964df32870f5527cd1ffd8b11610fffade4790600090a360408051600081526020810188905284916001600160a01b037f000000000000000000000000000000000000000000000000000000000000000016917f74baab670a4015ab2f1b467c5252a96141a2573f2908e58a92081e80d3cfde3d910160405180910390a3505050505050565b815460ff1916600417825560405183907f794bcf8358ec9066a41460c1fa506e1679707b1b1123e1ddc7f2fd601ff3c70490600090a2505050565b60405163f7434ea960e01b81526000906001600160a01b037f0000000000000000000000000000000000000000000000000000000000000000169063f7434ea990610bd39060049081016129ed565b60206040518083038186803b158015610beb57600080fd5b505afa158015610bff573d6000803e3d6000fd5b505050506040513d601f19601f82011682018060405250810190610c239190612a00565b92915050565b60008181526008602052604090205460ff1615610c815760405162461bcd60e51b81526020600482015260166024820152754469737075746520616c72656164792065786973747360501b6044820152606401610588565b600081815260066020526040812090815460ff166004811115610ca657610ca6612718565b14610cf35760405162461bcd60e51b815260206004820152601d60248201527f4172626974726174696f6e20616c7265616479207265717565737465640000006044820152606401610588565b60405163f7434ea960e01b81526000906001600160a01b037f0000000000000000000000000000000000000000000000000000000000000000169063f7434ea990610d429060049081016129ed565b60206040518083038186803b158015610d5a57600080fd5b505afa158015610d6e573d6000803e3d6000fd5b505050506040513d601f19601f82011682018060405250810190610d929190612a00565b905080341015610ddc5760405162461bcd60e51b81526020600482015260156024820152744465706f7369742076616c756520746f6f206c6f7760581b6044820152606401610588565b6001610100346001600160f81b0316028117835582018054336001600160a01b0319909116811790915560408051602481018690526044808201939093528151808203909301835260640190526020810180516001600160e01b0316634f92e44d60e11b90811790915290610e508161102a565b604051339086907fbeb7c7ca9632eceb7faaaf69b98051a5edd2a3930327b96316c86cb5dc8cb0a690600090a35050505050565b336001600160a01b0316837f00000000000000000000000000000000000000000000000000000000000000006001600160a01b03167fdccf2f8b2cc26eafcd61905cba744cff4b81d14740725f6376390dc6298a6a3c8585604051610eea929190612a5f565b60405180910390a4505050565b60008181526006602052604090206004815460ff166004811115610f1d57610f1d612718565b14610f3a5760405162461bcd60e51b815260040161058890612916565b8054600083815260066020526040808220828155600190810180546001600160a01b031916905584015490516101009093046001600160f81b0316926001600160a01b03909116916108fc841502918491818181858888f150506040805160248082018990528251808303909101815260449091019091526020810180516001600160e01b03166302a67b3d60e51b90811790915293509150610fde90508161102a565b60405185907f841d361c2e9b919234bea88e56ddd3de1314046ccf176d49c24a3c3df788e9a090600090a25050505050565b600061101b82611095565b90506110268161137b565b5050565b60005460025460405163b472047760e01b81526001600160a01b039283169263b472047792611060929116908590600401612a8e565b600060405180830381600087803b15801561107a57600080fd5b505af115801561108e573d6000803e3d6000fd5b5050505050565b606060006110a283611428565b905060006110af82611487565b905060006110bc836114b0565b90506000816110ca846114d9565b6110d386611697565b6040516020016110e593929190612ab2565b60408051601f1981840301815291815281516020928301206000818152600390935291205490915060ff16156111695760405162461bcd60e51b8152602060048201526024808201527f4678526f6f7454756e6e656c3a20455849545f414c52454144595f50524f434560448201526314d4d15160e21b6064820152608401610588565b6000818152600360205260408120805460ff1916600117905561118b856116b3565b90506000611198826117fd565b90506111a38161188d565b6002546001600160a01b0390811691161461120e5760405162461bcd60e51b815260206004820152602560248201527f4678526f6f7454756e6e656c3a20494e56414c49445f46585f4348494c445f54604482015264155393915360da1b6064820152608401610588565b6000611219876118b6565b9050611239611229846020015190565b876112338a6118d2565b846118ee565b6112915760405162461bcd60e51b815260206004820152602360248201527f4678526f6f7454756e6e656c3a20494e56414c49445f524543454950545f505260448201526227a7a360e91b6064820152608401610588565b6112bf8561129e89611ba5565b6112a78a611bc1565b846112b18c611bdd565b6112ba8d611bf9565b611c15565b5060006112cb83611d4a565b90507f8c5261668696ce22758910d05bab8f186d6eb247ceac2af2e82c7dc17669b0366113016112fc836000611d86565b611dbe565b1461134e5760405162461bcd60e51b815260206004820152601f60248201527f4678526f6f7454756e6e656c3a20494e56414c49445f5349474e4154555245006044820152606401610588565b600061135984611e39565b80602001905181019061136c9190612adf565b9b9a5050505050505050505050565b6000306001600160a01b0316826040516113959190612b56565b6000604051808303816000865af19150503d80600081146113d2576040519150601f19603f3d011682016040523d82523d6000602084013e6113d7565b606091505b50509050806110265760405162461bcd60e51b815260206004820152601760248201527f4661696c656420746f2063616c6c20636f6e74726163740000000000000000006044820152606401610588565b604080516020810190915260608152600061147261146d8460408051808201825260008082526020918201528151808301909252825182529182019181019190915290565b611e55565b60408051602081019091529081529392505050565b6060610c2382600001516008815181106114a3576114a3612b72565b6020026020010151611f6b565b6000610c2382600001516002815181106114cc576114cc612b72565b6020026020010151611dbe565b60408051602081019091526000815281516060919015610c2357600080611501600086612008565b60f81c9050600181148061151857508060ff166003145b156115c05760018551600261152d9190612b88565b6115379190612a48565b67ffffffffffffffff81111561154f5761154f6127f2565b6040519080825280601f01601f191660200182016040528015611579576020820181803683370190505b5092506000611589600187612008565b9050808460008151811061159f5761159f612b72565b60200101906001600160f81b031916908160001a9053506001925050611624565b6002855160026115d09190612b88565b6115da9190612a48565b67ffffffffffffffff8111156115f2576115f26127f2565b6040519080825280601f01601f19166020018201604052801561161c576020820181803683370190505b509250600091505b60ff82165b835181101561168e5761165361164260ff851683612a48565b61164d906002612ba7565b87612008565b84828151811061166557611665612b72565b60200101906001600160f81b031916908160001a9053508061168681612bbf565b915050611629565b50505092915050565b6000610c2382600001516009815181106114cc576114cc612b72565b6116d760405180606001604052806060815260200160608152602001600081525090565b6116f182600001516006815181106114a3576114a3612b72565b60208281018290526040805180820182526000808252908301528051808201909152825181529181019082015261172781612089565b1561173c5761173581611e55565b82526117e9565b6020820151805160009061175290600190612a48565b67ffffffffffffffff81111561176a5761176a6127f2565b6040519080825280601f01601f191660200182016040528015611794576020820181803683370190505b5090506000808360210191508260200190506117b2828285516120c2565b6040805180820182526000808252602091820152815180830190925284518252808501908201526117e290611e55565b8652505050505b6117f283611697565b604083015250919050565b60408051608081018252600091810182815260608083019390935281526020810191909152600061184b836000015160038151811061183e5761183e612b72565b6020026020010151611e55565b83604001518151811061186057611860612b72565b60200260200101519050604051806040016040528082815260200161188483611e55565b90529392505050565b6000610c2382602001516000815181106118a9576118a9612b72565b602002602001015161213d565b6000610c2382600001516005815181106114cc576114cc612b72565b6060610c2382600001516007815181106114a3576114a3612b72565b6000806119228460408051808201825260008082526020918201528151808301909252825182529182019181019190915290565b9050600061192f82611e55565b9050606080856000806119418b6114d9565b905080516000141561195d576000975050505050505050611b9d565b60005b8651811015611b9457815183111561198357600098505050505050505050611b9d565b6119a587828151811061199857611998612b72565b6020026020010151612157565b9550858051906020012084146119c657600098505050505050505050611b9d565b6119db87828151811061183e5761183e612b72565b9450845160111415611ab0578151831415611a3d578c80519060200120611a0e866010815181106114a3576114a3612b72565b805190602001201415611a2c57600198505050505050505050611b9d565b600098505050505050505050611b9d565b6000828481518110611a5157611a51612b72565b016020015160f81c90506010811115611a765760009950505050505050505050611b9d565b611a9b868260ff1681518110611a8e57611a8e612b72565b60200260200101516121d7565b9450611aa8600185612ba7565b935050611b82565b845160021415611a2c576000611adc611ad5876000815181106114a3576114a3612b72565b8486612205565b8351909150611aeb8286612ba7565b1415611b40578d80519060200120611b0f876001815181106114a3576114a3612b72565b805190602001201415611b2e5760019950505050505050505050611b9d565b60009950505050505050505050611b9d565b80611b575760009950505050505050505050611b9d565b611b618185612ba7565b9350611b7986600181518110611a8e57611a8e612b72565b9450611b829050565b80611b8c81612bbf565b915050611960565b50505050505050505b949350505050565b6000610c2382600001516003815181106114cc576114cc612b72565b6000610c2382600001516004815181106114cc576114cc612b72565b6000610c2382600001516000815181106114cc576114cc612b72565b6060610c2382600001516001815181106114a3576114a3612b72565b6001546040516320a9cea560e11b8152600481018490526000918291829182916001600160a01b03909116906341539d4a9060240160a06040518083038186803b158015611c6257600080fd5b505afa158015611c76573d6000803e3d6000fd5b505050506040513d601f19601f82011682018060405250810190611c9a9190612bda565b5093505092509250611cf1828b611cb19190612a48565b6040805160208082018f90528183018e9052606082018d905260808083018d90528351808403909101815260a0909201909252805191012090858861230e565b611d3d5760405162461bcd60e51b815260206004820152601c60248201527f4678526f6f7454756e6e656c3a20494e56414c49445f484541444552000000006044820152606401610588565b9998505050505050505050565b6040805160208101909152606081526040518060200160405280611d7e846020015160018151811061183e5761183e612b72565b905292915050565b60408051808201909152600080825260208201528251805183908110611dae57611dae612b72565b6020026020010151905092915050565b805160009015801590611dd357508151602110155b611ddc57600080fd5b6000611deb8360200151612473565b90506000818460000151611dff9190612a48565b9050600080838660200151611e149190612ba7565b9050805191506020831015611e3057826020036101000a820491505b50949350505050565b6060610c2382602001516002815181106114a3576114a3612b72565b6060611e6082612089565b611e6957600080fd5b6000611e74836124fb565b905060008167ffffffffffffffff811115611e9157611e916127f2565b604051908082528060200260200182016040528015611ed657816020015b6040805180820190915260008082526020820152815260200190600190039081611eaf5790505b5090506000611ee88560200151612473565b8560200151611ef79190612ba7565b90506000805b84811015611f6057611f0e8361257e565b9150604051806040016040528083815260200184815250848281518110611f3757611f37612b72565b6020908102919091010152611f4c8284612ba7565b925080611f5881612bbf565b915050611efd565b509195945050505050565b8051606090611f7957600080fd5b6000611f888360200151612473565b90506000818460000151611f9c9190612a48565b905060008167ffffffffffffffff811115611fb957611fb96127f2565b6040519080825280601f01601f191660200182016040528015611fe3576020820181803683370190505b5090506000816020019050611e308487602001516120019190612ba7565b8285612622565b6000612015600284612c4b565b1561204f57601082612028600286612c5f565b8151811061203857612038612b72565b016020015161204a919060f81c612c73565b61207f565b60108261205d600286612c5f565b8151811061206d5761206d612b72565b016020015161207f919060f81c612c95565b60f81b9392505050565b805160009061209a57506000919050565b6020820151805160001a9060c08210156120b8575060009392505050565b5060019392505050565b806120cc57505050565b6020811061210457825182526120e3602084612ba7565b92506120f0602083612ba7565b91506120fd602082612a48565b90506120cc565b60006001612113836020612a48565b61211f90610100612d9b565b6121299190612a48565b935183518516941916939093179091525050565b805160009060151461214e57600080fd5b610c2382611dbe565b60606000826000015167ffffffffffffffff811115612178576121786127f2565b6040519080825280601f01601f1916602001820160405280156121a2576020820181803683370190505b5090508051600014156121b55792915050565b60008160200190506121d08460200151828660000151612622565b5092915050565b80516000906021146121e857600080fd5b600080836020015160016121fc9190612ba7565b51949350505050565b60008080612212866114d9565b90506000815167ffffffffffffffff811115612230576122306127f2565b6040519080825280601f01601f19166020018201604052801561225a576020820181803683370190505b509050845b825161226b9087612ba7565b8110156122de57600087828151811061228657612286612b72565b01602001516001600160f81b031916905080836122a38985612a48565b815181106122b3576122b3612b72565b60200101906001600160f81b031916908160001a9053505080806122d690612bbf565b91505061225f565b508080519060200120828051906020012014156122fe5781519250612303565b600092505b509095945050505050565b60006020825161231e9190612c4b565b156123625760405162461bcd60e51b8152602060048201526014602482015273092dcecc2d8d2c840e0e4dedecc40d8cadccee8d60631b6044820152606401610588565b6000602083516123729190612c5f565b905061237f816002612d9b565b85106123c55760405162461bcd60e51b81526020600482015260156024820152744c65616620696e64657820697320746f6f2062696760581b6044820152606401610588565b60008660205b85518111612465578581015192506123e4600289612c4b565b612419576040805160208101849052908101849052606001604051602081830303815290604052805190602001209150612446565b60408051602081018590529081018390526060016040516020818303038152906040528051906020012091505b612451600289612c5f565b975061245e602082612ba7565b90506123cb565b509094149695505050505050565b8051600090811a608081101561248c5750600092915050565b60b88110806124a7575060c081108015906124a7575060f881105b156124b55750600192915050565b60c08110156124e9576124ca600160b8612da7565b6124d79060ff1682612a48565b6124e2906001612ba7565b9392505050565b6124ca600160f8612da7565b50919050565b805160009061250c57506000919050565b60008061251c8460200151612473565b846020015161252b9190612ba7565b90506000846000015185602001516125439190612ba7565b90505b80821015612575576125578261257e565b6125619083612ba7565b91508261256d81612bbf565b935050612546565b50909392505050565b80516000908190811a608081101561259957600191506121d0565b60b88110156125bf576125ad608082612a48565b6125b8906001612ba7565b91506121d0565b60c08110156125ec5760b78103600185019450806020036101000a855104600182018101935050506121d0565b60f8811015612600576125ad60c082612a48565b60019390930151602084900360f7016101000a900490920160f5190192915050565b8061262c57505050565b602081106126645782518252612643602084612ba7565b9250612650602083612ba7565b915061265d602082612a48565b905061262c565b8061210457505050565b60005b83811015612689578181015183820152602001612671565b83811115612698576000848401525b50505050565b600081518084526126b681602086016020860161266e565b601f01601f19169290920160200192915050565b6020815260006124e2602083018461269e565b600080604083850312156126f057600080fd5b50508035926020909101359150565b60006020828403121561271157600080fd5b5035919050565b634e487b7160e01b600052602160045260246000fd5b606081016005851061275057634e487b7160e01b600052602160045260246000fd5b9381526001600160f81b039290921660208301526001600160a01b031660409091015290565b60008060006040848603121561278b57600080fd5b83359250602084013567ffffffffffffffff808211156127aa57600080fd5b818601915086601f8301126127be57600080fd5b8135818111156127cd57600080fd5b8760208285010111156127df57600080fd5b6020830194508093505050509250925092565b634e487b7160e01b600052604160045260246000fd5b604051601f8201601f1916810167ffffffffffffffff81118282101715612831576128316127f2565b604052919050565b600067ffffffffffffffff821115612853576128536127f2565b50601f01601f191660200190565b60006020828403121561287357600080fd5b813567ffffffffffffffff81111561288a57600080fd5b8201601f8101841361289b57600080fd5b80356128ae6128a982612839565b612808565b8181528560208385010111156128c357600080fd5b81602084016020830137600091810160200191909152949350505050565b600181811c908216806128f557607f821691505b602082108114156124f557634e487b7160e01b600052602260045260246000fd5b6020808252601a908201527f496e76616c6964206172626974726174696f6e20737461747573000000000000604082015260600190565b8054600090600181811c908083168061296757607f831692505b602080841082141561298957634e487b7160e01b600052602260045260246000fd5b838852602088018280156129a457600181146129b5576129e0565b60ff198716825282820197506129e0565b60008981526020902060005b878110156129da578154848201529086019084016129c1565b83019850505b5050505050505092915050565b6020815260006124e2602083018461294d565b600060208284031215612a1257600080fd5b5051919050565b828152604060208201526000611b9d604083018461294d565b634e487b7160e01b600052601160045260246000fd5b600082821015612a5a57612a5a612a32565b500390565b60208152816020820152818360408301376000818301604090810191909152601f909201601f19160101919050565b6001600160a01b0383168152604060208201819052600090611b9d9083018461269e565b83815260008351612aca81602085016020880161266e565b60209201918201929092526040019392505050565b600060208284031215612af157600080fd5b815167ffffffffffffffff811115612b0857600080fd5b8201601f81018413612b1957600080fd5b8051612b276128a982612839565b818152856020838501011115612b3c57600080fd5b612b4d82602083016020860161266e565b95945050505050565b60008251612b6881846020870161266e565b9190910192915050565b634e487b7160e01b600052603260045260246000fd5b6000816000190483118215151615612ba257612ba2612a32565b500290565b60008219821115612bba57612bba612a32565b500190565b6000600019821415612bd357612bd3612a32565b5060010190565b600080600080600060a08688031215612bf257600080fd5b855160208701516040880151606089015160808a0151939850919650945092506001600160a01b0381168114612c2757600080fd5b809150509295509295909350565b634e487b7160e01b600052601260045260246000fd5b600082612c5a57612c5a612c35565b500690565b600082612c6e57612c6e612c35565b500490565b600060ff831680612c8657612c86612c35565b8060ff84160691505092915050565b600060ff831680612ca857612ca8612c35565b8060ff84160491505092915050565b600181815b80851115612cf2578160001904821115612cd857612cd8612a32565b80851615612ce557918102915b93841c9390800290612cbc565b509250929050565b600082612d0957506001610c23565b81612d1657506000610c23565b8160018114612d2c5760028114612d3657612d52565b6001915050610c23565b60ff841115612d4757612d47612a32565b50506001821b610c23565b5060208310610133831016604e8410600b8410161715612d75575081810a610c23565b612d7f8383612cb7565b8060001904821115612d9357612d93612a32565b029392505050565b60006124e28383612cfa565b600060ff821660ff841680821015612dc157612dc1612a32565b9003939250505056fea2646970667358221220ccd65bee3a0d1dd9a09554c69a9692dcf06f3089656eb459ad190d13703b636464736f6c63430008090033",
  "devdoc": {
    "details": "This contract is meant to be deployed to the Ethereum chains where Kleros is deployed.",
    "kind": "dev",
    "methods": {
      "constructor": {
        "params": {
          "_arbitrator": "Arbitrator contract address.",
          "_arbitratorExtraData": "The extra data used to raise a dispute in the arbitrator.",
          "_checkpointManager": "For Polygon FX-portal bridge",
          "_fxRoot": "Address of the FxRoot contract of the Polygon bridge",
          "_homeProxy": "The address of the proxy.",
          "_metaEvidence": "The URI of the meta evidence file.",
          "_termsOfService": "The path for the Terms of Service for Kleros as an arbitrator for Realitio."
        }
      },
      "createDisputeForProjectRequest(uint256)": {
        "params": {
          "_projectID": "The ID of the project."
        }
      },
      "getDisputeFee(uint256)": {
        "returns": {
          "_0": "The fee to create a dispute."
        }
      },
      "handleFailedDisputeCreation(uint256)": {
        "params": {
          "_projectID": "The ID of the question."
        }
      },
      "receiveArbitrationAcknowledgement(uint256)": {
        "params": {
          "_projectID": "The ID of the project."
        }
      },
      "receiveArbitrationCancelation(uint256)": {
        "params": {
          "_projectID": "The ID of the question."
        }
      },
      "receiveMessage(bytes)": {
        "details": "This function verifies if the transaction actually happened on child chain",
        "params": {
          "inputData": "RLP encoded data of the reference tx containing following list of fields  0 - headerNumber - Checkpoint header block number containing the reference tx  1 - blockProof - Proof that the block header (in the child chain) is a leaf in the submitted merkle root  2 - blockNumber - Block number containing the reference tx on child chain  3 - blockTime - Reference tx block time  4 - txRoot - Transactions root of block  5 - receiptRoot - Receipts root of block  6 - receipt - Receipt of the reference transaction  7 - receiptProof - Merkle proof of the reference receipt  8 - branchMask - 32 bits denoting the path of receipt in merkle tree  9 - receiptLogIndex - Log Index to read from the receipt"
        }
      },
      "rule(uint256,uint256)": {
        "params": {
          "_disputeID": "The ID of the dispute in the ERC792 arbitrator.",
          "_ruling": "The ruling given by the arbitrator."
        }
      },
      "submitEvidence(uint256,string)": {
        "params": {
          "_arbitrationID": "The ID of the arbitration related to the question.",
          "_evidenceURI": "Link to evidence."
        }
      }
    },
    "stateVariables": {
      "META_EVIDENCE_ID": {
        "details": "The ID of the MetaEvidence for disputes."
      },
      "NUMBER_OF_CHOICES_FOR_ARBITRATOR": {
        "details": "The number of choices for the arbitrator. Kleros is currently able to provide ruling values of up to 2^256 - 2."
      },
      "arbitrationRequests": {
        "details": "Tracks arbitration requests for project ID."
      },
      "arbitrator": {
        "details": "The address of the arbitrator. TRUSTED."
      },
      "arbitratorExtraData": {
        "details": "The extra data used to raise a dispute in the arbitrator."
      },
      "disputeIDToDisputeDetails": {
        "details": "Associates dispute ID to project ID and the requester."
      },
      "projectIDToDisputeExists": {
        "details": "Whether a dispute has already been created for the given project ID or not."
      },
      "termsOfService": {
        "details": "The path for the Terms of Service for Kleros as an arbitrator for Realitio."
      }
    },
    "title": "Arbitration proxy for Realitio on Ethereum side (A.K.A. the Foreign Chain).",
    "version": 1
  },
  "userdoc": {
    "events": {
      "ArbitrationCanceled(uint256)": {
        "notice": "Should be emitted when the arbitration is canceled by the Home Chain."
      },
      "ArbitrationCreated(uint256,uint256)": {
        "notice": "Should be emitted when the dispute is created."
      },
      "ArbitrationFailed(uint256)": {
        "notice": "Should be emitted when the dispute could not be created."
      },
      "ArbitrationRequested(uint256,address)": {
        "notice": "Should be emitted when the arbitration is requested."
      }
    },
    "kind": "user",
    "methods": {
      "constructor": {
        "notice": "Creates an arbitration proxy on the foreign chain."
      },
      "createDisputeForProjectRequest(uint256)": {
        "notice": "Requests arbitration for the given projectID."
      },
      "getDisputeFee(uint256)": {
        "notice": "Gets the fee to create a dispute."
      },
      "handleFailedDisputeCreation(uint256)": {
        "notice": "Cancels the arbitration in case the dispute could not be created."
      },
      "receiveArbitrationAcknowledgement(uint256)": {
        "notice": "Receives the acknowledgement of the arbitration request for the given project. TRUSTED."
      },
      "receiveArbitrationCancelation(uint256)": {
        "notice": "Receives the cancelation of the arbitration request for the given question. TRUSTED."
      },
      "receiveMessage(bytes)": {
        "notice": "receive message from  L2 to L1, validated by proof"
      },
      "rule(uint256,uint256)": {
        "notice": "Rules a specified dispute."
      },
      "submitEvidence(uint256,string)": {
        "notice": "Allows to submit evidence for a particular question."
      }
    },
    "version": 1
  },
  "storageLayout": {
    "storage": [
      {
        "astId": 4353,
        "contract": "src/SundialForeignArbitrationProxy.sol:SundialForeignArbitrationProxy",
        "label": "fxRoot",
        "offset": 0,
        "slot": "0",
        "type": "t_contract(IFxStateSender)4303"
      },
      {
        "astId": 4356,
        "contract": "src/SundialForeignArbitrationProxy.sol:SundialForeignArbitrationProxy",
        "label": "checkpointManager",
        "offset": 0,
        "slot": "1",
        "type": "t_contract(ICheckpointManager)4321"
      },
      {
        "astId": 4358,
        "contract": "src/SundialForeignArbitrationProxy.sol:SundialForeignArbitrationProxy",
        "label": "fxChildTunnel",
        "offset": 0,
        "slot": "2",
        "type": "t_address"
      },
      {
        "astId": 4362,
        "contract": "src/SundialForeignArbitrationProxy.sol:SundialForeignArbitrationProxy",
        "label": "processedExits",
        "offset": 0,
        "slot": "3",
        "type": "t_mapping(t_bytes32,t_bool)"
      },
      {
        "astId": 3489,
        "contract": "src/SundialForeignArbitrationProxy.sol:SundialForeignArbitrationProxy",
        "label": "arbitratorExtraData",
        "offset": 0,
        "slot": "4",
        "type": "t_bytes_storage"
      },
      {
        "astId": 3492,
        "contract": "src/SundialForeignArbitrationProxy.sol:SundialForeignArbitrationProxy",
        "label": "termsOfService",
        "offset": 0,
        "slot": "5",
        "type": "t_string_storage"
      },
      {
        "astId": 3523,
        "contract": "src/SundialForeignArbitrationProxy.sol:SundialForeignArbitrationProxy",
        "label": "arbitrationRequests",
        "offset": 0,
        "slot": "6",
        "type": "t_mapping(t_uint256,t_struct(ArbitrationRequest)3514_storage)"
      },
      {
        "astId": 3529,
        "contract": "src/SundialForeignArbitrationProxy.sol:SundialForeignArbitrationProxy",
        "label": "disputeIDToDisputeDetails",
        "offset": 0,
        "slot": "7",
        "type": "t_mapping(t_uint256,t_struct(DisputeDetails)3517_storage)"
      },
      {
        "astId": 3534,
        "contract": "src/SundialForeignArbitrationProxy.sol:SundialForeignArbitrationProxy",
        "label": "projectIDToDisputeExists",
        "offset": 0,
        "slot": "8",
        "type": "t_mapping(t_uint256,t_bool)"
      }
    ],
    "types": {
      "t_address": {
        "encoding": "inplace",
        "label": "address",
        "numberOfBytes": "20"
      },
      "t_bool": {
        "encoding": "inplace",
        "label": "bool",
        "numberOfBytes": "1"
      },
      "t_bytes32": {
        "encoding": "inplace",
        "label": "bytes32",
        "numberOfBytes": "32"
      },
      "t_bytes_storage": {
        "encoding": "bytes",
        "label": "bytes",
        "numberOfBytes": "32"
      },
      "t_contract(ICheckpointManager)4321": {
        "encoding": "inplace",
        "label": "contract ICheckpointManager",
        "numberOfBytes": "20"
      },
      "t_contract(IFxStateSender)4303": {
        "encoding": "inplace",
        "label": "contract IFxStateSender",
        "numberOfBytes": "20"
      },
      "t_enum(Status)3506": {
        "encoding": "inplace",
        "label": "enum SundialForeignArbitrationProxy.Status",
        "numberOfBytes": "1"
      },
      "t_mapping(t_bytes32,t_bool)": {
        "encoding": "mapping",
        "key": "t_bytes32",
        "label": "mapping(bytes32 => bool)",
        "numberOfBytes": "32",
        "value": "t_bool"
      },
      "t_mapping(t_uint256,t_bool)": {
        "encoding": "mapping",
        "key": "t_uint256",
        "label": "mapping(uint256 => bool)",
        "numberOfBytes": "32",
        "value": "t_bool"
      },
      "t_mapping(t_uint256,t_struct(ArbitrationRequest)3514_storage)": {
        "encoding": "mapping",
        "key": "t_uint256",
        "label": "mapping(uint256 => struct SundialForeignArbitrationProxy.ArbitrationRequest)",
        "numberOfBytes": "32",
        "value": "t_struct(ArbitrationRequest)3514_storage"
      },
      "t_mapping(t_uint256,t_struct(DisputeDetails)3517_storage)": {
        "encoding": "mapping",
        "key": "t_uint256",
        "label": "mapping(uint256 => struct SundialForeignArbitrationProxy.DisputeDetails)",
        "numberOfBytes": "32",
        "value": "t_struct(DisputeDetails)3517_storage"
      },
      "t_string_storage": {
        "encoding": "bytes",
        "label": "string",
        "numberOfBytes": "32"
      },
      "t_struct(ArbitrationRequest)3514_storage": {
        "encoding": "inplace",
        "label": "struct SundialForeignArbitrationProxy.ArbitrationRequest",
        "members": [
          {
            "astId": 3509,
            "contract": "src/SundialForeignArbitrationProxy.sol:SundialForeignArbitrationProxy",
            "label": "status",
            "offset": 0,
            "slot": "0",
            "type": "t_enum(Status)3506"
          },
          {
            "astId": 3511,
            "contract": "src/SundialForeignArbitrationProxy.sol:SundialForeignArbitrationProxy",
            "label": "deposit",
            "offset": 1,
            "slot": "0",
            "type": "t_uint248"
          },
          {
            "astId": 3513,
            "contract": "src/SundialForeignArbitrationProxy.sol:SundialForeignArbitrationProxy",
            "label": "requester",
            "offset": 0,
            "slot": "1",
            "type": "t_address"
          }
        ],
        "numberOfBytes": "64"
      },
      "t_struct(DisputeDetails)3517_storage": {
        "encoding": "inplace",
        "label": "struct SundialForeignArbitrationProxy.DisputeDetails",
        "members": [
          {
            "astId": 3516,
            "contract": "src/SundialForeignArbitrationProxy.sol:SundialForeignArbitrationProxy",
            "label": "projectID",
            "offset": 0,
            "slot": "0",
            "type": "t_uint256"
          }
        ],
        "numberOfBytes": "32"
      },
      "t_uint248": {
        "encoding": "inplace",
        "label": "uint248",
        "numberOfBytes": "31"
      },
      "t_uint256": {
        "encoding": "inplace",
        "label": "uint256",
        "numberOfBytes": "32"
      }
    }
  }
}