{
  "address": "0x5D2DDdbc108BAcE96fb6999BdbB8962313976452",
  "abi": [
    {
      "inputs": [
        {
          "internalType": "address",
          "name": "_fxChild",
          "type": "address"
        },
        {
          "internalType": "address",
          "name": "_foreignProxy",
          "type": "address"
        }
      ],
      "stateMutability": "nonpayable",
      "type": "constructor"
    },
    {
      "anonymous": false,
      "inputs": [
        {
          "indexed": true,
          "internalType": "uint256",
          "name": "projectId",
          "type": "uint256"
        },
        {
          "indexed": false,
          "internalType": "address",
          "name": "project",
          "type": "address"
        },
        {
          "indexed": true,
          "internalType": "address",
          "name": "invest",
          "type": "address"
        },
        {
          "indexed": false,
          "internalType": "uint256",
          "name": "reclaimedAt",
          "type": "uint256"
        }
      ],
      "name": "Arbitration",
      "type": "event"
    },
    {
      "anonymous": false,
      "inputs": [
        {
          "indexed": true,
          "internalType": "uint256",
          "name": "_projectID",
          "type": "uint256"
        }
      ],
      "name": "ArbitrationFailed",
      "type": "event"
    },
    {
      "anonymous": false,
      "inputs": [
        {
          "indexed": true,
          "internalType": "uint256",
          "name": "_projectID",
          "type": "uint256"
        },
        {
          "indexed": false,
          "internalType": "uint256",
          "name": "_answer",
          "type": "uint256"
        }
      ],
      "name": "ArbitratorAnswered",
      "type": "event"
    },
    {
      "anonymous": false,
      "inputs": [
        {
          "indexed": true,
          "internalType": "uint256",
          "name": "projectId",
          "type": "uint256"
        },
        {
          "indexed": true,
          "internalType": "uint256",
          "name": "streamId",
          "type": "uint256"
        },
        {
          "indexed": false,
          "internalType": "address",
          "name": "sender",
          "type": "address"
        },
        {
          "indexed": false,
          "internalType": "uint256",
          "name": "investSellBalance",
          "type": "uint256"
        },
        {
          "indexed": false,
          "internalType": "uint256",
          "name": "investFundBalance",
          "type": "uint256"
        },
        {
          "indexed": false,
          "internalType": "uint256",
          "name": "refunds",
          "type": "uint256"
        },
        {
          "indexed": false,
          "internalType": "uint256",
          "name": "cancelTime",
          "type": "uint256"
        }
      ],
      "name": "CancelProject",
      "type": "event"
    },
    {
      "anonymous": false,
      "inputs": [
        {
          "indexed": true,
          "internalType": "uint256",
          "name": "projectId",
          "type": "uint256"
        },
        {
          "indexed": false,
          "internalType": "uint256",
          "name": "projectSellBalance",
          "type": "uint256"
        }
      ],
      "name": "CancelProjectForProject",
      "type": "event"
    },
    {
      "anonymous": false,
      "inputs": [
        {
          "indexed": true,
          "internalType": "uint256",
          "name": "projectId",
          "type": "uint256"
        },
        {
          "indexed": true,
          "internalType": "uint256",
          "name": "streamId",
          "type": "uint256"
        },
        {
          "indexed": true,
          "internalType": "address",
          "name": "sender",
          "type": "address"
        },
        {
          "indexed": false,
          "internalType": "uint256",
          "name": "investSellBalance",
          "type": "uint256"
        },
        {
          "indexed": false,
          "internalType": "uint256",
          "name": "investFundBalance",
          "type": "uint256"
        },
        {
          "indexed": false,
          "internalType": "uint256",
          "name": "cancelTime",
          "type": "uint256"
        }
      ],
      "name": "CancelStream",
      "type": "event"
    },
    {
      "anonymous": false,
      "inputs": [
        {
          "indexed": true,
          "internalType": "uint256",
          "name": "projectId",
          "type": "uint256"
        },
        {
          "indexed": true,
          "internalType": "address",
          "name": "sender",
          "type": "address"
        },
        {
          "indexed": false,
          "internalType": "string",
          "name": "hash",
          "type": "string"
        }
      ],
      "name": "CreateProject",
      "type": "event"
    },
    {
      "anonymous": false,
      "inputs": [
        {
          "indexed": true,
          "internalType": "uint256",
          "name": "streamId",
          "type": "uint256"
        },
        {
          "indexed": true,
          "internalType": "address",
          "name": "sender",
          "type": "address"
        }
      ],
      "name": "CreateStream",
      "type": "event"
    },
    {
      "anonymous": false,
      "inputs": [
        {
          "indexed": false,
          "internalType": "bytes",
          "name": "message",
          "type": "bytes"
        }
      ],
      "name": "MessageSent",
      "type": "event"
    },
    {
      "anonymous": false,
      "inputs": [
        {
          "indexed": true,
          "internalType": "address",
          "name": "previousOwner",
          "type": "address"
        },
        {
          "indexed": true,
          "internalType": "address",
          "name": "newOwner",
          "type": "address"
        }
      ],
      "name": "OwnershipTransferred",
      "type": "event"
    },
    {
      "anonymous": false,
      "inputs": [
        {
          "indexed": true,
          "internalType": "uint256",
          "name": "_projectID",
          "type": "uint256"
        }
      ],
      "name": "RequestAcknowledged",
      "type": "event"
    },
    {
      "anonymous": false,
      "inputs": [
        {
          "indexed": true,
          "internalType": "uint256",
          "name": "_projectID",
          "type": "uint256"
        }
      ],
      "name": "RequestCanceled",
      "type": "event"
    },
    {
      "anonymous": false,
      "inputs": [
        {
          "indexed": true,
          "internalType": "uint256",
          "name": "streamId",
          "type": "uint256"
        },
        {
          "indexed": true,
          "internalType": "uint256",
          "name": "projectId",
          "type": "uint256"
        },
        {
          "indexed": true,
          "internalType": "address",
          "name": "sender",
          "type": "address"
        },
        {
          "indexed": false,
          "internalType": "uint256",
          "name": "withdrawTime",
          "type": "uint256"
        },
        {
          "indexed": false,
          "internalType": "uint256",
          "name": "amount",
          "type": "uint256"
        }
      ],
      "name": "WithdrawFromInvest",
      "type": "event"
    },
    {
      "anonymous": false,
      "inputs": [
        {
          "indexed": true,
          "internalType": "uint256",
          "name": "projectId",
          "type": "uint256"
        },
        {
          "indexed": true,
          "internalType": "address",
          "name": "sender",
          "type": "address"
        },
        {
          "indexed": false,
          "internalType": "uint256",
          "name": "withdrawTime",
          "type": "uint256"
        },
        {
          "indexed": false,
          "internalType": "uint256",
          "name": "amount",
          "type": "uint256"
        }
      ],
      "name": "WithdrawFromProject",
      "type": "event"
    },
    {
      "inputs": [
        {
          "internalType": "uint256",
          "name": "",
          "type": "uint256"
        }
      ],
      "name": "arbitrations",
      "outputs": [
        {
          "internalType": "address payable",
          "name": "invest",
          "type": "address"
        },
        {
          "internalType": "address payable",
          "name": "project",
          "type": "address"
        },
        {
          "internalType": "enum Types.Status",
          "name": "status",
          "type": "uint8"
        },
        {
          "internalType": "uint256",
          "name": "reclaimedAt",
          "type": "uint256"
        }
      ],
      "stateMutability": "view",
      "type": "function"
    },
    {
      "inputs": [
        {
          "internalType": "uint256",
          "name": "",
          "type": "uint256"
        }
      ],
      "name": "calProjectBalances",
      "outputs": [
        {
          "internalType": "uint256",
          "name": "sumOfRatePerSecondOfInvestFund",
          "type": "uint256"
        },
        {
          "internalType": "uint256",
          "name": "sumOfCalBalance",
          "type": "uint256"
        },
        {
          "internalType": "uint256",
          "name": "sumOfCancelInvestor",
          "type": "uint256"
        }
      ],
      "stateMutability": "view",
      "type": "function"
    },
    {
      "inputs": [
        {
          "internalType": "uint256",
          "name": "streamId",
          "type": "uint256"
        }
      ],
      "name": "cancelInvest",
      "outputs": [
        {
          "internalType": "bool",
          "name": "",
          "type": "bool"
        }
      ],
      "stateMutability": "nonpayable",
      "type": "function"
    },
    {
      "inputs": [
        {
          "internalType": "uint256",
          "name": "",
          "type": "uint256"
        }
      ],
      "name": "cancelProjectForInvests",
      "outputs": [
        {
          "internalType": "uint256",
          "name": "exitProjectSellBalance",
          "type": "uint256"
        },
        {
          "internalType": "uint256",
          "name": "exitProjectFundBalance",
          "type": "uint256"
        },
        {
          "internalType": "uint256",
          "name": "exitStopTime",
          "type": "uint256"
        },
        {
          "internalType": "uint256",
          "name": "sumForExistInvest",
          "type": "uint256"
        },
        {
          "internalType": "uint256",
          "name": "proposalForCancelStatus",
          "type": "uint256"
        },
        {
          "internalType": "uint256",
          "name": "preReclaimedAt",
          "type": "uint256"
        }
      ],
      "stateMutability": "view",
      "type": "function"
    },
    {
      "inputs": [
        {
          "internalType": "uint256",
          "name": "projectId",
          "type": "uint256"
        }
      ],
      "name": "createArbitrationForInvestor",
      "outputs": [],
      "stateMutability": "nonpayable",
      "type": "function"
    },
    {
      "inputs": [
        {
          "internalType": "address",
          "name": "projectSellTokenAddress",
          "type": "address"
        },
        {
          "internalType": "uint256",
          "name": "projectSellDeposit",
          "type": "uint256"
        },
        {
          "internalType": "address",
          "name": "projectFundTokenAddress",
          "type": "address"
        },
        {
          "internalType": "uint256",
          "name": "projectFundDeposit",
          "type": "uint256"
        },
        {
          "internalType": "uint256",
          "name": "startTime",
          "type": "uint256"
        },
        {
          "internalType": "uint256",
          "name": "stopTime",
          "type": "uint256"
        },
        {
          "internalType": "uint256",
          "name": "lockPeriod",
          "type": "uint256"
        },
        {
          "internalType": "string",
          "name": "hash",
          "type": "string"
        }
      ],
      "name": "createProject",
      "outputs": [
        {
          "internalType": "uint256",
          "name": "",
          "type": "uint256"
        }
      ],
      "stateMutability": "nonpayable",
      "type": "function"
    },
    {
      "inputs": [
        {
          "internalType": "uint256",
          "name": "projectId",
          "type": "uint256"
        },
        {
          "internalType": "uint256",
          "name": "investSellDeposit",
          "type": "uint256"
        }
      ],
      "name": "createStream",
      "outputs": [
        {
          "internalType": "uint256",
          "name": "",
          "type": "uint256"
        }
      ],
      "stateMutability": "nonpayable",
      "type": "function"
    },
    {
      "inputs": [
        {
          "internalType": "uint256",
          "name": "streamId",
          "type": "uint256"
        }
      ],
      "name": "deltaOf",
      "outputs": [
        {
          "internalType": "uint256",
          "name": "delta",
          "type": "uint256"
        }
      ],
      "stateMutability": "view",
      "type": "function"
    },
    {
      "inputs": [
        {
          "internalType": "uint256",
          "name": "",
          "type": "uint256"
        }
      ],
      "name": "disputeIDtoArbitrationID",
      "outputs": [
        {
          "internalType": "uint256",
          "name": "",
          "type": "uint256"
        }
      ],
      "stateMutability": "view",
      "type": "function"
    },
    {
      "inputs": [],
      "name": "fxChild",
      "outputs": [
        {
          "internalType": "address",
          "name": "",
          "type": "address"
        }
      ],
      "stateMutability": "view",
      "type": "function"
    },
    {
      "inputs": [],
      "name": "fxRootTunnel",
      "outputs": [
        {
          "internalType": "address",
          "name": "",
          "type": "address"
        }
      ],
      "stateMutability": "view",
      "type": "function"
    },
    {
      "inputs": [
        {
          "internalType": "uint256",
          "name": "projectId",
          "type": "uint256"
        }
      ],
      "name": "getArbitration",
      "outputs": [
        {
          "internalType": "enum Types.Status",
          "name": "status",
          "type": "uint8"
        },
        {
          "internalType": "uint256",
          "name": "disputeID",
          "type": "uint256"
        },
        {
          "internalType": "uint256",
          "name": "reclaimedAt",
          "type": "uint256"
        }
      ],
      "stateMutability": "view",
      "type": "function"
    },
    {
      "inputs": [
        {
          "internalType": "uint256",
          "name": "projectId",
          "type": "uint256"
        }
      ],
      "name": "getCalProjectBalance",
      "outputs": [
        {
          "internalType": "uint256",
          "name": "sumOfRatePerSecondOfInvestFund",
          "type": "uint256"
        },
        {
          "internalType": "uint256",
          "name": "sumOfCalBalance",
          "type": "uint256"
        },
        {
          "internalType": "uint256",
          "name": "sumOfCancelInvestor",
          "type": "uint256"
        }
      ],
      "stateMutability": "view",
      "type": "function"
    },
    {
      "inputs": [
        {
          "internalType": "uint256",
          "name": "projectId",
          "type": "uint256"
        }
      ],
      "name": "getCancelProjectForInvest",
      "outputs": [
        {
          "internalType": "uint256",
          "name": "exitProjectSellBalance",
          "type": "uint256"
        },
        {
          "internalType": "uint256",
          "name": "exitProjectFundBalance",
          "type": "uint256"
        },
        {
          "internalType": "uint256",
          "name": "exitStopTime",
          "type": "uint256"
        },
        {
          "internalType": "uint256",
          "name": "sumForExistInvest",
          "type": "uint256"
        },
        {
          "internalType": "uint256",
          "name": "proposalForCancelStatus",
          "type": "uint256"
        }
      ],
      "stateMutability": "view",
      "type": "function"
    },
    {
      "inputs": [
        {
          "internalType": "uint256",
          "name": "projectId",
          "type": "uint256"
        }
      ],
      "name": "getProject",
      "outputs": [
        {
          "internalType": "uint256",
          "name": "projectSellDeposit",
          "type": "uint256"
        },
        {
          "internalType": "uint256",
          "name": "projectFundDeposit",
          "type": "uint256"
        },
        {
          "internalType": "uint256",
          "name": "projectActualSellDeposit",
          "type": "uint256"
        },
        {
          "internalType": "uint256",
          "name": "projectActualFundDeposit",
          "type": "uint256"
        },
        {
          "internalType": "uint256",
          "name": "projectWithdrawalAmount",
          "type": "uint256"
        },
        {
          "internalType": "address payable",
          "name": "sender",
          "type": "address"
        },
        {
          "internalType": "uint256",
          "name": "startTime",
          "type": "uint256"
        },
        {
          "internalType": "uint256",
          "name": "stopTime",
          "type": "uint256"
        },
        {
          "internalType": "address",
          "name": "projectSellTokenAddress",
          "type": "address"
        },
        {
          "internalType": "address",
          "name": "projectFundTokenAddress",
          "type": "address"
        },
        {
          "internalType": "uint256",
          "name": "lockPeriod",
          "type": "uint256"
        },
        {
          "internalType": "string",
          "name": "hash",
          "type": "string"
        }
      ],
      "stateMutability": "view",
      "type": "function"
    },
    {
      "inputs": [
        {
          "internalType": "uint256",
          "name": "streamId",
          "type": "uint256"
        }
      ],
      "name": "getStream",
      "outputs": [
        {
          "internalType": "uint256",
          "name": "projectId",
          "type": "uint256"
        },
        {
          "internalType": "uint256",
          "name": "investSellDeposit",
          "type": "uint256"
        },
        {
          "internalType": "uint256",
          "name": "investFundDeposit",
          "type": "uint256"
        },
        {
          "internalType": "address",
          "name": "sender",
          "type": "address"
        },
        {
          "internalType": "uint256",
          "name": "startTime",
          "type": "uint256"
        },
        {
          "internalType": "uint256",
          "name": "stopTime",
          "type": "uint256"
        },
        {
          "internalType": "uint256",
          "name": "investWithdrawalAmount",
          "type": "uint256"
        },
        {
          "internalType": "uint256",
          "name": "ratePerSecondOfInvestSell",
          "type": "uint256"
        },
        {
          "internalType": "uint256",
          "name": "ratePerSecondOfInvestFund",
          "type": "uint256"
        }
      ],
      "stateMutability": "view",
      "type": "function"
    },
    {
      "inputs": [
        {
          "internalType": "uint256",
          "name": "streamId",
          "type": "uint256"
        }
      ],
      "name": "investBalanceOf",
      "outputs": [
        {
          "internalType": "uint256",
          "name": "investSellBalance",
          "type": "uint256"
        },
        {
          "internalType": "uint256",
          "name": "investFundBalance",
          "type": "uint256"
        }
      ],
      "stateMutability": "view",
      "type": "function"
    },
    {
      "inputs": [],
      "name": "nextEvidenceGroup",
      "outputs": [
        {
          "internalType": "uint256",
          "name": "",
          "type": "uint256"
        }
      ],
      "stateMutability": "view",
      "type": "function"
    },
    {
      "inputs": [],
      "name": "nextProjectId",
      "outputs": [
        {
          "internalType": "uint256",
          "name": "",
          "type": "uint256"
        }
      ],
      "stateMutability": "view",
      "type": "function"
    },
    {
      "inputs": [],
      "name": "nextStreamId",
      "outputs": [
        {
          "internalType": "uint256",
          "name": "",
          "type": "uint256"
        }
      ],
      "stateMutability": "view",
      "type": "function"
    },
    {
      "inputs": [],
      "name": "owner",
      "outputs": [
        {
          "internalType": "address",
          "name": "",
          "type": "address"
        }
      ],
      "stateMutability": "view",
      "type": "function"
    },
    {
      "inputs": [
        {
          "internalType": "uint256",
          "name": "stateId",
          "type": "uint256"
        },
        {
          "internalType": "address",
          "name": "rootMessageSender",
          "type": "address"
        },
        {
          "internalType": "bytes",
          "name": "data",
          "type": "bytes"
        }
      ],
      "name": "processMessageFromRoot",
      "outputs": [],
      "stateMutability": "nonpayable",
      "type": "function"
    },
    {
      "inputs": [
        {
          "internalType": "uint256",
          "name": "projectId",
          "type": "uint256"
        }
      ],
      "name": "projectBalanceOf",
      "outputs": [
        {
          "internalType": "uint256",
          "name": "projectSellBalance",
          "type": "uint256"
        },
        {
          "internalType": "uint256",
          "name": "projectFundBalance",
          "type": "uint256"
        }
      ],
      "stateMutability": "view",
      "type": "function"
    },
    {
      "inputs": [
        {
          "internalType": "uint256",
          "name": "projectId",
          "type": "uint256"
        }
      ],
      "name": "projectRefunds",
      "outputs": [
        {
          "internalType": "bool",
          "name": "",
          "type": "bool"
        }
      ],
      "stateMutability": "nonpayable",
      "type": "function"
    },
    {
      "inputs": [
        {
          "internalType": "uint256",
          "name": "",
          "type": "uint256"
        }
      ],
      "name": "projects",
      "outputs": [
        {
          "internalType": "uint256",
          "name": "projectSellDeposit",
          "type": "uint256"
        },
        {
          "internalType": "uint256",
          "name": "projectFundDeposit",
          "type": "uint256"
        },
        {
          "internalType": "uint256",
          "name": "projectActualSellDeposit",
          "type": "uint256"
        },
        {
          "internalType": "uint256",
          "name": "projectActualFundDeposit",
          "type": "uint256"
        },
        {
          "internalType": "uint256",
          "name": "projectWithdrawalAmount",
          "type": "uint256"
        },
        {
          "internalType": "address payable",
          "name": "sender",
          "type": "address"
        },
        {
          "internalType": "uint256",
          "name": "startTime",
          "type": "uint256"
        },
        {
          "internalType": "uint256",
          "name": "stopTime",
          "type": "uint256"
        },
        {
          "internalType": "address",
          "name": "projectSellTokenAddress",
          "type": "address"
        },
        {
          "internalType": "address",
          "name": "projectFundTokenAddress",
          "type": "address"
        },
        {
          "internalType": "uint256",
          "name": "lockPeriod",
          "type": "uint256"
        },
        {
          "internalType": "string",
          "name": "hash",
          "type": "string"
        },
        {
          "internalType": "uint8",
          "name": "refunded",
          "type": "uint8"
        }
      ],
      "stateMutability": "view",
      "type": "function"
    },
    {
      "inputs": [
        {
          "internalType": "uint256",
          "name": "_projectId",
          "type": "uint256"
        },
        {
          "internalType": "uint256",
          "name": "_answer",
          "type": "uint256"
        }
      ],
      "name": "receiveArbitrationAnswer",
      "outputs": [],
      "stateMutability": "nonpayable",
      "type": "function"
    },
    {
      "inputs": [
        {
          "internalType": "uint256",
          "name": "_projectId",
          "type": "uint256"
        }
      ],
      "name": "receiveArbitrationFailure",
      "outputs": [],
      "stateMutability": "nonpayable",
      "type": "function"
    },
    {
      "inputs": [
        {
          "internalType": "uint256",
          "name": "_projectId",
          "type": "uint256"
        }
      ],
      "name": "receiveCreateDisputeRequest",
      "outputs": [],
      "stateMutability": "nonpayable",
      "type": "function"
    },
    {
      "inputs": [
        {
          "internalType": "uint256",
          "name": "projectId",
          "type": "uint256"
        }
      ],
      "name": "reclaimFunds",
      "outputs": [],
      "stateMutability": "nonpayable",
      "type": "function"
    },
    {
      "inputs": [],
      "name": "renounceOwnership",
      "outputs": [],
      "stateMutability": "nonpayable",
      "type": "function"
    },
    {
      "inputs": [
        {
          "internalType": "uint256",
          "name": "",
          "type": "uint256"
        }
      ],
      "name": "streams",
      "outputs": [
        {
          "internalType": "uint256",
          "name": "projectId",
          "type": "uint256"
        },
        {
          "internalType": "uint256",
          "name": "investSellDeposit",
          "type": "uint256"
        },
        {
          "internalType": "uint256",
          "name": "investFundDeposit",
          "type": "uint256"
        },
        {
          "internalType": "uint256",
          "name": "ratePerSecondOfInvestSell",
          "type": "uint256"
        },
        {
          "internalType": "uint256",
          "name": "ratePerSecondOfInvestFund",
          "type": "uint256"
        },
        {
          "internalType": "uint256",
          "name": "startTime",
          "type": "uint256"
        },
        {
          "internalType": "uint256",
          "name": "stopTime",
          "type": "uint256"
        },
        {
          "internalType": "address",
          "name": "sender",
          "type": "address"
        },
        {
          "internalType": "uint256",
          "name": "investWithdrawalAmount",
          "type": "uint256"
        }
      ],
      "stateMutability": "view",
      "type": "function"
    },
    {
      "inputs": [
        {
          "internalType": "address",
          "name": "newOwner",
          "type": "address"
        }
      ],
      "name": "transferOwnership",
      "outputs": [],
      "stateMutability": "nonpayable",
      "type": "function"
    },
    {
      "inputs": [
        {
          "internalType": "uint256",
          "name": "streamId",
          "type": "uint256"
        },
        {
          "internalType": "uint256",
          "name": "amount",
          "type": "uint256"
        }
      ],
      "name": "withdrawFromInvest",
      "outputs": [
        {
          "internalType": "bool",
          "name": "",
          "type": "bool"
        }
      ],
      "stateMutability": "nonpayable",
      "type": "function"
    },
    {
      "inputs": [
        {
          "internalType": "uint256",
          "name": "projectId",
          "type": "uint256"
        },
        {
          "internalType": "uint256",
          "name": "amount",
          "type": "uint256"
        }
      ],
      "name": "withdrawFromProject",
      "outputs": [
        {
          "internalType": "bool",
          "name": "",
          "type": "bool"
        }
      ],
      "stateMutability": "nonpayable",
      "type": "function"
    }
  ],
  "transactionHash": "0xceff8120972a2c52920a6627c1ffcff064f2679029bee73c5db0a7007c801a70",
  "args": [
    "0xCf73231F28B7331BBe3124B907840A94851f9f11",
    "0xD1BCcbcb8F1380499BE9F1E230090A61C74AfAe9"
  ],
  "solcInputHash": "3bed3230969fa3501441fe51223250b9",
  "bytecode": "0x60806040523480156200001157600080fd5b5060405162004116380380620041168339810160408190526200003491620000f9565b818162000041336200008c565b6001808055600280546001600160a01b039485166001600160a01b03199182161790915560038054939094169216919091179091556004819055600581905560065550620001319050565b600080546001600160a01b038381166001600160a01b0319831681178455604051919092169283917f8be0079c531659141344cd1fd0a4f28419497f9722a3daafe3b4186f6b6457e09190a35050565b80516001600160a01b0381168114620000f457600080fd5b919050565b600080604083850312156200010d57600080fd5b6200011883620000dc565b91506200012860208401620000dc565b90509250929050565b613fd580620001416000396000f3fe608060405234801561001057600080fd5b50600436106102065760003560e01c80639a7c4b711161011a578063dcfa8412116100ad578063f2f937111161007c578063f2f937111461064e578063f2fde38b14610670578063f9f161a814610683578063fdc810fe14610696578063fde71e27146106c457600080fd5b8063dcfa8412146105f4578063df4b7fc214610607578063e935b7b11461061a578063f0f3f2c81461062357600080fd5b8063a63d6ec3116100e9578063a63d6ec314610557578063a82ccd4d14610577578063b412ef091461058a578063c26c44531461059d57600080fd5b80639a7c4b71146105155780639c5fb089146105285780639f25c89a14610531578063a0cc41cb1461054457600080fd5b806364d60d911161019d578063894e9a0d1161016c578063894e9a0d1461046c5780638ae2760a146104cb5780638d40bd03146104de5780638da5cb5b146104f157806397066f721461050257600080fd5b806364d60d9114610378578063715018a61461042957806375eeaf58146104315780637f1e9cb01461045957600080fd5b80633dee2f37116101d95780633dee2f37146102ea578063450d11f01461032557806354cf67a0146103505780636146a07b1461036557600080fd5b8063107046bd1461020b57806310e3c97b146102405780631e99d569146102b05780632bbee9eb146102c7575b600080fd5b61021e610219366004613981565b6106f3565b6040516102379d9c9b9a999897969594939291906139f2565b60405180910390f35b61028361024e366004613981565b600a60205260009081526040902080546001820154600283015460038401546004850154600590950154939492939192909186565b604080519687526020870195909552938501929092526060840152608083015260a082015260c001610237565b6102b960045481565b604051908152602001610237565b6102da6102d5366004613a79565b6107f7565b6040519015158152602001610237565b6102fd6102f8366004613981565b610b59565b604080519586526020860194909452928401919091526060830152608082015260a001610237565b600254610338906001600160a01b031681565b6040516001600160a01b039091168152602001610237565b61036361035e366004613981565b610bcf565b005b610363610373366004613a79565b610caf565b6103dc610386366004613981565b60086020819052600091825260409091208054600182015460028301546003840154600485015460058601546006870154600788015497909801549597949693959294919390926001600160a01b039091169089565b60408051998a5260208a0198909852968801959095526060870193909352608086019190915260a085015260c08401526001600160a01b031660e083015261010082015261012001610237565b610363610da2565b61044461043f366004613981565b610e08565b60408051928352602083019190915201610237565b600354610338906001600160a01b031681565b61047f61047a366004613981565b610fb7565b60408051998a5260208a0198909852968801959095526001600160a01b039093166060870152608086019190915260a085015260c084015260e083015261010082015261012001610237565b6102da6104d9366004613981565b61105d565b6102b96104ec366004613a79565b611321565b6000546001600160a01b0316610338565b6102b9610510366004613b00565b61187a565b610363610523366004613b98565b611d72565b6102b960065481565b61036361053f366004613981565b611e1d565b610363610552366004613981565b611f9d565b6102b9610565366004613981565b600c6020526000908152604090205481565b6102b9610585366004613981565b612243565b6102da610598366004613981565b61230f565b6105e46105ab366004613981565b600b602052600090815260409020805460018201546002909201546001600160a01b039182169291821691600160a01b900460ff169084565b6040516102379493929190613c2a565b610444610602366004613981565b612414565b6102da610615366004613a79565b612556565b6102b960055481565b610636610631366004613981565b61285e565b6040516102379c9b9a99989796959493929190613c5e565b61066161065c366004613981565b612aab565b60405161023793929190613cd9565b61036361067e366004613cf8565b612b15565b610363610691366004613981565b612be0565b6106a96106a4366004613981565b612dcb565b60408051938452602084019290925290820152606001610237565b6106a96106d2366004613981565b60076020526000908152604090208054600182015460029092015490919083565b600960208190526000918252604090912080546001820154600283015460038401546004850154600586015460068701546007880154600889015499890154600a8a0154600c8b0180549a9c999b989a979996986001600160a01b039687169895979496948516959390941693919261076b90613d13565b80601f016020809104026020016040519081016040528092919081815260200182805461079790613d13565b80156107e45780601f106107b9576101008083540402835291602001916107e4565b820191906000526020600020905b8154815290600101906020018083116107c757829003601f168201915b505050600d909301549192505060ff168d565b6000600260015414156108255760405162461bcd60e51b815260040161081c90613d4e565b60405180910390fd5b600260015560008381526009602052604090206005015483906001600160a01b03166108635760405162461bcd60e51b815260040161081c90613d85565b60008481526009602052604090206005015484906001600160a01b031633146108c35760405162461bcd60e51b81526020600482015260126024820152712727aa2fa82927a522a1aa2fa9a2a72222a960711b604482015260640161081c565b600084116109045760405162461bcd60e51b815260206004820152600e60248201526d414d4f554e545f49535f5a45524f60901b604482015260640161081c565b604051630ebdd5eb60e31b81526004810186905260009030906375eeaf5890602401604080518083038186803b15801561093d57600080fd5b505afa158015610951573d6000803e3d6000fd5b505050506040513d601f19601f820116820180604052508101906109759190613daf565b915050848110156109c15760405162461bcd60e51b8152602060048201526016602482015275109053105390d157d4d3505313115497d05353d5539560521b604482015260640161081c565b6000868152600b602090815260408083206009909252909120600282015415610a2c5760405162461bcd60e51b815260206004820152601760248201527f50524f4a4543545f4841535f4152424954524154494f4e000000000000000000604482015260640161081c565b6004810154610a3b9088612e2b565b6000898152600960208190526040918290206004908101939093558301546005840154915163a9059cbb60e01b81526001600160a01b0392831693810193909352602483018a9052169063a9059cbb90604401602060405180830381600087803b158015610aa857600080fd5b505af1158015610abc573d6000803e3d6000fd5b505050506040513d601f19601f82011682018060405250810190610ae09190613dd3565b610afc5760405162461bcd60e51b815260040161081c90613df5565b600581015460408051428152602081018a90526001600160a01b03909216918a917fbe6be2ff1a504b38ec8235cb9cc87795defa1897948fe39ce5f806aedd55d306910160405180910390a3505060018080559695505050505050565b600081815260096020526040812060050154819081908190819086906001600160a01b0316610b9a5760405162461bcd60e51b815260040161081c90613d85565b50505060009384525050600a602052506040902080546001820154600283015460038401546004909401549294919390929091565b333014610bee5760405162461bcd60e51b815260040161081c90613e2c565b6000818152600b6020526040902060026001820154600160a01b900460ff166003811115610c1e57610c1e613bf2565b14610c6b5760405162461bcd60e51b815260206004820152601a60248201527f496e76616c6964206172626974726174696f6e20737461747573000000000000604482015260640161081c565b60018101805460ff60a01b1916600160a01b17905560405182907f794bcf8358ec9066a41460c1fa506e1679707b1b1123e1ddc7f2fd601ff3c70490600090a25050565b333014610cce5760405162461bcd60e51b815260040161081c90613e2c565b6000828152600b6020526040902060026001820154600160a01b900460ff166003811115610cfe57610cfe613bf2565b14610d445760405162461bcd60e51b8152602060048201526016602482015275496e76616c696420726571756573742073746174757360501b604482015260640161081c565b60018101805460ff60a01b1916600360a01b179055610d638383612e3e565b827f713fe6077d5e47c7d960247241ae00928ae885f317d79ad2bb0451745dc6712883604051610d9591815260200190565b60405180910390a2505050565b6000546001600160a01b03163314610dfc5760405162461bcd60e51b815260206004820181905260248201527f4f776e61626c653a2063616c6c6572206973206e6f7420746865206f776e6572604482015260640161081c565b610e066000612fa2565b565b600081815260096020526040812060050154819083906001600160a01b0316610e435760405162461bcd60e51b815260040161081c90613d85565b6000848152600960209081526040808320600a835281842060079093529220600482015460011415610e7c578154955060009450610fae565b82600601544211610e97578260020154955060009450610fae565b8260070154421015610f8957600283015415610f7c576000610ec6846006015442612ff290919063ffffffff16565b8254909150600090610ed9908390612ffe565b9050610ef2836001015482612ff290919063ffffffff16565b9050610f0b836002015482612e2b90919063ffffffff16565b6002860154909150610f1d9082612ff2565b6003860154909850610f2f9089612ffe565b9650610f4885600201548861300a90919063ffffffff16565b6003860154909750610f5a9088612ff2565b9650610f73856004015488612ff290919063ffffffff16565b96505050610fae565b6000955060009450610fae565b6000955082600301549450610fab836004015486612ff290919063ffffffff16565b94505b50505050915091565b600081815260086020526040812060070154819081908190819081908190819081908a906001600160a01b03166110005760405162461bcd60e51b815260040161081c90613e63565b505050600097885250506008602081905260409096208054600182015460028301546007840154600585015460068601549b8601546003870154600490970154959d949c939b506001600160a01b03909216995097509095509350565b6000600260015414156110825760405162461bcd60e51b815260040161081c90613d4e565b600260015560008281526009602052604090206005015482906001600160a01b03166110c05760405162461bcd60e51b815260040161081c90613d85565b60008381526009602052604090206005015483906001600160a01b031633146111205760405162461bcd60e51b81526020600482015260126024820152712727aa2fa82927a522a1aa2fa9a2a72222a960711b604482015260640161081c565b6000848152600960209081526040808320600a92839052922090820154600783015461114b91612e2b565b42101561119a5760405162461bcd60e51b815260206004820152601760248201527f4641494c5f52454143485f554e4c4f434b504552494f44000000000000000000604482015260640161081c565b600d82015460ff16156111e05760405162461bcd60e51b815260206004820152600e60248201526d1053149150511657d4915195539160921b604482015260640161081c565b600282015482546000916111f49190612ff2565b8254909150600090611207908390612e2b565b6000898152600960205260409020600d01805460ff19166001179055905080156112d3576008840154600585015460405163a9059cbb60e01b81526001600160a01b0391821660048201526024810184905291169063a9059cbb90604401602060405180830381600087803b15801561127f57600080fd5b505af1158015611293573d6000803e3d6000fd5b505050506040513d601f19601f820116820180604052508101906112b79190613dd3565b6112d35760405162461bcd60e51b815260040161081c90613df5565b877f9501aa812dcdd1b0e917d6e0f6fa6a0b5987575ef6237b9a65abf039d25a9bf08260405161130591815260200190565b60405180910390a260019650505050505b505060018055919050565b6000828152600960209081526040808320600a8352818420825160c081018452858152938401859052918301849052606083018490526080830184905260a083018490529160058301546001600160a01b03163314156113b95760405162461bcd60e51b815260206004820152601360248201527214d15391115497d4d0535157d41493d29150d5606a1b604482015260640161081c565b600085116114095760405162461bcd60e51b815260206004820152601960248201527f494e5645535453454c4c4445504f5349545f49535f5a45524f00000000000000604482015260640161081c565b816002015442106114525760405162461bcd60e51b81526020600482015260136024820152724e4f575f4249474745525f53544f5054494d4560681b604482015260640161081c565b60038301546114619086612e2b565b6000878152600960205260409020600301819055600184015410156114c85760405162461bcd60e51b815260206004820152601960248201527f4558434545445f50524f4a45435446554e444445504f53495400000000000000604482015260640161081c565b825460008781526009602052604081206003015490916114e89190612ffe565b905061150184600101548261300a90919063ffffffff16565b6000888152600960205260408120600201919091558454611523908890612ffe565b905061153c85600101548261300a90919063ffffffff16565b90508460060154421161159457600685015460408401819052600786015461156391612ff2565b6060840181905261157590889061300a565b6080840152606083015161158a90829061300a565b60a0840152611631565b426040840181905260078601546115aa91612ff2565b606084018190526115bc90889061300a565b608084015260608301516115d190829061300a565b60a0840152600685015460408401516115e991612ff2565b80845260a08401516115fb9190612ffe565b602080850182905260008a81526007909152604090206001015461161e91612e2b565b6000898152600760205260409020600101555b60a083015160008981526007602052604090205461164e91612e2b565b600089815260076020908152604080832093909355600a905220600301546116769088612e2b565b600a60008a815260200190815260200160002060030181905550600060045490506040518061012001604052808a8152602001898152602001838152602001856080015181526020018560a0015181526020018560400151815260200187600701548152602001336001600160a01b03168152602001600081525060086000838152602001908152602001600020600082015181600001556020820151816001015560408201518160020155606082015181600301556080820151816004015560a0820151816005015560c0820151816006015560e08201518160070160006101000a8154816001600160a01b0302191690836001600160a01b03160217905550610100820151816008015590505060045460016117949190613ea2565b600490815560098701546040516323b872dd60e01b81523392810192909252306024830152604482018a90526001600160a01b0316906323b872dd90606401602060405180830381600087803b1580156117ed57600080fd5b505af1158015611801573d6000803e3d6000fd5b505050506040513d601f19601f820116820180604052508101906118259190613dd3565b6118415760405162461bcd60e51b815260040161081c90613df5565b604051339082907f4720a701f0450254c5640e94b2ca9b93d3ab02d1d863e73b8521a8eae3e31d5190600090a398975050505050505050565b6000876001600160a01b03168a6001600160a01b031614156118de5760405162461bcd60e51b815260206004820152601860248201527f53454c4c544f4b454e5f53414d455f46554e44544f4b454e0000000000000000604482015260640161081c565b6000891161192e5760405162461bcd60e51b815260206004820152601a60248201527f50524f4a45435453454c4c4445504f5349545f49535f5a45524f000000000000604482015260640161081c565b6000871161197e5760405162461bcd60e51b815260206004820152601a60248201527f50454f4a45435446554e444445504f5349545f49535f5a45524f000000000000604482015260640161081c565b428610156119c55760405162461bcd60e51b8152602060048201526014602482015273535441525454494d455f4245464f52455f4e4f5760601b604482015260640161081c565b858511611a145760405162461bcd60e51b815260206004820152601960248201527f53544f5054494d455f4245464f52455f535441525454494d4500000000000000604482015260640161081c565b60008411611a595760405162461bcd60e51b81526020600482015260126024820152714c4f434b504552494f445f49535f5a45524f60701b604482015260640161081c565b60006005549050604051806101c001604052808b8152602001898152602001600081526020016000815260200160008152602001336001600160a01b031681526020018881526020018781526020018c6001600160a01b031681526020018a6001600160a01b03168152602001868152602001600067ffffffffffffffff811115611ae657611ae6613eba565b604051908082528060200260200182016040528015611b0f578160200160208202803683370190505b50815260200185858080601f01602080910402602001604051908101604052809392919081815260200183838082843760009201829052509385525050506020918201819052838152600980835260409182902084518155848401516001820155918401516002830155606084015160038301556080840151600483015560a08401516005830180546001600160a01b039283166001600160a01b03199182161790915560c0860151600685015560e086015160078501556101008601516008850180549184169183169190911790556101208601519284018054939092169216919091179055610140830151600a82015561016083015180519192611c1d92600b850192909101906138ae565b506101808201518051611c3a91600c8401916020909101906138f9565b506101a09190910151600d909101805460ff191660ff9092169190911790556000818152600a60205260409020600201869055600554611c7b906001613ea2565b6005556040516323b872dd60e01b8152336004820152306024820152604481018b90526001600160a01b038c16906323b872dd90606401602060405180830381600087803b158015611ccc57600080fd5b505af1158015611ce0573d6000803e3d6000fd5b505050506040513d601f19601f82011682018060405250810190611d049190613dd3565b611d205760405162461bcd60e51b815260040161081c90613df5565b336001600160a01b0316817f2e14b5f49842849ff704ede859ecb6323c5b90e76d6135b627eb0c1a580b5a6f8686604051611d5c929190613ed0565b60405180910390a39a9950505050505050505050565b6002546001600160a01b03163314611dd65760405162461bcd60e51b815260206004820152602160248201527f4678426173654368696c6454756e6e656c3a20494e56414c49445f53454e44456044820152602960f91b606482015260840161081c565b611e17848484848080601f01602080910402602001604051908101604052809392919081815260200183838082843760009201919091525061301692505050565b50505050565b333014611e3c5760405162461bcd60e51b815260040161081c90613e2c565b6000818152600b60205260409020600180820154600160a01b900460ff166003811115611e6b57611e6b613bf2565b148015611e8a575062015180816002015442611e879190613eff565b11155b15611f27576000828152600b6020908152604091829020600101805460ff60a01b1916600160a11b17905581516024808201869052835180830390910181526044909101909252810180516001600160e01b031663302c98cf60e11b90811790915290611ef681613136565b60405184907f1a8ae8ebbbcbee7b78e7b20141d783705810b169802305db13ff006098d07b9490600090a250505050565b6040805160248082018590528251808303909101815260449091019091526020810180516001600160e01b03166348a5b2b360e01b90811790915290611f6c81613136565b60405184907f6187bf55f2675dbecee951f81c92ecac87f54ed5bf888d31b09e634749b848ef90600090a250505050565b60008181526009602052604090206005015481906001600160a01b0316611fd65760405162461bcd60e51b815260040161081c90613d85565b6000828152600960209081526040808320600a8352818420600b909352922060020154156120465760405162461bcd60e51b815260206004820152601860248201527f414c52454144595f484156455f4152424954524154494f4e0000000000000000604482015260640161081c565b816006015442101561208e5760405162461bcd60e51b8152602060048201526011602482015270141493d29150d517d393d517d4d5105495607a1b604482015260640161081c565b806002015442106120d75760405162461bcd60e51b8152602060048201526013602482015272141493d29150d517d254d7d192539254d21151606a1b604482015260640161081c565b60058101546120e99062015180613ea2565b42101561212d5760405162461bcd60e51b81526020600482015260126024820152714e4f545f4152524956455f3234484f55525360701b604482015260640161081c565b6040805160808101825233815260058401546001600160a01b0316602082015290810160018152426020918201526000868152600b8252604090819020835181546001600160a01b03199081166001600160a01b0392831617835593850151600183018054958616919092169081178255928501519193919290916001600160a81b03191617600160a01b8360038111156121ca576121ca613bf2565b0217905550606091909101516002909101556000848152600a60209081526040918290204260059182018190559085015483516001600160a01b03909116815291820152339186917f47c87b47ced1a01f1e77cd50b8c4ff145a79955ce5fbf025d96f6195c6ef4daa910160405180910390a350505050565b600081815260086020908152604080832080548452600a909252822060048101546001146122b75781600501544211612280575060009392505050565b81600601544210156122a357600582015461229b9042613eff565b949350505050565b8160050154826006015461229b9190613eff565b80600401546001141561230857816005015442116122d9575060009392505050565b80600201544210156122f457600582015461229b9042613eff565b8160050154816002015461229b9190613eff565b5050919050565b6000600260015414156123345760405162461bcd60e51b815260040161081c90613d4e565b600260015560008281526008602052604090206007015482906001600160a01b03166123725760405162461bcd60e51b815260040161081c90613e63565b60008381526008602052604090206007015483906001600160a01b031633146123d15760405162461bcd60e51b81526020600482015260116024820152702727aa2fa4a72b22a9aa2fa9a2a72222a960791b604482015260640161081c565b6000848152600860209081526040808320548352600a9091529020600481015460011461240b5761240185613170565b6001935050611316565b612401856135ba565b600081815260086020526040812060070154819083906001600160a01b031661244f5760405162461bcd60e51b815260040161081c90613e63565b6000848152600860209081526040808320805484526009909252808320905163a82ccd4d60e01b81526004810188905291929091309063a82ccd4d9060240160206040518083038186803b1580156124a657600080fd5b505afa1580156124ba573d6000803e3d6000fd5b505050506040513d601f19601f820116820180604052508101906124de9190613f16565b90508260040154816124f09190613f2f565b94508160070154421061250557826002015494505b6008830154612515908690612ff2565b94508260030154816125279190613f2f565b95508160070154421061253c57826001015495505b600183015461254b9087612ff2565b955050505050915091565b60006002600154141561257b5760405162461bcd60e51b815260040161081c90613d4e565b600260015560008381526008602052604090206007015483906001600160a01b03166125b95760405162461bcd60e51b815260040161081c90613e63565b60008481526008602052604090206007015484906001600160a01b031633146126185760405162461bcd60e51b81526020600482015260116024820152702727aa2fa4a72b22a9aa2fa9a2a72222a960791b604482015260640161081c565b600084116126595760405162461bcd60e51b815260206004820152600e60248201526d414d4f554e545f49535f5a45524f60901b604482015260640161081c565b604051636e7d420960e11b815260048101869052600090309063dcfa841290602401604080518083038186803b15801561269257600080fd5b505afa1580156126a6573d6000803e3d6000fd5b505050506040513d601f19601f820116820180604052508101906126ca9190613daf565b915050848110156127165760405162461bcd60e51b8152602060048201526016602482015275109053105390d157d4d3505313115497d05353d5539560521b604482015260640161081c565b6000868152600860208181526040808420805485526009909252909220908201546127419088612e2b565b600089815260086020819052604091829020810192909255908201546007840154915163a9059cbb60e01b81526001600160a01b039283166004820152602481018a905291169063a9059cbb90604401602060405180830381600087803b1580156127ab57600080fd5b505af11580156127bf573d6000803e3d6000fd5b505050506040513d601f19601f820116820180604052508101906127e39190613dd3565b6127ff5760405162461bcd60e51b815260040161081c90613df5565b6007820154825460408051428152602081018b90526001600160a01b03909316928b917f255bf8e93b9d58a438629764a7d5b38c32a946d5e9cd28189346d2b9d5d1741c910160405180910390a4505060018080559695505050505050565b60008181526009602052604081206005015481908190819081908190819081908190819081906060908d906001600160a01b03166128ae5760405162461bcd60e51b815260040161081c90613d85565b600960008f8152602001908152602001600020600001549c50600960008f8152602001908152602001600020600101549b50600960008f8152602001908152602001600020600201549a50600960008f8152602001908152602001600020600301549950600960008f8152602001908152602001600020600401549850600960008f815260200190815260200160002060050160009054906101000a90046001600160a01b03169750600960008f8152602001908152602001600020600601549650600960008f8152602001908152602001600020600701549550600960008f815260200190815260200160002060080160009054906101000a90046001600160a01b03169450600960008f815260200190815260200160002060090160009054906101000a90046001600160a01b03169350600960008f8152602001908152602001600020600a01549250600960008f8152602001908152602001600020600c018054612a1b90613d13565b80601f0160208091040260200160405190810160405280929190818152602001828054612a4790613d13565b8015612a945780601f10612a6957610100808354040283529160200191612a94565b820191906000526020600020905b815481529060010190602001808311612a7757829003601f168201915b505050505091505091939597999b5091939597999b565b6000818152600960205260408120600501548190819084906001600160a01b0316612ae85760405162461bcd60e51b815260040161081c90613d85565b50506000928352600b60205260409092206001810154600290910154600160a01b90910460ff1693909150565b6000546001600160a01b03163314612b6f5760405162461bcd60e51b815260206004820181905260248201527f4f776e61626c653a2063616c6c6572206973206e6f7420746865206f776e6572604482015260640161081c565b6001600160a01b038116612bd45760405162461bcd60e51b815260206004820152602660248201527f4f776e61626c653a206e6577206f776e657220697320746865207a65726f206160448201526564647265737360d01b606482015260840161081c565b612bdd81612fa2565b50565b60026001541415612c035760405162461bcd60e51b815260040161081c90613d4e565b600260019081556000828152600b60205260409020906001820154600160a01b900460ff166003811115612c3957612c39613bf2565b14612c7d5760405162461bcd60e51b815260206004820152601460248201527314d510551554d7d393d517d49150d3105253515160621b604482015260640161081c565b62015180816002015442612c919190613eff565b11612cde5760405162461bcd60e51b815260206004820152601b60248201527f4e4f545f4152524956414c5f5245434c41494d4544504552494f440000000000604482015260640161081c565b604051630ebdd5eb60e31b815260048101839052600090819030906375eeaf5890602401604080518083038186803b158015612d1957600080fd5b505afa158015612d2d573d6000803e3d6000fd5b505050506040513d601f19601f82011682018060405250810190612d519190613daf565b6000868152600a60205260409020828155600181018290556002015491935091504211612d8e576000848152600a60205260409020426002909101555b5050506000908152600a6020908152604080832060016004909101819055600b9092529091208101805460ff60a01b1916600360a01b1790558055565b6000818152600960205260408120600501548190819084906001600160a01b0316612e085760405162461bcd60e51b815260040161081c90613d85565b505050600091825250600760205260409020805460018201546002909201549092565b6000612e378284613ea2565b9392505050565b6000828152600a602052604090206001821415612f1457604051630ebdd5eb60e31b815260048101849052600090819030906375eeaf5890602401604080518083038186803b158015612e9057600080fd5b505afa158015612ea4573d6000803e3d6000fd5b505050506040513d601f19601f82011682018060405250810190612ec89190613daf565b6000878152600a602052604090208281556001808201839055600490910155600285015491935091504211612f0d576000858152600a60205260409020426002909101555b5050505050565b8160021415612f655750506000908152600a6020908152604080832060026004909101819055600b909252822080546001600160a01b03191681556001810180546001600160a81b03191690550155565b81612f9d576000838152600b6020526040812080546001600160a01b03191681556001810180546001600160a81b0319169055600201555b505050565b600080546001600160a01b038381166001600160a01b0319831681178455604051919092169283917f8be0079c531659141344cd1fd0a4f28419497f9722a3daafe3b4186f6b6457e09190a35050565b6000612e378284613eff565b6000612e378284613f2f565b6000612e378284613f4e565b60035482906001600160a01b038083169116146130895760405162461bcd60e51b815260206004820152602b60248201527f4678426173654368696c6454756e6e656c3a20494e56414c49445f53454e444560448201526a1497d19493d357d493d3d560aa1b606482015260840161081c565b6000306001600160a01b0316836040516130a39190613f70565b6000604051808303816000865af19150503d80600081146130e0576040519150601f19603f3d011682016040523d82523d6000602084013e6130e5565b606091505b5050905080612f0d5760405162461bcd60e51b815260206004820152601760248201527f4661696c656420746f2063616c6c20636f6e7472616374000000000000000000604482015260640161081c565b7f8c5261668696ce22758910d05bab8f186d6eb247ceac2af2e82c7dc17669b036816040516131659190613f8c565b60405180910390a150565b60008181526008602090815260408083208054845260099092528083209051636e7d420960e11b815260048101859052919290918190309063dcfa841290602401604080518083038186803b1580156131c857600080fd5b505afa1580156131dc573d6000803e3d6000fd5b505050506040513d601f19601f820116820180604052508101906132009190613daf565b600385015491935091506132149083612ff2565b84546000908152600960205260408082206003908101939093558554875483529082209092015490916132479190612ffe565b905061326084600101548261300a90919063ffffffff16565b8554600090815260096020908152604080832060020193909355600188015488548352600a9091529190206003015461329891612ff2565b85546000908152600a60209081526040808320600301939093556004880154885483526007909152919020546132cd91612ff2565b855460009081526007602052604090205560068401546005860154111561335e57600061330b85600601548760050154612ff290919063ffffffff16565b90506000613326876004015483612ffe90919063ffffffff16565b87546000908152600760205260409020600101549091506133479082612ff2565b875460009081526007602052604090206001015550505b6000613377866008015484612e2b90919063ffffffff16565b86546000908152600760205260409020600201549091506133989082612e2b565b8654600090815260076020526040902060020155831561345a576009850154600787015460405163a9059cbb60e01b81526001600160a01b0391821660048201526024810187905291169063a9059cbb90604401602060405180830381600087803b15801561340657600080fd5b505af115801561341a573d6000803e3d6000fd5b505050506040513d601f19601f8201168201806040525081019061343e9190613dd3565b61345a5760405162461bcd60e51b815260040161081c90613df5565b8215613508576008850154600787015460405163a9059cbb60e01b81526001600160a01b0391821660048201526024810186905291169063a9059cbb90604401602060405180830381600087803b1580156134b457600080fd5b505af11580156134c8573d6000803e3d6000fd5b505050506040513d601f19601f820116820180604052508101906134ec9190613dd3565b6135085760405162461bcd60e51b815260040161081c90613df5565b6000878152600860208181526040808420848155600181018590556002810185905560038101859055600481018590556005810185905560068101859055600780820180546001600160a01b0319169055930193909355908801548854835188815292830187905242938301939093526001600160a01b03169189917fb9734b0a106e4fa9a57103da81f9b710354ab9383bb08a770ed5fe9f9dce411a9060600160405180910390a450505050505050565b60008181526008602090815260408083208054845260098352818420600a90935290832060018083015490820154929491926135f591612ffe565b905061360e82600301548261300a90919063ffffffff16565b604051636e7d420960e11b8152600481018790529091506000908190309063dcfa841290602401604080518083038186803b15801561364c57600080fd5b505afa158015613660573d6000803e3d6000fd5b505050506040513d601f19601f820116820180604052508101906136849190613daf565b90925090506136938383612e2b565b91508115613743576009850154600787015460405163a9059cbb60e01b81526001600160a01b0391821660048201526024810185905291169063a9059cbb90604401602060405180830381600087803b1580156136ef57600080fd5b505af1158015613703573d6000803e3d6000fd5b505050506040513d601f19601f820116820180604052508101906137279190613dd3565b6137435760405162461bcd60e51b815260040161081c90613df5565b80156137f1576008850154600787015460405163a9059cbb60e01b81526001600160a01b0391821660048201526024810184905291169063a9059cbb90604401602060405180830381600087803b15801561379d57600080fd5b505af11580156137b1573d6000803e3d6000fd5b505050506040513d601f19601f820116820180604052508101906137d59190613dd3565b6137f15760405162461bcd60e51b815260040161081c90613df5565b6000878152600860208181526040808420848155600181018590556002810185905560038101859055600481018590556005810185905560068101859055600780820180546001600160a01b031916905593019390935588549189015483516001600160a01b0390911681529081018590529182018390526060820185905242608083015288917f58d95ddedb75db12e4efe9a99cef155aa5f8ab4065d8fd91680c6a300cb343e69060a00160405180910390a350505050505050565b8280548282559060005260206000209081019282156138e9579160200282015b828111156138e95782518255916020019190600101906138ce565b506138f592915061396c565b5090565b82805461390590613d13565b90600052602060002090601f01602090048101928261392757600085556138e9565b82601f1061394057805160ff19168380011785556138e9565b828001600101855582156138e957918201828111156138e95782518255916020019190600101906138ce565b5b808211156138f5576000815560010161396d565b60006020828403121561399357600080fd5b5035919050565b60005b838110156139b557818101518382015260200161399d565b83811115611e175750506000910152565b600081518084526139de81602086016020860161399a565b601f01601f19169290920160200192915050565b60006101a08f83528e60208401528d60408401528c60608401528b608084015260018060a01b03808c1660a08501528a60c08501528960e0850152808916610100850152808816610120850152508561014084015280610160840152613a5a818401866139c6565b91505060ff83166101808301529e9d5050505050505050505050505050565b60008060408385031215613a8c57600080fd5b50508035926020909101359150565b80356001600160a01b0381168114613ab257600080fd5b919050565b60008083601f840112613ac957600080fd5b50813567ffffffffffffffff811115613ae157600080fd5b602083019150836020828501011115613af957600080fd5b9250929050565b60008060008060008060008060006101008a8c031215613b1f57600080fd5b613b288a613a9b565b985060208a01359750613b3d60408b01613a9b565b965060608a0135955060808a0135945060a08a0135935060c08a0135925060e08a013567ffffffffffffffff811115613b7557600080fd5b613b818c828d01613ab7565b915080935050809150509295985092959850929598565b60008060008060608587031215613bae57600080fd5b84359350613bbe60208601613a9b565b9250604085013567ffffffffffffffff811115613bda57600080fd5b613be687828801613ab7565b95989497509550505050565b634e487b7160e01b600052602160045260246000fd5b60048110613c2657634e487b7160e01b600052602160045260246000fd5b9052565b6001600160a01b0385811682528416602082015260808101613c4f6040830185613c08565b82606083015295945050505050565b60006101808e83528d60208401528c60408401528b60608401528a608084015260018060a01b03808b1660a08501528960c08501528860e0850152808816610100850152808716610120850152508461014084015280610160840152613cc6818401856139c6565b9f9e505050505050505050505050505050565b60608101613ce78286613c08565b602082019390935260400152919050565b600060208284031215613d0a57600080fd5b612e3782613a9b565b600181811c90821680613d2757607f821691505b60208210811415613d4857634e487b7160e01b600052602260045260246000fd5b50919050565b6020808252601f908201527f5265656e7472616e637947756172643a207265656e7472616e742063616c6c00604082015260600190565b60208082526010908201526f141493d29150d517d393d517d156125560821b604082015260600190565b60008060408385031215613dc257600080fd5b505080516020909101519092909150565b600060208284031215613de557600080fd5b81518015158114612e3757600080fd5b60208082526017908201527f544f4b454e5f545245414e534645525f4641494c555245000000000000000000604082015260600190565b6020808252601d908201527f43616e206f6e6c792062652063616c6c65642076696120627269646765000000604082015260600190565b6020808252600f908201526e14d51491505357d393d517d1561255608a1b604082015260600190565b634e487b7160e01b600052601160045260246000fd5b60008219821115613eb557613eb5613e8c565b500190565b634e487b7160e01b600052604160045260246000fd5b60208152816020820152818360408301376000818301604090810191909152601f909201601f19160101919050565b600082821015613f1157613f11613e8c565b500390565b600060208284031215613f2857600080fd5b5051919050565b6000816000190483118215151615613f4957613f49613e8c565b500290565b600082613f6b57634e487b7160e01b600052601260045260246000fd5b500490565b60008251613f8281846020870161399a565b9190910192915050565b602081526000612e3760208301846139c656fea2646970667358221220ca057598ba0f4303a5890f0de29a3a90994c14642ca5e3ff576728ff4d28aab464736f6c63430008090033",
  "devdoc": {
    "kind": "dev",
    "methods": {
      "cancelInvest(uint256)": {
        "details": "Throws if the id does not point to a valid stream.  Throws if caller is not the sender of the invest stream.  Throws if there is a token transfer failure.",
        "params": {
          "streamId": "The id of the invest stream to cancel."
        },
        "returns": {
          "_0": "bool true=success, otherwise false."
        }
      },
      "createArbitrationForInvestor(uint256)": {
        "params": {
          "projectId": "The id of the project to create arbitration."
        }
      },
      "createProject(address,uint256,address,uint256,uint256,uint256,uint256,string)": {
        "params": {
          "hash": "The ipfs hash for project info and promise submitted by the Project Party.",
          "lockPeriod": "The amount of lockPeriod and the uint is seconds.",
          "projectFundDeposit": "The amount of project fund.",
          "projectFundTokenAddress": "The address of project fund.",
          "projectSellDeposit": "The amount of project sell.",
          "projectSellTokenAddress": "The address of project sell.",
          "startTime": "The unix timestamp for when the stream starts.",
          "stopTime": "The unix timestamp for when the stream stops."
        },
        "returns": {
          "_0": "The uint256 id of the project stream."
        }
      },
      "createStream(uint256,uint256)": {
        "params": {
          "investSellDeposit": "The amount of money to be invested.",
          "projectId": "The id of the project stream for investors create."
        },
        "returns": {
          "_0": "The uint256 id of the newly created invest stream."
        }
      },
      "deltaOf(uint256)": {
        "details": "Throws if the id does not point to a valid stream.",
        "params": {
          "streamId": "The id of the stream for which to query the delta."
        },
        "returns": {
          "delta": "is time delta in seconds."
        }
      },
      "getCancelProjectForInvest(uint256)": {
        "details": "Throws if the project id does not point to a valid project stream.",
        "params": {
          "projectId": "The id of the project stream for get CancelProjectForInvest info."
        }
      },
      "getProject(uint256)": {
        "details": "Throws if the project id does not point to a valid project stream.",
        "params": {
          "projectId": "The id of the project stream for getProject info."
        }
      },
      "getStream(uint256)": {
        "details": "Throws if the stream id does not point to a valid invest stream.",
        "params": {
          "streamId": "The id of the invest stream for get stream info."
        }
      },
      "investBalanceOf(uint256)": {
        "details": "Throws if the id does not point to a valid stream.",
        "params": {
          "streamId": "The id of the invest stream for balance."
        },
        "returns": {
          "investFundBalance": "is  stream balance for invest FundToken.",
          "investSellBalance": "is stream balance for invest SellToken."
        }
      },
      "owner()": {
        "details": "Returns the address of the current owner."
      },
      "projectBalanceOf(uint256)": {
        "details": "Throws if the project id does not point to a valid project stream.",
        "params": {
          "projectId": "The id of the project stream for which to query the balance."
        },
        "returns": {
          "projectFundBalance": "is stream balance for project FundToken.",
          "projectSellBalance": "is stream balance for project SellToken."
        }
      },
      "projectRefunds(uint256)": {
        "details": "Throws if the project id does not point to a valid project stream. Throws if the caller is not the sender of the project stream Throws if now time smaller than project stopTime.",
        "params": {
          "projectId": "The id of the project stream for refunds."
        },
        "returns": {
          "_0": "bool true=success, otherwise false."
        }
      },
      "receiveArbitrationAnswer(uint256,uint256)": {
        "params": {
          "_answer": "The answer from the arbitrator.",
          "_projectId": "The ID of the project."
        }
      },
      "receiveArbitrationFailure(uint256)": {
        "details": "Currently this can happen only if the arbitration cost increased.",
        "params": {
          "_projectId": "The ID of the question."
        }
      },
      "receiveCreateDisputeRequest(uint256)": {
        "details": "Throws if the arbitration id does not point to a valid project.  Throws if the arbitration.status is not Reclaimed.  Throws if the now exceeds arbitration.reclaimedAt + 86400(reclaimed time).",
        "params": {
          "_projectId": "The id of the project arbitration for which to query the delta."
        }
      },
      "reclaimFunds(uint256)": {
        "details": "Throws if the arbitration id does not point to a valid project.  Throws if the arbitrations[projectId].status is not Reclaimed.  Throws if the caller is not arbitration.invest.  Throws if the now not exceeds arbitration.reclaimedAt + 86400(reclaimed time).",
        "params": {
          "projectId": "The id of the project arbitration for which to query the delta."
        }
      },
      "renounceOwnership()": {
        "details": "Leaves the contract without owner. It will not be possible to call `onlyOwner` functions anymore. Can only be called by the current owner. NOTE: Renouncing ownership will leave the contract without an owner, thereby removing any functionality that is only available to the owner."
      },
      "transferOwnership(address)": {
        "details": "Transfers ownership of the contract to a new account (`newOwner`). Can only be called by the current owner."
      },
      "withdrawFromInvest(uint256,uint256)": {
        "details": "Throws if the id does not point to a valid stream.  Throws if caller is not invest.  Throws if the amount exceeds the available balance.  Throws if there is a token transfer failure.",
        "params": {
          "amount": "The amount of tokens to withdraw.",
          "streamId": "The id of the stream to withdraw tokens from."
        },
        "returns": {
          "_0": "bool true=success, otherwise false."
        }
      },
      "withdrawFromProject(uint256,uint256)": {
        "details": "Throws if the id does not point to a valid stream.  Throws if caller is not project.  Throws if the amount exceeds the available balance.  Throws if there is a token transfer failure.",
        "params": {
          "amount": "The amount of tokens to withdraw.",
          "projectId": "The id of the project to withdraw tokens from."
        },
        "returns": {
          "_0": "bool true=success, otherwise false."
        }
      }
    },
    "version": 1
  },
  "userdoc": {
    "events": {
      "ArbitrationFailed(uint256)": {
        "notice": "To be emitted when the dispute could not be created on the Foreign Chain."
      },
      "ArbitratorAnswered(uint256,uint256)": {
        "notice": "To be emitted when receiving the answer from the arbitrator."
      },
      "RequestAcknowledged(uint256)": {
        "notice": "To be emitted when the arbitration request acknowledgement is sent to the Foreign Chain."
      },
      "RequestCanceled(uint256)": {
        "notice": "To be emitted when the arbitration request is canceled."
      }
    },
    "kind": "user",
    "methods": {
      "arbitrations(uint256)": {
        "notice": "The arbitration objects identifiable by their unsigned integer ids."
      },
      "calProjectBalances(uint256)": {
        "notice": "Calculation project balance."
      },
      "cancelInvest(uint256)": {
        "notice": "Cancels the invest stream and transfers the tokens back to invest."
      },
      "cancelProjectForInvests(uint256)": {
        "notice": "State changed when the invest cancel streams, The Status identifiable by their unsigned integer ids."
      },
      "createArbitrationForInvestor(uint256)": {
        "notice": "invest create arbitration with project."
      },
      "createProject(address,uint256,address,uint256,uint256,uint256,uint256,string)": {
        "notice": "Creates a new project stream for sell xDAI to fund DAI.  Throws if the projectSellTokenAddress is same the projectFundTokenAddress.  Throws if the projectSellDeposit is 0.  Throws if the projectFundDeposit is 0.  Throws if the start time is before `block.timestamp`.  Throws if the stop time is before the start time.  Throws if the lockPeriod is 0.  Throws if the duration calculation has a math error.  Throws if the projectSellDeposit is not multiple of time delta.  Throws if the projectFundDeposit is not multiple of time delta.  Throws if the projectId calculation has a math error.  Throws if the contract is not allowed to transfer enough tokens.  Throws if there is a token transfer failure."
      },
      "createStream(uint256,uint256)": {
        "notice": "Creates a new stream for invest project by investors;.  Throws if the caller is project.  Throws if the investSellDeposit is 0.  Throws if the now is before project start time.  Throws if the investSellDeposit is not a multiple of the duration.  Throws if the projectActualFundDeposit calculation has a math error.  Throws if the projectActualSellDeposit calculation has a math error.  Throws if the ratePerSecondOfProjectSell calculation has a math error.  Throws if the ratePerSecondOfProjectFund calculation has a math error.  Throws if the investFundDeposit calculation has a math error.  Throws if the ratePerSecondOfInvestSell calculation has a math error.  Throws if the ratePerSecondOfInvestFund calculation has a math error.  Throws if the contract is not allowed to transfer enough tokens.  Throws if there is a token transfer failure.  Throws if the projectFundDeposit is smaller than projectActualFundDeposit."
      },
      "deltaOf(uint256)": {
        "notice": "Returns either the delta in seconds between `block.timestamp` and `startTime` or  between `exitStopTime` and `startTime, whichever is smaller. If `block.timestamp` iis starts before  `startTime`, it returns 0."
      },
      "disputeIDtoArbitrationID(uint256)": {
        "notice": "The disputeID identifiable by their unsigned integer ids."
      },
      "getCancelProjectForInvest(uint256)": {
        "notice": "Returns the project with all its properties."
      },
      "getProject(uint256)": {
        "notice": "Returns the project with all its properties."
      },
      "getStream(uint256)": {
        "notice": "Returns the stream with all its properties."
      },
      "investBalanceOf(uint256)": {
        "notice": "Returns the sellToken balance and fundToken balance for invest."
      },
      "nextEvidenceGroup()": {
        "notice": "Counter for EvidenceGroup ids."
      },
      "nextProjectId()": {
        "notice": "Counter for project stream ids."
      },
      "nextStreamId()": {
        "notice": "Counter for invest stream ids."
      },
      "projectBalanceOf(uint256)": {
        "notice": "Returns the sellToken balance and fundToken balance for project."
      },
      "projectRefunds(uint256)": {
        "notice": "Project refund sellToken for Unsold and must exceed project stopTime + lock period!"
      },
      "projects(uint256)": {
        "notice": "The project stream objects identifiable by their unsigned integer ids."
      },
      "receiveArbitrationAnswer(uint256,uint256)": {
        "notice": "Receives the answer to a specified question. TRUSTED."
      },
      "receiveArbitrationFailure(uint256)": {
        "notice": "Receives a failed attempt to request arbitration. TRUSTED."
      },
      "receiveCreateDisputeRequest(uint256)": {
        "notice": "project pay arbitration fee."
      },
      "reclaimFunds(uint256)": {
        "notice": "investor reclaim funds when project not pay arbitration fee."
      },
      "streams(uint256)": {
        "notice": "The invest stream objects identifiable by their unsigned integer ids."
      },
      "withdrawFromInvest(uint256,uint256)": {
        "notice": "Withdraws from the contract to the investor's account."
      },
      "withdrawFromProject(uint256,uint256)": {
        "notice": "Withdraws from the contract to the Project's account."
      }
    },
    "version": 1
  },
  "storageLayout": {
    "storage": [
      {
        "astId": 162,
        "contract": "src/DAISO.sol:DAISO",
        "label": "_owner",
        "offset": 0,
        "slot": "0",
        "type": "t_address"
      },
      {
        "astId": 269,
        "contract": "src/DAISO.sol:DAISO",
        "label": "_status",
        "offset": 0,
        "slot": "1",
        "type": "t_uint256"
      },
      {
        "astId": 3580,
        "contract": "src/DAISO.sol:DAISO",
        "label": "fxChild",
        "offset": 0,
        "slot": "2",
        "type": "t_address"
      },
      {
        "astId": 3582,
        "contract": "src/DAISO.sol:DAISO",
        "label": "fxRootTunnel",
        "offset": 0,
        "slot": "3",
        "type": "t_address"
      },
      {
        "astId": 849,
        "contract": "src/DAISO.sol:DAISO",
        "label": "nextStreamId",
        "offset": 0,
        "slot": "4",
        "type": "t_uint256"
      },
      {
        "astId": 852,
        "contract": "src/DAISO.sol:DAISO",
        "label": "nextProjectId",
        "offset": 0,
        "slot": "5",
        "type": "t_uint256"
      },
      {
        "astId": 855,
        "contract": "src/DAISO.sol:DAISO",
        "label": "nextEvidenceGroup",
        "offset": 0,
        "slot": "6",
        "type": "t_uint256"
      },
      {
        "astId": 861,
        "contract": "src/DAISO.sol:DAISO",
        "label": "calProjectBalances",
        "offset": 0,
        "slot": "7",
        "type": "t_mapping(t_uint256,t_struct(CalProjectBalance)3558_storage)"
      },
      {
        "astId": 867,
        "contract": "src/DAISO.sol:DAISO",
        "label": "streams",
        "offset": 0,
        "slot": "8",
        "type": "t_mapping(t_uint256,t_struct(Stream)3519_storage)"
      },
      {
        "astId": 873,
        "contract": "src/DAISO.sol:DAISO",
        "label": "projects",
        "offset": 0,
        "slot": "9",
        "type": "t_mapping(t_uint256,t_struct(Project)3500_storage)"
      },
      {
        "astId": 879,
        "contract": "src/DAISO.sol:DAISO",
        "label": "cancelProjectForInvests",
        "offset": 0,
        "slot": "10",
        "type": "t_mapping(t_uint256,t_struct(CancelProjectForInvest)3532_storage)"
      },
      {
        "astId": 885,
        "contract": "src/DAISO.sol:DAISO",
        "label": "arbitrations",
        "offset": 0,
        "slot": "11",
        "type": "t_mapping(t_uint256,t_struct(Arbitration)3547_storage)"
      },
      {
        "astId": 890,
        "contract": "src/DAISO.sol:DAISO",
        "label": "disputeIDtoArbitrationID",
        "offset": 0,
        "slot": "12",
        "type": "t_mapping(t_uint256,t_uint256)"
      }
    ],
    "types": {
      "t_address": {
        "encoding": "inplace",
        "label": "address",
        "numberOfBytes": "20"
      },
      "t_address_payable": {
        "encoding": "inplace",
        "label": "address payable",
        "numberOfBytes": "20"
      },
      "t_array(t_uint256)dyn_storage": {
        "base": "t_uint256",
        "encoding": "dynamic_array",
        "label": "uint256[]",
        "numberOfBytes": "32"
      },
      "t_enum(Status)3537": {
        "encoding": "inplace",
        "label": "enum Types.Status",
        "numberOfBytes": "1"
      },
      "t_mapping(t_uint256,t_struct(Arbitration)3547_storage)": {
        "encoding": "mapping",
        "key": "t_uint256",
        "label": "mapping(uint256 => struct Types.Arbitration)",
        "numberOfBytes": "32",
        "value": "t_struct(Arbitration)3547_storage"
      },
      "t_mapping(t_uint256,t_struct(CalProjectBalance)3558_storage)": {
        "encoding": "mapping",
        "key": "t_uint256",
        "label": "mapping(uint256 => struct Types.CalProjectBalance)",
        "numberOfBytes": "32",
        "value": "t_struct(CalProjectBalance)3558_storage"
      },
      "t_mapping(t_uint256,t_struct(CancelProjectForInvest)3532_storage)": {
        "encoding": "mapping",
        "key": "t_uint256",
        "label": "mapping(uint256 => struct Types.CancelProjectForInvest)",
        "numberOfBytes": "32",
        "value": "t_struct(CancelProjectForInvest)3532_storage"
      },
      "t_mapping(t_uint256,t_struct(Project)3500_storage)": {
        "encoding": "mapping",
        "key": "t_uint256",
        "label": "mapping(uint256 => struct Types.Project)",
        "numberOfBytes": "32",
        "value": "t_struct(Project)3500_storage"
      },
      "t_mapping(t_uint256,t_struct(Stream)3519_storage)": {
        "encoding": "mapping",
        "key": "t_uint256",
        "label": "mapping(uint256 => struct Types.Stream)",
        "numberOfBytes": "32",
        "value": "t_struct(Stream)3519_storage"
      },
      "t_mapping(t_uint256,t_uint256)": {
        "encoding": "mapping",
        "key": "t_uint256",
        "label": "mapping(uint256 => uint256)",
        "numberOfBytes": "32",
        "value": "t_uint256"
      },
      "t_string_storage": {
        "encoding": "bytes",
        "label": "string",
        "numberOfBytes": "32"
      },
      "t_struct(Arbitration)3547_storage": {
        "encoding": "inplace",
        "label": "struct Types.Arbitration",
        "members": [
          {
            "astId": 3539,
            "contract": "src/DAISO.sol:DAISO",
            "label": "invest",
            "offset": 0,
            "slot": "0",
            "type": "t_address_payable"
          },
          {
            "astId": 3541,
            "contract": "src/DAISO.sol:DAISO",
            "label": "project",
            "offset": 0,
            "slot": "1",
            "type": "t_address_payable"
          },
          {
            "astId": 3544,
            "contract": "src/DAISO.sol:DAISO",
            "label": "status",
            "offset": 20,
            "slot": "1",
            "type": "t_enum(Status)3537"
          },
          {
            "astId": 3546,
            "contract": "src/DAISO.sol:DAISO",
            "label": "reclaimedAt",
            "offset": 0,
            "slot": "2",
            "type": "t_uint256"
          }
        ],
        "numberOfBytes": "96"
      },
      "t_struct(CalProjectBalance)3558_storage": {
        "encoding": "inplace",
        "label": "struct Types.CalProjectBalance",
        "members": [
          {
            "astId": 3553,
            "contract": "src/DAISO.sol:DAISO",
            "label": "sumOfRatePerSecondOfInvestFund",
            "offset": 0,
            "slot": "0",
            "type": "t_uint256"
          },
          {
            "astId": 3555,
            "contract": "src/DAISO.sol:DAISO",
            "label": "sumOfCalBalance",
            "offset": 0,
            "slot": "1",
            "type": "t_uint256"
          },
          {
            "astId": 3557,
            "contract": "src/DAISO.sol:DAISO",
            "label": "sumOfCancelInvestor",
            "offset": 0,
            "slot": "2",
            "type": "t_uint256"
          }
        ],
        "numberOfBytes": "96"
      },
      "t_struct(CancelProjectForInvest)3532_storage": {
        "encoding": "inplace",
        "label": "struct Types.CancelProjectForInvest",
        "members": [
          {
            "astId": 3521,
            "contract": "src/DAISO.sol:DAISO",
            "label": "exitProjectSellBalance",
            "offset": 0,
            "slot": "0",
            "type": "t_uint256"
          },
          {
            "astId": 3523,
            "contract": "src/DAISO.sol:DAISO",
            "label": "exitProjectFundBalance",
            "offset": 0,
            "slot": "1",
            "type": "t_uint256"
          },
          {
            "astId": 3525,
            "contract": "src/DAISO.sol:DAISO",
            "label": "exitStopTime",
            "offset": 0,
            "slot": "2",
            "type": "t_uint256"
          },
          {
            "astId": 3527,
            "contract": "src/DAISO.sol:DAISO",
            "label": "sumForExistInvest",
            "offset": 0,
            "slot": "3",
            "type": "t_uint256"
          },
          {
            "astId": 3529,
            "contract": "src/DAISO.sol:DAISO",
            "label": "proposalForCancelStatus",
            "offset": 0,
            "slot": "4",
            "type": "t_uint256"
          },
          {
            "astId": 3531,
            "contract": "src/DAISO.sol:DAISO",
            "label": "preReclaimedAt",
            "offset": 0,
            "slot": "5",
            "type": "t_uint256"
          }
        ],
        "numberOfBytes": "192"
      },
      "t_struct(Project)3500_storage": {
        "encoding": "inplace",
        "label": "struct Types.Project",
        "members": [
          {
            "astId": 3472,
            "contract": "src/DAISO.sol:DAISO",
            "label": "projectSellDeposit",
            "offset": 0,
            "slot": "0",
            "type": "t_uint256"
          },
          {
            "astId": 3474,
            "contract": "src/DAISO.sol:DAISO",
            "label": "projectFundDeposit",
            "offset": 0,
            "slot": "1",
            "type": "t_uint256"
          },
          {
            "astId": 3476,
            "contract": "src/DAISO.sol:DAISO",
            "label": "projectActualSellDeposit",
            "offset": 0,
            "slot": "2",
            "type": "t_uint256"
          },
          {
            "astId": 3478,
            "contract": "src/DAISO.sol:DAISO",
            "label": "projectActualFundDeposit",
            "offset": 0,
            "slot": "3",
            "type": "t_uint256"
          },
          {
            "astId": 3480,
            "contract": "src/DAISO.sol:DAISO",
            "label": "projectWithdrawalAmount",
            "offset": 0,
            "slot": "4",
            "type": "t_uint256"
          },
          {
            "astId": 3482,
            "contract": "src/DAISO.sol:DAISO",
            "label": "sender",
            "offset": 0,
            "slot": "5",
            "type": "t_address_payable"
          },
          {
            "astId": 3484,
            "contract": "src/DAISO.sol:DAISO",
            "label": "startTime",
            "offset": 0,
            "slot": "6",
            "type": "t_uint256"
          },
          {
            "astId": 3486,
            "contract": "src/DAISO.sol:DAISO",
            "label": "stopTime",
            "offset": 0,
            "slot": "7",
            "type": "t_uint256"
          },
          {
            "astId": 3488,
            "contract": "src/DAISO.sol:DAISO",
            "label": "projectSellTokenAddress",
            "offset": 0,
            "slot": "8",
            "type": "t_address"
          },
          {
            "astId": 3490,
            "contract": "src/DAISO.sol:DAISO",
            "label": "projectFundTokenAddress",
            "offset": 0,
            "slot": "9",
            "type": "t_address"
          },
          {
            "astId": 3492,
            "contract": "src/DAISO.sol:DAISO",
            "label": "lockPeriod",
            "offset": 0,
            "slot": "10",
            "type": "t_uint256"
          },
          {
            "astId": 3495,
            "contract": "src/DAISO.sol:DAISO",
            "label": "streamId",
            "offset": 0,
            "slot": "11",
            "type": "t_array(t_uint256)dyn_storage"
          },
          {
            "astId": 3497,
            "contract": "src/DAISO.sol:DAISO",
            "label": "hash",
            "offset": 0,
            "slot": "12",
            "type": "t_string_storage"
          },
          {
            "astId": 3499,
            "contract": "src/DAISO.sol:DAISO",
            "label": "refunded",
            "offset": 0,
            "slot": "13",
            "type": "t_uint8"
          }
        ],
        "numberOfBytes": "448"
      },
      "t_struct(Stream)3519_storage": {
        "encoding": "inplace",
        "label": "struct Types.Stream",
        "members": [
          {
            "astId": 3502,
            "contract": "src/DAISO.sol:DAISO",
            "label": "projectId",
            "offset": 0,
            "slot": "0",
            "type": "t_uint256"
          },
          {
            "astId": 3504,
            "contract": "src/DAISO.sol:DAISO",
            "label": "investSellDeposit",
            "offset": 0,
            "slot": "1",
            "type": "t_uint256"
          },
          {
            "astId": 3506,
            "contract": "src/DAISO.sol:DAISO",
            "label": "investFundDeposit",
            "offset": 0,
            "slot": "2",
            "type": "t_uint256"
          },
          {
            "astId": 3508,
            "contract": "src/DAISO.sol:DAISO",
            "label": "ratePerSecondOfInvestSell",
            "offset": 0,
            "slot": "3",
            "type": "t_uint256"
          },
          {
            "astId": 3510,
            "contract": "src/DAISO.sol:DAISO",
            "label": "ratePerSecondOfInvestFund",
            "offset": 0,
            "slot": "4",
            "type": "t_uint256"
          },
          {
            "astId": 3512,
            "contract": "src/DAISO.sol:DAISO",
            "label": "startTime",
            "offset": 0,
            "slot": "5",
            "type": "t_uint256"
          },
          {
            "astId": 3514,
            "contract": "src/DAISO.sol:DAISO",
            "label": "stopTime",
            "offset": 0,
            "slot": "6",
            "type": "t_uint256"
          },
          {
            "astId": 3516,
            "contract": "src/DAISO.sol:DAISO",
            "label": "sender",
            "offset": 0,
            "slot": "7",
            "type": "t_address"
          },
          {
            "astId": 3518,
            "contract": "src/DAISO.sol:DAISO",
            "label": "investWithdrawalAmount",
            "offset": 0,
            "slot": "8",
            "type": "t_uint256"
          }
        ],
        "numberOfBytes": "288"
      },
      "t_uint256": {
        "encoding": "inplace",
        "label": "uint256",
        "numberOfBytes": "32"
      },
      "t_uint8": {
        "encoding": "inplace",
        "label": "uint8",
        "numberOfBytes": "1"
      }
    }
  }
}