{
  "address": "0xa8465ed75FBC080cF48fe47Bb27fa4aD5CfBd9F3",
  "abi": [
    {
      "inputs": [
        {
          "internalType": "address",
          "name": "_fxChild",
          "type": "address"
        },
        {
          "internalType": "address",
          "name": "_foreignProxy",
          "type": "address"
        }
      ],
      "stateMutability": "nonpayable",
      "type": "constructor"
    },
    {
      "anonymous": false,
      "inputs": [
        {
          "indexed": true,
          "internalType": "uint256",
          "name": "projectId",
          "type": "uint256"
        },
        {
          "indexed": false,
          "internalType": "address",
          "name": "project",
          "type": "address"
        },
        {
          "indexed": true,
          "internalType": "address",
          "name": "invest",
          "type": "address"
        },
        {
          "indexed": false,
          "internalType": "uint256",
          "name": "reclaimedAt",
          "type": "uint256"
        }
      ],
      "name": "Arbitration",
      "type": "event"
    },
    {
      "anonymous": false,
      "inputs": [
        {
          "indexed": true,
          "internalType": "uint256",
          "name": "_projectID",
          "type": "uint256"
        }
      ],
      "name": "ArbitrationFailed",
      "type": "event"
    },
    {
      "anonymous": false,
      "inputs": [
        {
          "indexed": true,
          "internalType": "uint256",
          "name": "_projectID",
          "type": "uint256"
        },
        {
          "indexed": false,
          "internalType": "uint256",
          "name": "_answer",
          "type": "uint256"
        }
      ],
      "name": "ArbitratorAnswered",
      "type": "event"
    },
    {
      "anonymous": false,
      "inputs": [
        {
          "indexed": true,
          "internalType": "uint256",
          "name": "projectId",
          "type": "uint256"
        },
        {
          "indexed": true,
          "internalType": "uint256",
          "name": "streamId",
          "type": "uint256"
        },
        {
          "indexed": false,
          "internalType": "address",
          "name": "sender",
          "type": "address"
        },
        {
          "indexed": false,
          "internalType": "uint256",
          "name": "investSellBalance",
          "type": "uint256"
        },
        {
          "indexed": false,
          "internalType": "uint256",
          "name": "investFundBalance",
          "type": "uint256"
        },
        {
          "indexed": false,
          "internalType": "uint256",
          "name": "refunds",
          "type": "uint256"
        },
        {
          "indexed": false,
          "internalType": "uint256",
          "name": "cancelTime",
          "type": "uint256"
        }
      ],
      "name": "CancelProject",
      "type": "event"
    },
    {
      "anonymous": false,
      "inputs": [
        {
          "indexed": true,
          "internalType": "uint256",
          "name": "projectId",
          "type": "uint256"
        },
        {
          "indexed": false,
          "internalType": "uint256",
          "name": "projectSellBalance",
          "type": "uint256"
        }
      ],
      "name": "CancelProjectForProject",
      "type": "event"
    },
    {
      "anonymous": false,
      "inputs": [
        {
          "indexed": true,
          "internalType": "uint256",
          "name": "projectId",
          "type": "uint256"
        },
        {
          "indexed": true,
          "internalType": "uint256",
          "name": "streamId",
          "type": "uint256"
        },
        {
          "indexed": true,
          "internalType": "address",
          "name": "sender",
          "type": "address"
        },
        {
          "indexed": false,
          "internalType": "uint256",
          "name": "investSellBalance",
          "type": "uint256"
        },
        {
          "indexed": false,
          "internalType": "uint256",
          "name": "investFundBalance",
          "type": "uint256"
        },
        {
          "indexed": false,
          "internalType": "uint256",
          "name": "cancelTime",
          "type": "uint256"
        }
      ],
      "name": "CancelStream",
      "type": "event"
    },
    {
      "anonymous": false,
      "inputs": [
        {
          "indexed": true,
          "internalType": "uint256",
          "name": "projectId",
          "type": "uint256"
        },
        {
          "indexed": true,
          "internalType": "address",
          "name": "sender",
          "type": "address"
        },
        {
          "indexed": false,
          "internalType": "string",
          "name": "hash",
          "type": "string"
        }
      ],
      "name": "CreateProject",
      "type": "event"
    },
    {
      "anonymous": false,
      "inputs": [
        {
          "indexed": true,
          "internalType": "uint256",
          "name": "streamId",
          "type": "uint256"
        },
        {
          "indexed": true,
          "internalType": "address",
          "name": "sender",
          "type": "address"
        }
      ],
      "name": "CreateStream",
      "type": "event"
    },
    {
      "anonymous": false,
      "inputs": [
        {
          "indexed": false,
          "internalType": "bytes",
          "name": "message",
          "type": "bytes"
        }
      ],
      "name": "MessageSent",
      "type": "event"
    },
    {
      "anonymous": false,
      "inputs": [
        {
          "indexed": true,
          "internalType": "address",
          "name": "previousOwner",
          "type": "address"
        },
        {
          "indexed": true,
          "internalType": "address",
          "name": "newOwner",
          "type": "address"
        }
      ],
      "name": "OwnershipTransferred",
      "type": "event"
    },
    {
      "anonymous": false,
      "inputs": [
        {
          "indexed": true,
          "internalType": "uint256",
          "name": "_projectID",
          "type": "uint256"
        }
      ],
      "name": "RequestAcknowledged",
      "type": "event"
    },
    {
      "anonymous": false,
      "inputs": [
        {
          "indexed": true,
          "internalType": "uint256",
          "name": "_projectID",
          "type": "uint256"
        }
      ],
      "name": "RequestCanceled",
      "type": "event"
    },
    {
      "anonymous": false,
      "inputs": [
        {
          "indexed": true,
          "internalType": "uint256",
          "name": "_projectID",
          "type": "uint256"
        }
      ],
      "name": "RequestReceived",
      "type": "event"
    },
    {
      "anonymous": false,
      "inputs": [
        {
          "indexed": true,
          "internalType": "uint256",
          "name": "_projectID",
          "type": "uint256"
        }
      ],
      "name": "RequestRejected",
      "type": "event"
    },
    {
      "anonymous": false,
      "inputs": [
        {
          "indexed": true,
          "internalType": "uint256",
          "name": "streamId",
          "type": "uint256"
        },
        {
          "indexed": true,
          "internalType": "uint256",
          "name": "projectId",
          "type": "uint256"
        },
        {
          "indexed": true,
          "internalType": "address",
          "name": "sender",
          "type": "address"
        },
        {
          "indexed": false,
          "internalType": "uint256",
          "name": "withdrawTime",
          "type": "uint256"
        },
        {
          "indexed": false,
          "internalType": "uint256",
          "name": "amount",
          "type": "uint256"
        }
      ],
      "name": "WithdrawFromInvest",
      "type": "event"
    },
    {
      "anonymous": false,
      "inputs": [
        {
          "indexed": true,
          "internalType": "uint256",
          "name": "projectId",
          "type": "uint256"
        },
        {
          "indexed": true,
          "internalType": "address",
          "name": "sender",
          "type": "address"
        },
        {
          "indexed": false,
          "internalType": "uint256",
          "name": "withdrawTime",
          "type": "uint256"
        },
        {
          "indexed": false,
          "internalType": "uint256",
          "name": "amount",
          "type": "uint256"
        }
      ],
      "name": "WithdrawFromProject",
      "type": "event"
    },
    {
      "inputs": [
        {
          "internalType": "uint256",
          "name": "",
          "type": "uint256"
        }
      ],
      "name": "arbitrations",
      "outputs": [
        {
          "internalType": "address payable",
          "name": "invest",
          "type": "address"
        },
        {
          "internalType": "address payable",
          "name": "project",
          "type": "address"
        },
        {
          "internalType": "enum Types.Status",
          "name": "status",
          "type": "uint8"
        },
        {
          "internalType": "uint256",
          "name": "reclaimedAt",
          "type": "uint256"
        }
      ],
      "stateMutability": "view",
      "type": "function"
    },
    {
      "inputs": [
        {
          "internalType": "uint256",
          "name": "",
          "type": "uint256"
        }
      ],
      "name": "calProjectBalances",
      "outputs": [
        {
          "internalType": "uint256",
          "name": "sumOfRatePerSecondOfInvestFund",
          "type": "uint256"
        },
        {
          "internalType": "uint256",
          "name": "sumOfCalBalance",
          "type": "uint256"
        },
        {
          "internalType": "uint256",
          "name": "sumOfCancelInvestor",
          "type": "uint256"
        }
      ],
      "stateMutability": "view",
      "type": "function"
    },
    {
      "inputs": [
        {
          "internalType": "uint256",
          "name": "streamId",
          "type": "uint256"
        }
      ],
      "name": "cancelInvest",
      "outputs": [
        {
          "internalType": "bool",
          "name": "",
          "type": "bool"
        }
      ],
      "stateMutability": "nonpayable",
      "type": "function"
    },
    {
      "inputs": [
        {
          "internalType": "uint256",
          "name": "",
          "type": "uint256"
        }
      ],
      "name": "cancelProjectForInvests",
      "outputs": [
        {
          "internalType": "uint256",
          "name": "exitProjectSellBalance",
          "type": "uint256"
        },
        {
          "internalType": "uint256",
          "name": "exitProjectFundBalance",
          "type": "uint256"
        },
        {
          "internalType": "uint256",
          "name": "exitStopTime",
          "type": "uint256"
        },
        {
          "internalType": "uint256",
          "name": "sumForExistInvest",
          "type": "uint256"
        },
        {
          "internalType": "uint256",
          "name": "proposalForCancelStatus",
          "type": "uint256"
        },
        {
          "internalType": "uint256",
          "name": "preReclaimedAt",
          "type": "uint256"
        }
      ],
      "stateMutability": "view",
      "type": "function"
    },
    {
      "inputs": [
        {
          "internalType": "uint256",
          "name": "projectId",
          "type": "uint256"
        }
      ],
      "name": "createArbitrationForInvestor",
      "outputs": [],
      "stateMutability": "nonpayable",
      "type": "function"
    },
    {
      "inputs": [
        {
          "internalType": "address",
          "name": "projectSellTokenAddress",
          "type": "address"
        },
        {
          "internalType": "uint256",
          "name": "projectSellDeposit",
          "type": "uint256"
        },
        {
          "internalType": "address",
          "name": "projectFundTokenAddress",
          "type": "address"
        },
        {
          "internalType": "uint256",
          "name": "projectFundDeposit",
          "type": "uint256"
        },
        {
          "internalType": "uint256",
          "name": "startTime",
          "type": "uint256"
        },
        {
          "internalType": "uint256",
          "name": "stopTime",
          "type": "uint256"
        },
        {
          "internalType": "uint256",
          "name": "lockPeriod",
          "type": "uint256"
        },
        {
          "internalType": "string",
          "name": "hash",
          "type": "string"
        }
      ],
      "name": "createProject",
      "outputs": [
        {
          "internalType": "uint256",
          "name": "",
          "type": "uint256"
        }
      ],
      "stateMutability": "nonpayable",
      "type": "function"
    },
    {
      "inputs": [
        {
          "internalType": "uint256",
          "name": "projectId",
          "type": "uint256"
        },
        {
          "internalType": "uint256",
          "name": "investSellDeposit",
          "type": "uint256"
        }
      ],
      "name": "createStream",
      "outputs": [
        {
          "internalType": "uint256",
          "name": "",
          "type": "uint256"
        }
      ],
      "stateMutability": "nonpayable",
      "type": "function"
    },
    {
      "inputs": [
        {
          "internalType": "uint256",
          "name": "streamId",
          "type": "uint256"
        }
      ],
      "name": "deltaOf",
      "outputs": [
        {
          "internalType": "uint256",
          "name": "delta",
          "type": "uint256"
        }
      ],
      "stateMutability": "view",
      "type": "function"
    },
    {
      "inputs": [
        {
          "internalType": "uint256",
          "name": "",
          "type": "uint256"
        }
      ],
      "name": "disputeIDtoArbitrationID",
      "outputs": [
        {
          "internalType": "uint256",
          "name": "",
          "type": "uint256"
        }
      ],
      "stateMutability": "view",
      "type": "function"
    },
    {
      "inputs": [],
      "name": "fxChild",
      "outputs": [
        {
          "internalType": "address",
          "name": "",
          "type": "address"
        }
      ],
      "stateMutability": "view",
      "type": "function"
    },
    {
      "inputs": [],
      "name": "fxRootTunnel",
      "outputs": [
        {
          "internalType": "address",
          "name": "",
          "type": "address"
        }
      ],
      "stateMutability": "view",
      "type": "function"
    },
    {
      "inputs": [
        {
          "internalType": "uint256",
          "name": "projectId",
          "type": "uint256"
        }
      ],
      "name": "getArbitration",
      "outputs": [
        {
          "internalType": "enum Types.Status",
          "name": "status",
          "type": "uint8"
        },
        {
          "internalType": "uint256",
          "name": "disputeID",
          "type": "uint256"
        },
        {
          "internalType": "uint256",
          "name": "reclaimedAt",
          "type": "uint256"
        }
      ],
      "stateMutability": "view",
      "type": "function"
    },
    {
      "inputs": [
        {
          "internalType": "uint256",
          "name": "projectId",
          "type": "uint256"
        }
      ],
      "name": "getCalProjectBalance",
      "outputs": [
        {
          "internalType": "uint256",
          "name": "sumOfRatePerSecondOfInvestFund",
          "type": "uint256"
        },
        {
          "internalType": "uint256",
          "name": "sumOfCalBalance",
          "type": "uint256"
        },
        {
          "internalType": "uint256",
          "name": "sumOfCancelInvestor",
          "type": "uint256"
        }
      ],
      "stateMutability": "view",
      "type": "function"
    },
    {
      "inputs": [
        {
          "internalType": "uint256",
          "name": "projectId",
          "type": "uint256"
        }
      ],
      "name": "getCancelProjectForInvest",
      "outputs": [
        {
          "internalType": "uint256",
          "name": "exitProjectSellBalance",
          "type": "uint256"
        },
        {
          "internalType": "uint256",
          "name": "exitProjectFundBalance",
          "type": "uint256"
        },
        {
          "internalType": "uint256",
          "name": "exitStopTime",
          "type": "uint256"
        },
        {
          "internalType": "uint256",
          "name": "sumForExistInvest",
          "type": "uint256"
        },
        {
          "internalType": "uint256",
          "name": "proposalForCancelStatus",
          "type": "uint256"
        }
      ],
      "stateMutability": "view",
      "type": "function"
    },
    {
      "inputs": [
        {
          "internalType": "uint256",
          "name": "projectId",
          "type": "uint256"
        }
      ],
      "name": "getProject",
      "outputs": [
        {
          "internalType": "uint256",
          "name": "projectSellDeposit",
          "type": "uint256"
        },
        {
          "internalType": "uint256",
          "name": "projectFundDeposit",
          "type": "uint256"
        },
        {
          "internalType": "uint256",
          "name": "projectActualSellDeposit",
          "type": "uint256"
        },
        {
          "internalType": "uint256",
          "name": "projectActualFundDeposit",
          "type": "uint256"
        },
        {
          "internalType": "uint256",
          "name": "projectWithdrawalAmount",
          "type": "uint256"
        },
        {
          "internalType": "address payable",
          "name": "sender",
          "type": "address"
        },
        {
          "internalType": "uint256",
          "name": "startTime",
          "type": "uint256"
        },
        {
          "internalType": "uint256",
          "name": "stopTime",
          "type": "uint256"
        },
        {
          "internalType": "address",
          "name": "projectSellTokenAddress",
          "type": "address"
        },
        {
          "internalType": "address",
          "name": "projectFundTokenAddress",
          "type": "address"
        },
        {
          "internalType": "uint256",
          "name": "lockPeriod",
          "type": "uint256"
        },
        {
          "internalType": "string",
          "name": "hash",
          "type": "string"
        }
      ],
      "stateMutability": "view",
      "type": "function"
    },
    {
      "inputs": [
        {
          "internalType": "uint256",
          "name": "streamId",
          "type": "uint256"
        }
      ],
      "name": "getStream",
      "outputs": [
        {
          "internalType": "uint256",
          "name": "projectId",
          "type": "uint256"
        },
        {
          "internalType": "uint256",
          "name": "investSellDeposit",
          "type": "uint256"
        },
        {
          "internalType": "uint256",
          "name": "investFundDeposit",
          "type": "uint256"
        },
        {
          "internalType": "address",
          "name": "sender",
          "type": "address"
        },
        {
          "internalType": "uint256",
          "name": "startTime",
          "type": "uint256"
        },
        {
          "internalType": "uint256",
          "name": "stopTime",
          "type": "uint256"
        },
        {
          "internalType": "uint256",
          "name": "investWithdrawalAmount",
          "type": "uint256"
        },
        {
          "internalType": "uint256",
          "name": "ratePerSecondOfInvestSell",
          "type": "uint256"
        },
        {
          "internalType": "uint256",
          "name": "ratePerSecondOfInvestFund",
          "type": "uint256"
        }
      ],
      "stateMutability": "view",
      "type": "function"
    },
    {
      "inputs": [
        {
          "internalType": "uint256",
          "name": "_projectId",
          "type": "uint256"
        }
      ],
      "name": "handleReceivedRequest",
      "outputs": [],
      "stateMutability": "nonpayable",
      "type": "function"
    },
    {
      "inputs": [
        {
          "internalType": "uint256",
          "name": "_projectId",
          "type": "uint256"
        }
      ],
      "name": "handleRejectedRequest",
      "outputs": [],
      "stateMutability": "nonpayable",
      "type": "function"
    },
    {
      "inputs": [
        {
          "internalType": "uint256",
          "name": "streamId",
          "type": "uint256"
        }
      ],
      "name": "investBalanceOf",
      "outputs": [
        {
          "internalType": "uint256",
          "name": "investSellBalance",
          "type": "uint256"
        },
        {
          "internalType": "uint256",
          "name": "investFundBalance",
          "type": "uint256"
        }
      ],
      "stateMutability": "view",
      "type": "function"
    },
    {
      "inputs": [],
      "name": "nextEvidenceGroup",
      "outputs": [
        {
          "internalType": "uint256",
          "name": "",
          "type": "uint256"
        }
      ],
      "stateMutability": "view",
      "type": "function"
    },
    {
      "inputs": [],
      "name": "nextProjectId",
      "outputs": [
        {
          "internalType": "uint256",
          "name": "",
          "type": "uint256"
        }
      ],
      "stateMutability": "view",
      "type": "function"
    },
    {
      "inputs": [],
      "name": "nextStreamId",
      "outputs": [
        {
          "internalType": "uint256",
          "name": "",
          "type": "uint256"
        }
      ],
      "stateMutability": "view",
      "type": "function"
    },
    {
      "inputs": [],
      "name": "owner",
      "outputs": [
        {
          "internalType": "address",
          "name": "",
          "type": "address"
        }
      ],
      "stateMutability": "view",
      "type": "function"
    },
    {
      "inputs": [
        {
          "internalType": "uint256",
          "name": "stateId",
          "type": "uint256"
        },
        {
          "internalType": "address",
          "name": "rootMessageSender",
          "type": "address"
        },
        {
          "internalType": "bytes",
          "name": "data",
          "type": "bytes"
        }
      ],
      "name": "processMessageFromRoot",
      "outputs": [],
      "stateMutability": "nonpayable",
      "type": "function"
    },
    {
      "inputs": [
        {
          "internalType": "uint256",
          "name": "projectId",
          "type": "uint256"
        }
      ],
      "name": "projectBalanceOf",
      "outputs": [
        {
          "internalType": "uint256",
          "name": "projectSellBalance",
          "type": "uint256"
        },
        {
          "internalType": "uint256",
          "name": "projectFundBalance",
          "type": "uint256"
        }
      ],
      "stateMutability": "view",
      "type": "function"
    },
    {
      "inputs": [
        {
          "internalType": "uint256",
          "name": "projectId",
          "type": "uint256"
        }
      ],
      "name": "projectRefunds",
      "outputs": [
        {
          "internalType": "bool",
          "name": "",
          "type": "bool"
        }
      ],
      "stateMutability": "nonpayable",
      "type": "function"
    },
    {
      "inputs": [
        {
          "internalType": "uint256",
          "name": "",
          "type": "uint256"
        }
      ],
      "name": "projects",
      "outputs": [
        {
          "internalType": "uint256",
          "name": "projectSellDeposit",
          "type": "uint256"
        },
        {
          "internalType": "uint256",
          "name": "projectFundDeposit",
          "type": "uint256"
        },
        {
          "internalType": "uint256",
          "name": "projectActualSellDeposit",
          "type": "uint256"
        },
        {
          "internalType": "uint256",
          "name": "projectActualFundDeposit",
          "type": "uint256"
        },
        {
          "internalType": "uint256",
          "name": "projectWithdrawalAmount",
          "type": "uint256"
        },
        {
          "internalType": "address payable",
          "name": "sender",
          "type": "address"
        },
        {
          "internalType": "uint256",
          "name": "startTime",
          "type": "uint256"
        },
        {
          "internalType": "uint256",
          "name": "stopTime",
          "type": "uint256"
        },
        {
          "internalType": "address",
          "name": "projectSellTokenAddress",
          "type": "address"
        },
        {
          "internalType": "address",
          "name": "projectFundTokenAddress",
          "type": "address"
        },
        {
          "internalType": "uint256",
          "name": "lockPeriod",
          "type": "uint256"
        },
        {
          "internalType": "string",
          "name": "hash",
          "type": "string"
        },
        {
          "internalType": "uint8",
          "name": "refunded",
          "type": "uint8"
        }
      ],
      "stateMutability": "view",
      "type": "function"
    },
    {
      "inputs": [
        {
          "internalType": "uint256",
          "name": "_projectId",
          "type": "uint256"
        },
        {
          "internalType": "uint256",
          "name": "_answer",
          "type": "uint256"
        }
      ],
      "name": "receiveArbitrationAnswer",
      "outputs": [],
      "stateMutability": "nonpayable",
      "type": "function"
    },
    {
      "inputs": [
        {
          "internalType": "uint256",
          "name": "_projectId",
          "type": "uint256"
        }
      ],
      "name": "receiveArbitrationFailure",
      "outputs": [],
      "stateMutability": "nonpayable",
      "type": "function"
    },
    {
      "inputs": [
        {
          "internalType": "uint256",
          "name": "_projectId",
          "type": "uint256"
        }
      ],
      "name": "receiveCreateDisputeRequest",
      "outputs": [],
      "stateMutability": "nonpayable",
      "type": "function"
    },
    {
      "inputs": [
        {
          "internalType": "uint256",
          "name": "projectId",
          "type": "uint256"
        }
      ],
      "name": "reclaimFunds",
      "outputs": [],
      "stateMutability": "nonpayable",
      "type": "function"
    },
    {
      "inputs": [],
      "name": "renounceOwnership",
      "outputs": [],
      "stateMutability": "nonpayable",
      "type": "function"
    },
    {
      "inputs": [
        {
          "internalType": "uint256",
          "name": "",
          "type": "uint256"
        }
      ],
      "name": "streams",
      "outputs": [
        {
          "internalType": "uint256",
          "name": "projectId",
          "type": "uint256"
        },
        {
          "internalType": "uint256",
          "name": "investSellDeposit",
          "type": "uint256"
        },
        {
          "internalType": "uint256",
          "name": "investFundDeposit",
          "type": "uint256"
        },
        {
          "internalType": "uint256",
          "name": "ratePerSecondOfInvestSell",
          "type": "uint256"
        },
        {
          "internalType": "uint256",
          "name": "ratePerSecondOfInvestFund",
          "type": "uint256"
        },
        {
          "internalType": "uint256",
          "name": "startTime",
          "type": "uint256"
        },
        {
          "internalType": "uint256",
          "name": "stopTime",
          "type": "uint256"
        },
        {
          "internalType": "address",
          "name": "sender",
          "type": "address"
        },
        {
          "internalType": "uint256",
          "name": "investWithdrawalAmount",
          "type": "uint256"
        }
      ],
      "stateMutability": "view",
      "type": "function"
    },
    {
      "inputs": [
        {
          "internalType": "address",
          "name": "newOwner",
          "type": "address"
        }
      ],
      "name": "transferOwnership",
      "outputs": [],
      "stateMutability": "nonpayable",
      "type": "function"
    },
    {
      "inputs": [
        {
          "internalType": "uint256",
          "name": "streamId",
          "type": "uint256"
        },
        {
          "internalType": "uint256",
          "name": "amount",
          "type": "uint256"
        }
      ],
      "name": "withdrawFromInvest",
      "outputs": [
        {
          "internalType": "bool",
          "name": "",
          "type": "bool"
        }
      ],
      "stateMutability": "nonpayable",
      "type": "function"
    },
    {
      "inputs": [
        {
          "internalType": "uint256",
          "name": "projectId",
          "type": "uint256"
        },
        {
          "internalType": "uint256",
          "name": "amount",
          "type": "uint256"
        }
      ],
      "name": "withdrawFromProject",
      "outputs": [
        {
          "internalType": "bool",
          "name": "",
          "type": "bool"
        }
      ],
      "stateMutability": "nonpayable",
      "type": "function"
    }
  ],
  "transactionHash": "0x7718b5c4588f269705d924c2a58ca7be9b988c7b3e4228bacfa6274ab5da8e28",
  "args": [
    "0xCf73231F28B7331BBe3124B907840A94851f9f11",
    "0xbDeCa2E05D76259c1B82d60177e6E3282D45F6BA"
  ],
  "solcInputHash": "f561a2c3d232272222173a2f0be459d3",
  "bytecode": "0x60806040523480156200001157600080fd5b5060405162004283380380620042838339810160408190526200003491620000f9565b818162000041336200008c565b6001808055600280546001600160a01b039485166001600160a01b03199182161790915560038054939094169216919091179091556004819055600581905560065550620001319050565b600080546001600160a01b038381166001600160a01b0319831681178455604051919092169283917f8be0079c531659141344cd1fd0a4f28419497f9722a3daafe3b4186f6b6457e09190a35050565b80516001600160a01b0381168114620000f457600080fd5b919050565b600080604083850312156200010d57600080fd5b6200011883620000dc565b91506200012860208401620000dc565b90509250929050565b61414280620001416000396000f3fe608060405234801561001057600080fd5b506004361061021c5760003560e01c80639a7c4b7111610125578063dcfa8412116100ad578063f2f937111161007c578063f2f937111461068a578063f2fde38b146106ac578063f9f161a8146106bf578063fdc810fe146106d2578063fde71e271461070057600080fd5b8063dcfa841214610630578063df4b7fc214610643578063e935b7b114610656578063f0f3f2c81461065f57600080fd5b8063a63d6ec3116100f4578063a63d6ec314610580578063a82ccd4d146105a0578063b412ef09146105b3578063c26c4453146105c6578063d83aa7821461061d57600080fd5b80639a7c4b711461053e5780639c5fb089146105515780639f25c89a1461055a578063a0cc41cb1461056d57600080fd5b806364d60d91116101a8578063894e9a0d11610177578063894e9a0d146104955780638ae2760a146104f45780638d40bd03146105075780638da5cb5b1461051a57806397066f721461052b57600080fd5b806364d60d91146103a1578063715018a61461045257806375eeaf581461045a5780637f1e9cb01461048257600080fd5b80632bbee9eb116101ef5780632bbee9eb146102f25780633dee2f3714610315578063450d11f01461035057806354cf67a01461037b5780636146a07b1461038e57600080fd5b80630386ace714610221578063107046bd1461023657806310e3c97b1461026b5780631e99d569146102db575b600080fd5b61023461022f366004613abe565b61072f565b005b610249610244366004613abe565b610810565b6040516102629d9c9b9a99989796959493929190613b2f565b60405180910390f35b6102ae610279366004613abe565b600a60205260009081526040902080546001820154600283015460038401546004850154600590950154939492939192909186565b604080519687526020870195909552938501929092526060840152608083015260a082015260c001610262565b6102e460045481565b604051908152602001610262565b610305610300366004613bb6565b610914565b6040519015158152602001610262565b610328610323366004613abe565b610c6d565b604080519586526020860194909452928401919091526060830152608082015260a001610262565b600254610363906001600160a01b031681565b6040516001600160a01b039091168152602001610262565b610234610389366004613abe565b610ce3565b61023461039c366004613bb6565b610dc3565b6104056103af366004613abe565b60086020819052600091825260409091208054600182015460028301546003840154600485015460058601546006870154600788015497909801549597949693959294919390926001600160a01b039091169089565b60408051998a5260208a0198909852968801959095526060870193909352608086019190915260a085015260c08401526001600160a01b031660e083015261010082015261012001610262565b610234610e8d565b61046d610468366004613abe565b610ef3565b60408051928352602083019190915201610262565b600354610363906001600160a01b031681565b6104a86104a3366004613abe565b6110a2565b60408051998a5260208a0198909852968801959095526001600160a01b039093166060870152608086019190915260a085015260c084015260e083015261010082015261012001610262565b610305610502366004613abe565b611148565b6102e4610515366004613bb6565b61140c565b6000546001600160a01b0316610363565b6102e4610539366004613c3d565b611965565b61023461054c366004613cd5565b611e5d565b6102e460065481565b610234610568366004613abe565b611f08565b61023461057b366004613abe565b612002565b6102e461058e366004613abe565b600c6020526000908152604090205481565b6102e46105ae366004613abe565b6122a8565b6103056105c1366004613abe565b612374565b61060d6105d4366004613abe565b600b602052600090815260409020805460018201546002909201546001600160a01b039182169291821691600160a01b900460ff169084565b6040516102629493929190613d67565b61023461062b366004613abe565b612479565b61046d61063e366004613abe565b612551565b610305610651366004613bb6565b612693565b6102e460055481565b61067261066d366004613abe565b61299b565b6040516102629c9b9a99989796959493929190613d9b565b61069d610698366004613abe565b612be8565b60405161026293929190613e16565b6102346106ba366004613e35565b612c52565b6102346106cd366004613abe565b612d1d565b6106e56106e0366004613abe565b612f08565b60408051938452602084019290925290820152606001610262565b6106e561070e366004613abe565b60076020526000908152604090208054600182015460029092015490919083565b6000818152600b6020526040902060026001820154600160a01b900460ff16600581111561075f5761075f613d2f565b146107855760405162461bcd60e51b815260040161077c90613e50565b60405180910390fd5b60018101805460ff60a01b1916600160a21b1790556040805160248082018590528251808303909101815260449091019091526020810180516001600160e01b031663302c98cf60e11b908117909152906107df81612f68565b60405184907f1a8ae8ebbbcbee7b78e7b20141d783705810b169802305db13ff006098d07b9490600090a250505050565b600960208190526000918252604090912080546001820154600283015460038401546004850154600586015460068701546007880154600889015499890154600a8a0154600c8b0180549a9c999b989a979996986001600160a01b039687169895979496948516959390941693919261088890613e80565b80601f01602080910402602001604051908101604052809291908181526020018280546108b490613e80565b80156109015780601f106108d657610100808354040283529160200191610901565b820191906000526020600020905b8154815290600101906020018083116108e457829003601f168201915b505050600d909301549192505060ff168d565b6000600260015414156109395760405162461bcd60e51b815260040161077c90613ebb565b600260015560008381526009602052604090206005015483906001600160a01b03166109775760405162461bcd60e51b815260040161077c90613ef2565b60008481526009602052604090206005015484906001600160a01b031633146109d75760405162461bcd60e51b81526020600482015260126024820152712727aa2fa82927a522a1aa2fa9a2a72222a960711b604482015260640161077c565b60008411610a185760405162461bcd60e51b815260206004820152600e60248201526d414d4f554e545f49535f5a45524f60901b604482015260640161077c565b604051630ebdd5eb60e31b81526004810186905260009030906375eeaf5890602401604080518083038186803b158015610a5157600080fd5b505afa158015610a65573d6000803e3d6000fd5b505050506040513d601f19601f82011682018060405250810190610a899190613f1c565b91505084811015610ad55760405162461bcd60e51b8152602060048201526016602482015275109053105390d157d4d3505313115497d05353d5539560521b604482015260640161077c565b6000868152600b602090815260408083206009909252909120600282015415610b405760405162461bcd60e51b815260206004820152601760248201527f50524f4a4543545f4841535f4152424954524154494f4e000000000000000000604482015260640161077c565b6004810154610b4f9088612fa2565b6000898152600960208190526040918290206004908101939093558301546005840154915163a9059cbb60e01b81526001600160a01b0392831693810193909352602483018a9052169063a9059cbb90604401602060405180830381600087803b158015610bbc57600080fd5b505af1158015610bd0573d6000803e3d6000fd5b505050506040513d601f19601f82011682018060405250810190610bf49190613f40565b610c105760405162461bcd60e51b815260040161077c90613f62565b600581015460408051428152602081018a90526001600160a01b03909216918a917fbe6be2ff1a504b38ec8235cb9cc87795defa1897948fe39ce5f806aedd55d306910160405180910390a3505060018080559695505050505050565b600081815260096020526040812060050154819081908190819086906001600160a01b0316610cae5760405162461bcd60e51b815260040161077c90613ef2565b50505060009384525050600a602052506040902080546001820154600283015460038401546004909401549294919390929091565b333014610d025760405162461bcd60e51b815260040161077c90613f99565b6000818152600b6020526040902060046001820154600160a01b900460ff166005811115610d3257610d32613d2f565b14610d7f5760405162461bcd60e51b815260206004820152601a60248201527f496e76616c6964206172626974726174696f6e20737461747573000000000000604482015260640161077c565b60018101805460ff60a01b1916600160a01b17905560405182907f794bcf8358ec9066a41460c1fa506e1679707b1b1123e1ddc7f2fd601ff3c70490600090a25050565b333014610de25760405162461bcd60e51b815260040161077c90613f99565b6000828152600b6020526040902060046001820154600160a01b900460ff166005811115610e1257610e12613d2f565b14610e2f5760405162461bcd60e51b815260040161077c90613e50565b60018101805460ff60a01b1916600560a01b179055610e4e8383612fb5565b827f713fe6077d5e47c7d960247241ae00928ae885f317d79ad2bb0451745dc6712883604051610e8091815260200190565b60405180910390a2505050565b6000546001600160a01b03163314610ee75760405162461bcd60e51b815260206004820181905260248201527f4f776e61626c653a2063616c6c6572206973206e6f7420746865206f776e6572604482015260640161077c565b610ef16000613119565b565b600081815260096020526040812060050154819083906001600160a01b0316610f2e5760405162461bcd60e51b815260040161077c90613ef2565b6000848152600960209081526040808320600a835281842060079093529220600482015460011415610f67578154955060009450611099565b82600601544211610f82578260020154955060009450611099565b826007015442101561107457600283015415611067576000610fb184600601544261316990919063ffffffff16565b8254909150600090610fc4908390613175565b9050610fdd83600101548261316990919063ffffffff16565b9050610ff6836002015482612fa290919063ffffffff16565b60028601549091506110089082613169565b600386015490985061101a9089613175565b965061103385600201548861318190919063ffffffff16565b60038601549097506110459088613169565b965061105e85600401548861316990919063ffffffff16565b96505050611099565b6000955060009450611099565b600095508260030154945061109683600401548661316990919063ffffffff16565b94505b50505050915091565b600081815260086020526040812060070154819081908190819081908190819081908a906001600160a01b03166110eb5760405162461bcd60e51b815260040161077c90613fd0565b505050600097885250506008602081905260409096208054600182015460028301546007840154600585015460068601549b8601546003870154600490970154959d949c939b506001600160a01b03909216995097509095509350565b60006002600154141561116d5760405162461bcd60e51b815260040161077c90613ebb565b600260015560008281526009602052604090206005015482906001600160a01b03166111ab5760405162461bcd60e51b815260040161077c90613ef2565b60008381526009602052604090206005015483906001600160a01b0316331461120b5760405162461bcd60e51b81526020600482015260126024820152712727aa2fa82927a522a1aa2fa9a2a72222a960711b604482015260640161077c565b6000848152600960209081526040808320600a92839052922090820154600783015461123691612fa2565b4210156112855760405162461bcd60e51b815260206004820152601760248201527f4641494c5f52454143485f554e4c4f434b504552494f44000000000000000000604482015260640161077c565b600d82015460ff16156112cb5760405162461bcd60e51b815260206004820152600e60248201526d1053149150511657d4915195539160921b604482015260640161077c565b600282015482546000916112df9190613169565b82549091506000906112f2908390612fa2565b6000898152600960205260409020600d01805460ff19166001179055905080156113be576008840154600585015460405163a9059cbb60e01b81526001600160a01b0391821660048201526024810184905291169063a9059cbb90604401602060405180830381600087803b15801561136a57600080fd5b505af115801561137e573d6000803e3d6000fd5b505050506040513d601f19601f820116820180604052508101906113a29190613f40565b6113be5760405162461bcd60e51b815260040161077c90613f62565b877f9501aa812dcdd1b0e917d6e0f6fa6a0b5987575ef6237b9a65abf039d25a9bf0826040516113f091815260200190565b60405180910390a260019650505050505b505060018055919050565b6000828152600960209081526040808320600a8352818420825160c081018452858152938401859052918301849052606083018490526080830184905260a083018490529160058301546001600160a01b03163314156114a45760405162461bcd60e51b815260206004820152601360248201527214d15391115497d4d0535157d41493d29150d5606a1b604482015260640161077c565b600085116114f45760405162461bcd60e51b815260206004820152601960248201527f494e5645535453454c4c4445504f5349545f49535f5a45524f00000000000000604482015260640161077c565b8160020154421061153d5760405162461bcd60e51b81526020600482015260136024820152724e4f575f4249474745525f53544f5054494d4560681b604482015260640161077c565b600383015461154c9086612fa2565b6000878152600960205260409020600301819055600184015410156115b35760405162461bcd60e51b815260206004820152601960248201527f4558434545445f50524f4a45435446554e444445504f53495400000000000000604482015260640161077c565b825460008781526009602052604081206003015490916115d39190613175565b90506115ec84600101548261318190919063ffffffff16565b600088815260096020526040812060020191909155845461160e908890613175565b905061162785600101548261318190919063ffffffff16565b90508460060154421161167f57600685015460408401819052600786015461164e91613169565b60608401819052611660908890613181565b60808401526060830151611675908290613181565b60a084015261171c565b4260408401819052600786015461169591613169565b606084018190526116a7908890613181565b608084015260608301516116bc908290613181565b60a0840152600685015460408401516116d491613169565b80845260a08401516116e69190613175565b602080850182905260008a81526007909152604090206001015461170991612fa2565b6000898152600760205260409020600101555b60a083015160008981526007602052604090205461173991612fa2565b600089815260076020908152604080832093909355600a905220600301546117619088612fa2565b600a60008a815260200190815260200160002060030181905550600060045490506040518061012001604052808a8152602001898152602001838152602001856080015181526020018560a0015181526020018560400151815260200187600701548152602001336001600160a01b03168152602001600081525060086000838152602001908152602001600020600082015181600001556020820151816001015560408201518160020155606082015181600301556080820151816004015560a0820151816005015560c0820151816006015560e08201518160070160006101000a8154816001600160a01b0302191690836001600160a01b031602179055506101008201518160080155905050600454600161187f919061400f565b600490815560098701546040516323b872dd60e01b81523392810192909252306024830152604482018a90526001600160a01b0316906323b872dd90606401602060405180830381600087803b1580156118d857600080fd5b505af11580156118ec573d6000803e3d6000fd5b505050506040513d601f19601f820116820180604052508101906119109190613f40565b61192c5760405162461bcd60e51b815260040161077c90613f62565b604051339082907f4720a701f0450254c5640e94b2ca9b93d3ab02d1d863e73b8521a8eae3e31d5190600090a398975050505050505050565b6000876001600160a01b03168a6001600160a01b031614156119c95760405162461bcd60e51b815260206004820152601860248201527f53454c4c544f4b454e5f53414d455f46554e44544f4b454e0000000000000000604482015260640161077c565b60008911611a195760405162461bcd60e51b815260206004820152601a60248201527f50524f4a45435453454c4c4445504f5349545f49535f5a45524f000000000000604482015260640161077c565b60008711611a695760405162461bcd60e51b815260206004820152601a60248201527f50454f4a45435446554e444445504f5349545f49535f5a45524f000000000000604482015260640161077c565b42861015611ab05760405162461bcd60e51b8152602060048201526014602482015273535441525454494d455f4245464f52455f4e4f5760601b604482015260640161077c565b858511611aff5760405162461bcd60e51b815260206004820152601960248201527f53544f5054494d455f4245464f52455f535441525454494d4500000000000000604482015260640161077c565b60008411611b445760405162461bcd60e51b81526020600482015260126024820152714c4f434b504552494f445f49535f5a45524f60701b604482015260640161077c565b60006005549050604051806101c001604052808b8152602001898152602001600081526020016000815260200160008152602001336001600160a01b031681526020018881526020018781526020018c6001600160a01b031681526020018a6001600160a01b03168152602001868152602001600067ffffffffffffffff811115611bd157611bd1614027565b604051908082528060200260200182016040528015611bfa578160200160208202803683370190505b50815260200185858080601f01602080910402602001604051908101604052809392919081815260200183838082843760009201829052509385525050506020918201819052838152600980835260409182902084518155848401516001820155918401516002830155606084015160038301556080840151600483015560a08401516005830180546001600160a01b039283166001600160a01b03199182161790915560c0860151600685015560e086015160078501556101008601516008850180549184169183169190911790556101208601519284018054939092169216919091179055610140830151600a82015561016083015180519192611d0892600b850192909101906139eb565b506101808201518051611d2591600c840191602090910190613a36565b506101a09190910151600d909101805460ff191660ff9092169190911790556000818152600a60205260409020600201869055600554611d6690600161400f565b6005556040516323b872dd60e01b8152336004820152306024820152604481018b90526001600160a01b038c16906323b872dd90606401602060405180830381600087803b158015611db757600080fd5b505af1158015611dcb573d6000803e3d6000fd5b505050506040513d601f19601f82011682018060405250810190611def9190613f40565b611e0b5760405162461bcd60e51b815260040161077c90613f62565b336001600160a01b0316817f2e14b5f49842849ff704ede859ecb6323c5b90e76d6135b627eb0c1a580b5a6f8686604051611e4792919061403d565b60405180910390a39a9950505050505050505050565b6002546001600160a01b03163314611ec15760405162461bcd60e51b815260206004820152602160248201527f4678426173654368696c6454756e6e656c3a20494e56414c49445f53454e44456044820152602960f91b606482015260840161077c565b611f02848484848080601f01602080910402602001604051908101604052809392919081815260200183838082843760009201919091525061318d92505050565b50505050565b333014611f275760405162461bcd60e51b815260040161077c90613f99565b6000818152600b60205260409020600180820154600160a01b900460ff166005811115611f5657611f56613d2f565b148015611f75575062015180816002015442611f72919061406c565b11155b15611fbe5760018101805460ff60a01b1916600160a11b17905560405182907f3e656638c321b7f315f9cd0ebbfbbb108d6d8fbad72ae54b16a2c1ac2dc1de0e90600090a25050565b60018101805460ff60a01b1916600360a01b17905560405182907f1fdac08e93f72ff55b24ebdf4152b7f56b98982fe9249639c1010cc52aebccd690600090a25050565b60008181526009602052604090206005015481906001600160a01b031661203b5760405162461bcd60e51b815260040161077c90613ef2565b6000828152600960209081526040808320600a8352818420600b909352922060020154156120ab5760405162461bcd60e51b815260206004820152601860248201527f414c52454144595f484156455f4152424954524154494f4e0000000000000000604482015260640161077c565b81600601544210156120f35760405162461bcd60e51b8152602060048201526011602482015270141493d29150d517d393d517d4d5105495607a1b604482015260640161077c565b8060020154421061213c5760405162461bcd60e51b8152602060048201526013602482015272141493d29150d517d254d7d192539254d21151606a1b604482015260640161077c565b600581015461214e906201518061400f565b4210156121925760405162461bcd60e51b81526020600482015260126024820152714e4f545f4152524956455f3234484f55525360701b604482015260640161077c565b6040805160808101825233815260058401546001600160a01b0316602082015290810160018152426020918201526000868152600b8252604090819020835181546001600160a01b03199081166001600160a01b0392831617835593850151600183018054958616919092169081178255928501519193919290916001600160a81b03191617600160a01b83600581111561222f5761222f613d2f565b0217905550606091909101516002909101556000848152600a60209081526040918290204260059182018190559085015483516001600160a01b03909116815291820152339186917f47c87b47ced1a01f1e77cd50b8c4ff145a79955ce5fbf025d96f6195c6ef4daa910160405180910390a350505050565b600081815260086020908152604080832080548452600a9092528220600481015460011461231c57816005015442116122e5575060009392505050565b8160060154421015612308576005820154612300904261406c565b949350505050565b81600501548260060154612300919061406c565b80600401546001141561236d578160050154421161233e575060009392505050565b8060020154421015612359576005820154612300904261406c565b81600501548160020154612300919061406c565b5050919050565b6000600260015414156123995760405162461bcd60e51b815260040161077c90613ebb565b600260015560008281526008602052604090206007015482906001600160a01b03166123d75760405162461bcd60e51b815260040161077c90613fd0565b60008381526008602052604090206007015483906001600160a01b031633146124365760405162461bcd60e51b81526020600482015260116024820152702727aa2fa4a72b22a9aa2fa9a2a72222a960791b604482015260640161077c565b6000848152600860209081526040808320548352600a9091529020600481015460011461247057612466856132ad565b6001935050611401565b612466856136f7565b6000818152600b6020526040902060036001820154600160a01b900460ff1660058111156124a9576124a9613d2f565b146124c65760405162461bcd60e51b815260040161077c90613e50565b60018101805460ff60a01b1916600160a01b1790556040805160248082018590528251808303909101815260449091019091526020810180516001600160e01b03166348a5b2b360e01b9081179091529061252081612f68565b60405184907f6187bf55f2675dbecee951f81c92ecac87f54ed5bf888d31b09e634749b848ef90600090a250505050565b600081815260086020526040812060070154819083906001600160a01b031661258c5760405162461bcd60e51b815260040161077c90613fd0565b6000848152600860209081526040808320805484526009909252808320905163a82ccd4d60e01b81526004810188905291929091309063a82ccd4d9060240160206040518083038186803b1580156125e357600080fd5b505afa1580156125f7573d6000803e3d6000fd5b505050506040513d601f19601f8201168201806040525081019061261b9190614083565b905082600401548161262d919061409c565b94508160070154421061264257826002015494505b6008830154612652908690613169565b9450826003015481612664919061409c565b95508160070154421061267957826001015495505b60018301546126889087613169565b955050505050915091565b6000600260015414156126b85760405162461bcd60e51b815260040161077c90613ebb565b600260015560008381526008602052604090206007015483906001600160a01b03166126f65760405162461bcd60e51b815260040161077c90613fd0565b60008481526008602052604090206007015484906001600160a01b031633146127555760405162461bcd60e51b81526020600482015260116024820152702727aa2fa4a72b22a9aa2fa9a2a72222a960791b604482015260640161077c565b600084116127965760405162461bcd60e51b815260206004820152600e60248201526d414d4f554e545f49535f5a45524f60901b604482015260640161077c565b604051636e7d420960e11b815260048101869052600090309063dcfa841290602401604080518083038186803b1580156127cf57600080fd5b505afa1580156127e3573d6000803e3d6000fd5b505050506040513d601f19601f820116820180604052508101906128079190613f1c565b915050848110156128535760405162461bcd60e51b8152602060048201526016602482015275109053105390d157d4d3505313115497d05353d5539560521b604482015260640161077c565b60008681526008602081815260408084208054855260099092529092209082015461287e9088612fa2565b600089815260086020819052604091829020810192909255908201546007840154915163a9059cbb60e01b81526001600160a01b039283166004820152602481018a905291169063a9059cbb90604401602060405180830381600087803b1580156128e857600080fd5b505af11580156128fc573d6000803e3d6000fd5b505050506040513d601f19601f820116820180604052508101906129209190613f40565b61293c5760405162461bcd60e51b815260040161077c90613f62565b6007820154825460408051428152602081018b90526001600160a01b03909316928b917f255bf8e93b9d58a438629764a7d5b38c32a946d5e9cd28189346d2b9d5d1741c910160405180910390a4505060018080559695505050505050565b60008181526009602052604081206005015481908190819081908190819081908190819081906060908d906001600160a01b03166129eb5760405162461bcd60e51b815260040161077c90613ef2565b600960008f8152602001908152602001600020600001549c50600960008f8152602001908152602001600020600101549b50600960008f8152602001908152602001600020600201549a50600960008f8152602001908152602001600020600301549950600960008f8152602001908152602001600020600401549850600960008f815260200190815260200160002060050160009054906101000a90046001600160a01b03169750600960008f8152602001908152602001600020600601549650600960008f8152602001908152602001600020600701549550600960008f815260200190815260200160002060080160009054906101000a90046001600160a01b03169450600960008f815260200190815260200160002060090160009054906101000a90046001600160a01b03169350600960008f8152602001908152602001600020600a01549250600960008f8152602001908152602001600020600c018054612b5890613e80565b80601f0160208091040260200160405190810160405280929190818152602001828054612b8490613e80565b8015612bd15780601f10612ba657610100808354040283529160200191612bd1565b820191906000526020600020905b815481529060010190602001808311612bb457829003601f168201915b505050505091505091939597999b5091939597999b565b6000818152600960205260408120600501548190819084906001600160a01b0316612c255760405162461bcd60e51b815260040161077c90613ef2565b50506000928352600b60205260409092206001810154600290910154600160a01b90910460ff1693909150565b6000546001600160a01b03163314612cac5760405162461bcd60e51b815260206004820181905260248201527f4f776e61626c653a2063616c6c6572206973206e6f7420746865206f776e6572604482015260640161077c565b6001600160a01b038116612d115760405162461bcd60e51b815260206004820152602660248201527f4f776e61626c653a206e6577206f776e657220697320746865207a65726f206160448201526564647265737360d01b606482015260840161077c565b612d1a81613119565b50565b60026001541415612d405760405162461bcd60e51b815260040161077c90613ebb565b600260019081556000828152600b60205260409020906001820154600160a01b900460ff166005811115612d7657612d76613d2f565b14612dba5760405162461bcd60e51b815260206004820152601460248201527314d510551554d7d393d517d49150d3105253515160621b604482015260640161077c565b62015180816002015442612dce919061406c565b11612e1b5760405162461bcd60e51b815260206004820152601b60248201527f4e4f545f4152524956414c5f5245434c41494d4544504552494f440000000000604482015260640161077c565b604051630ebdd5eb60e31b815260048101839052600090819030906375eeaf5890602401604080518083038186803b158015612e5657600080fd5b505afa158015612e6a573d6000803e3d6000fd5b505050506040513d601f19601f82011682018060405250810190612e8e9190613f1c565b6000868152600a60205260409020828155600181018290556002015491935091504211612ecb576000848152600a60205260409020426002909101555b5050506000908152600a6020908152604080832060016004909101819055600b9092529091208101805460ff60a01b1916600560a01b1790558055565b6000818152600960205260408120600501548190819084906001600160a01b0316612f455760405162461bcd60e51b815260040161077c90613ef2565b505050600091825250600760205260409020805460018201546002909201549092565b7f8c5261668696ce22758910d05bab8f186d6eb247ceac2af2e82c7dc17669b03681604051612f9791906140bb565b60405180910390a150565b6000612fae828461400f565b9392505050565b6000828152600a60205260409020600182141561308b57604051630ebdd5eb60e31b815260048101849052600090819030906375eeaf5890602401604080518083038186803b15801561300757600080fd5b505afa15801561301b573d6000803e3d6000fd5b505050506040513d601f19601f8201168201806040525081019061303f9190613f1c565b6000878152600a602052604090208281556001808201839055600490910155600285015491935091504211613084576000858152600a60205260409020426002909101555b5050505050565b81600214156130dc5750506000908152600a6020908152604080832060026004909101819055600b909252822080546001600160a01b03191681556001810180546001600160a81b03191690550155565b81613114576000838152600b6020526040812080546001600160a01b03191681556001810180546001600160a81b0319169055600201555b505050565b600080546001600160a01b038381166001600160a01b0319831681178455604051919092169283917f8be0079c531659141344cd1fd0a4f28419497f9722a3daafe3b4186f6b6457e09190a35050565b6000612fae828461406c565b6000612fae828461409c565b6000612fae82846140ce565b60035482906001600160a01b038083169116146132005760405162461bcd60e51b815260206004820152602b60248201527f4678426173654368696c6454756e6e656c3a20494e56414c49445f53454e444560448201526a1497d19493d357d493d3d560aa1b606482015260840161077c565b6000306001600160a01b03168360405161321a91906140f0565b6000604051808303816000865af19150503d8060008114613257576040519150601f19603f3d011682016040523d82523d6000602084013e61325c565b606091505b50509050806130845760405162461bcd60e51b815260206004820152601760248201527f4661696c656420746f2063616c6c20636f6e7472616374000000000000000000604482015260640161077c565b60008181526008602090815260408083208054845260099092528083209051636e7d420960e11b815260048101859052919290918190309063dcfa841290602401604080518083038186803b15801561330557600080fd5b505afa158015613319573d6000803e3d6000fd5b505050506040513d601f19601f8201168201806040525081019061333d9190613f1c565b600385015491935091506133519083613169565b84546000908152600960205260408082206003908101939093558554875483529082209092015490916133849190613175565b905061339d84600101548261318190919063ffffffff16565b8554600090815260096020908152604080832060020193909355600188015488548352600a909152919020600301546133d591613169565b85546000908152600a602090815260408083206003019390935560048801548854835260079091529190205461340a91613169565b855460009081526007602052604090205560068401546005860154111561349b5760006134488560060154876005015461316990919063ffffffff16565b9050600061346387600401548361317590919063ffffffff16565b87546000908152600760205260409020600101549091506134849082613169565b875460009081526007602052604090206001015550505b60006134b4866008015484612fa290919063ffffffff16565b86546000908152600760205260409020600201549091506134d59082612fa2565b86546000908152600760205260409020600201558315613597576009850154600787015460405163a9059cbb60e01b81526001600160a01b0391821660048201526024810187905291169063a9059cbb90604401602060405180830381600087803b15801561354357600080fd5b505af1158015613557573d6000803e3d6000fd5b505050506040513d601f19601f8201168201806040525081019061357b9190613f40565b6135975760405162461bcd60e51b815260040161077c90613f62565b8215613645576008850154600787015460405163a9059cbb60e01b81526001600160a01b0391821660048201526024810186905291169063a9059cbb90604401602060405180830381600087803b1580156135f157600080fd5b505af1158015613605573d6000803e3d6000fd5b505050506040513d601f19601f820116820180604052508101906136299190613f40565b6136455760405162461bcd60e51b815260040161077c90613f62565b6000878152600860208181526040808420848155600181018590556002810185905560038101859055600481018590556005810185905560068101859055600780820180546001600160a01b0319169055930193909355908801548854835188815292830187905242938301939093526001600160a01b03169189917fb9734b0a106e4fa9a57103da81f9b710354ab9383bb08a770ed5fe9f9dce411a9060600160405180910390a450505050505050565b60008181526008602090815260408083208054845260098352818420600a909352908320600180830154908201549294919261373291613175565b905061374b82600301548261318190919063ffffffff16565b604051636e7d420960e11b8152600481018790529091506000908190309063dcfa841290602401604080518083038186803b15801561378957600080fd5b505afa15801561379d573d6000803e3d6000fd5b505050506040513d601f19601f820116820180604052508101906137c19190613f1c565b90925090506137d08383612fa2565b91508115613880576009850154600787015460405163a9059cbb60e01b81526001600160a01b0391821660048201526024810185905291169063a9059cbb90604401602060405180830381600087803b15801561382c57600080fd5b505af1158015613840573d6000803e3d6000fd5b505050506040513d601f19601f820116820180604052508101906138649190613f40565b6138805760405162461bcd60e51b815260040161077c90613f62565b801561392e576008850154600787015460405163a9059cbb60e01b81526001600160a01b0391821660048201526024810184905291169063a9059cbb90604401602060405180830381600087803b1580156138da57600080fd5b505af11580156138ee573d6000803e3d6000fd5b505050506040513d601f19601f820116820180604052508101906139129190613f40565b61392e5760405162461bcd60e51b815260040161077c90613f62565b6000878152600860208181526040808420848155600181018590556002810185905560038101859055600481018590556005810185905560068101859055600780820180546001600160a01b031916905593019390935588549189015483516001600160a01b0390911681529081018590529182018390526060820185905242608083015288917f58d95ddedb75db12e4efe9a99cef155aa5f8ab4065d8fd91680c6a300cb343e69060a00160405180910390a350505050505050565b828054828255906000526020600020908101928215613a26579160200282015b82811115613a26578251825591602001919060010190613a0b565b50613a32929150613aa9565b5090565b828054613a4290613e80565b90600052602060002090601f016020900481019282613a645760008555613a26565b82601f10613a7d57805160ff1916838001178555613a26565b82800160010185558215613a265791820182811115613a26578251825591602001919060010190613a0b565b5b80821115613a325760008155600101613aaa565b600060208284031215613ad057600080fd5b5035919050565b60005b83811015613af2578181015183820152602001613ada565b83811115611f025750506000910152565b60008151808452613b1b816020860160208601613ad7565b601f01601f19169290920160200192915050565b60006101a08f83528e60208401528d60408401528c60608401528b608084015260018060a01b03808c1660a08501528a60c08501528960e0850152808916610100850152808816610120850152508561014084015280610160840152613b9781840186613b03565b91505060ff83166101808301529e9d5050505050505050505050505050565b60008060408385031215613bc957600080fd5b50508035926020909101359150565b80356001600160a01b0381168114613bef57600080fd5b919050565b60008083601f840112613c0657600080fd5b50813567ffffffffffffffff811115613c1e57600080fd5b602083019150836020828501011115613c3657600080fd5b9250929050565b60008060008060008060008060006101008a8c031215613c5c57600080fd5b613c658a613bd8565b985060208a01359750613c7a60408b01613bd8565b965060608a0135955060808a0135945060a08a0135935060c08a0135925060e08a013567ffffffffffffffff811115613cb257600080fd5b613cbe8c828d01613bf4565b915080935050809150509295985092959850929598565b60008060008060608587031215613ceb57600080fd5b84359350613cfb60208601613bd8565b9250604085013567ffffffffffffffff811115613d1757600080fd5b613d2387828801613bf4565b95989497509550505050565b634e487b7160e01b600052602160045260246000fd5b60068110613d6357634e487b7160e01b600052602160045260246000fd5b9052565b6001600160a01b0385811682528416602082015260808101613d8c6040830185613d45565b82606083015295945050505050565b60006101808e83528d60208401528c60408401528b60608401528a608084015260018060a01b03808b1660a08501528960c08501528860e0850152808816610100850152808716610120850152508461014084015280610160840152613e0381840185613b03565b9f9e505050505050505050505050505050565b60608101613e248286613d45565b602082019390935260400152919050565b600060208284031215613e4757600080fd5b612fae82613bd8565b602080825260169082015275496e76616c696420726571756573742073746174757360501b604082015260600190565b600181811c90821680613e9457607f821691505b60208210811415613eb557634e487b7160e01b600052602260045260246000fd5b50919050565b6020808252601f908201527f5265656e7472616e637947756172643a207265656e7472616e742063616c6c00604082015260600190565b60208082526010908201526f141493d29150d517d393d517d156125560821b604082015260600190565b60008060408385031215613f2f57600080fd5b505080516020909101519092909150565b600060208284031215613f5257600080fd5b81518015158114612fae57600080fd5b60208082526017908201527f544f4b454e5f545245414e534645525f4641494c555245000000000000000000604082015260600190565b6020808252601d908201527f43616e206f6e6c792062652063616c6c65642076696120627269646765000000604082015260600190565b6020808252600f908201526e14d51491505357d393d517d1561255608a1b604082015260600190565b634e487b7160e01b600052601160045260246000fd5b6000821982111561402257614022613ff9565b500190565b634e487b7160e01b600052604160045260246000fd5b60208152816020820152818360408301376000818301604090810191909152601f909201601f19160101919050565b60008282101561407e5761407e613ff9565b500390565b60006020828403121561409557600080fd5b5051919050565b60008160001904831182151516156140b6576140b6613ff9565b500290565b602081526000612fae6020830184613b03565b6000826140eb57634e487b7160e01b600052601260045260246000fd5b500490565b60008251614102818460208701613ad7565b919091019291505056fea2646970667358221220ad733874c1e5280bfbc7e05ba44e8ea7621dd6d73b1cb10150268bce4db132ea64736f6c63430008090033",
  "devdoc": {
    "kind": "dev",
    "methods": {
      "cancelInvest(uint256)": {
        "details": "Throws if the id does not point to a valid stream.  Throws if caller is not the sender of the invest stream.  Throws if there is a token transfer failure.",
        "params": {
          "streamId": "The id of the invest stream to cancel."
        },
        "returns": {
          "_0": "bool true=success, otherwise false."
        }
      },
      "createArbitrationForInvestor(uint256)": {
        "params": {
          "projectId": "The id of the project to create arbitration."
        }
      },
      "createProject(address,uint256,address,uint256,uint256,uint256,uint256,string)": {
        "params": {
          "hash": "The ipfs hash for project info and promise submitted by the Project Party.",
          "lockPeriod": "The amount of lockPeriod and the uint is seconds.",
          "projectFundDeposit": "The amount of project fund.",
          "projectFundTokenAddress": "The address of project fund.",
          "projectSellDeposit": "The amount of project sell.",
          "projectSellTokenAddress": "The address of project sell.",
          "startTime": "The unix timestamp for when the stream starts.",
          "stopTime": "The unix timestamp for when the stream stops."
        },
        "returns": {
          "_0": "The uint256 id of the project stream."
        }
      },
      "createStream(uint256,uint256)": {
        "params": {
          "investSellDeposit": "The amount of money to be invested.",
          "projectId": "The id of the project stream for investors create."
        },
        "returns": {
          "_0": "The uint256 id of the newly created invest stream."
        }
      },
      "deltaOf(uint256)": {
        "details": "Throws if the id does not point to a valid stream.",
        "params": {
          "streamId": "The id of the stream for which to query the delta."
        },
        "returns": {
          "delta": "is time delta in seconds."
        }
      },
      "getCancelProjectForInvest(uint256)": {
        "details": "Throws if the project id does not point to a valid project stream.",
        "params": {
          "projectId": "The id of the project stream for get CancelProjectForInvest info."
        }
      },
      "getProject(uint256)": {
        "details": "Throws if the project id does not point to a valid project stream.",
        "params": {
          "projectId": "The id of the project stream for getProject info."
        }
      },
      "getStream(uint256)": {
        "details": "Throws if the stream id does not point to a valid invest stream.",
        "params": {
          "streamId": "The id of the invest stream for get stream info."
        }
      },
      "handleReceivedRequest(uint256)": {
        "details": "This method exists because `receiveArbitrationRequest` is called by the Polygon Bridge and cannot send messages back to it.",
        "params": {
          "_projectId": "The ID of the project."
        }
      },
      "handleRejectedRequest(uint256)": {
        "details": "This method exists because `receiveArbitrationRequest` is called by the Polygon Bridge and cannot send messages back to it.",
        "params": {
          "_projectId": "The ID of the project."
        }
      },
      "investBalanceOf(uint256)": {
        "details": "Throws if the id does not point to a valid stream.",
        "params": {
          "streamId": "The id of the invest stream for balance."
        },
        "returns": {
          "investFundBalance": "is  stream balance for invest FundToken.",
          "investSellBalance": "is stream balance for invest SellToken."
        }
      },
      "owner()": {
        "details": "Returns the address of the current owner."
      },
      "projectBalanceOf(uint256)": {
        "details": "Throws if the project id does not point to a valid project stream.",
        "params": {
          "projectId": "The id of the project stream for which to query the balance."
        },
        "returns": {
          "projectFundBalance": "is stream balance for project FundToken.",
          "projectSellBalance": "is stream balance for project SellToken."
        }
      },
      "projectRefunds(uint256)": {
        "details": "Throws if the project id does not point to a valid project stream. Throws if the caller is not the sender of the project stream Throws if now time smaller than project stopTime.",
        "params": {
          "projectId": "The id of the project stream for refunds."
        },
        "returns": {
          "_0": "bool true=success, otherwise false."
        }
      },
      "receiveArbitrationAnswer(uint256,uint256)": {
        "params": {
          "_answer": "The answer from the arbitrator.",
          "_projectId": "The ID of the project."
        }
      },
      "receiveArbitrationFailure(uint256)": {
        "details": "Currently this can happen only if the arbitration cost increased.",
        "params": {
          "_projectId": "The ID of the question."
        }
      },
      "receiveCreateDisputeRequest(uint256)": {
        "details": "Throws if the arbitration id does not point to a valid project.  Throws if the arbitration.status is not Reclaimed.  Throws if the now exceeds arbitration.reclaimedAt + 86400(reclaimed time).",
        "params": {
          "_projectId": "The id of the project arbitration for which to query the delta."
        }
      },
      "reclaimFunds(uint256)": {
        "details": "Throws if the arbitration id does not point to a valid project.  Throws if the arbitrations[projectId].status is not Reclaimed.  Throws if the caller is not arbitration.invest.  Throws if the now not exceeds arbitration.reclaimedAt + 86400(reclaimed time).",
        "params": {
          "projectId": "The id of the project arbitration for which to query the delta."
        }
      },
      "renounceOwnership()": {
        "details": "Leaves the contract without owner. It will not be possible to call `onlyOwner` functions anymore. Can only be called by the current owner. NOTE: Renouncing ownership will leave the contract without an owner, thereby removing any functionality that is only available to the owner."
      },
      "transferOwnership(address)": {
        "details": "Transfers ownership of the contract to a new account (`newOwner`). Can only be called by the current owner."
      },
      "withdrawFromInvest(uint256,uint256)": {
        "details": "Throws if the id does not point to a valid stream.  Throws if caller is not invest.  Throws if the amount exceeds the available balance.  Throws if there is a token transfer failure.",
        "params": {
          "amount": "The amount of tokens to withdraw.",
          "streamId": "The id of the stream to withdraw tokens from."
        },
        "returns": {
          "_0": "bool true=success, otherwise false."
        }
      },
      "withdrawFromProject(uint256,uint256)": {
        "details": "Throws if the id does not point to a valid stream.  Throws if caller is not project.  Throws if the amount exceeds the available balance.  Throws if there is a token transfer failure.",
        "params": {
          "amount": "The amount of tokens to withdraw.",
          "projectId": "The id of the project to withdraw tokens from."
        },
        "returns": {
          "_0": "bool true=success, otherwise false."
        }
      }
    },
    "version": 1
  },
  "userdoc": {
    "events": {
      "ArbitrationFailed(uint256)": {
        "notice": "To be emitted when the dispute could not be created on the Foreign Chain."
      },
      "ArbitratorAnswered(uint256,uint256)": {
        "notice": "To be emitted when receiving the answer from the arbitrator."
      },
      "RequestAcknowledged(uint256)": {
        "notice": "To be emitted when the arbitration request acknowledgement is sent to the Foreign Chain."
      },
      "RequestCanceled(uint256)": {
        "notice": "To be emitted when the arbitration request is canceled."
      },
      "RequestReceived(uint256)": {
        "notice": "To be emitted when the Realitio contract has been notified of an arbitration request."
      },
      "RequestRejected(uint256)": {
        "notice": "To be emitted when arbitration request is rejected."
      }
    },
    "kind": "user",
    "methods": {
      "arbitrations(uint256)": {
        "notice": "The arbitration objects identifiable by their unsigned integer ids."
      },
      "calProjectBalances(uint256)": {
        "notice": "Calculation project balance."
      },
      "cancelInvest(uint256)": {
        "notice": "Cancels the invest stream and transfers the tokens back to invest."
      },
      "cancelProjectForInvests(uint256)": {
        "notice": "State changed when the invest cancel streams, The Status identifiable by their unsigned integer ids."
      },
      "createArbitrationForInvestor(uint256)": {
        "notice": "invest create arbitration with project."
      },
      "createProject(address,uint256,address,uint256,uint256,uint256,uint256,string)": {
        "notice": "Creates a new project stream for sell xDAI to fund DAI.  Throws if the projectSellTokenAddress is same the projectFundTokenAddress.  Throws if the projectSellDeposit is 0.  Throws if the projectFundDeposit is 0.  Throws if the start time is before `block.timestamp`.  Throws if the stop time is before the start time.  Throws if the lockPeriod is 0.  Throws if the duration calculation has a math error.  Throws if the projectSellDeposit is not multiple of time delta.  Throws if the projectFundDeposit is not multiple of time delta.  Throws if the projectId calculation has a math error.  Throws if the contract is not allowed to transfer enough tokens.  Throws if there is a token transfer failure."
      },
      "createStream(uint256,uint256)": {
        "notice": "Creates a new stream for invest project by investors;.  Throws if the caller is project.  Throws if the investSellDeposit is 0.  Throws if the now is before project start time.  Throws if the investSellDeposit is not a multiple of the duration.  Throws if the projectActualFundDeposit calculation has a math error.  Throws if the projectActualSellDeposit calculation has a math error.  Throws if the ratePerSecondOfProjectSell calculation has a math error.  Throws if the ratePerSecondOfProjectFund calculation has a math error.  Throws if the investFundDeposit calculation has a math error.  Throws if the ratePerSecondOfInvestSell calculation has a math error.  Throws if the ratePerSecondOfInvestFund calculation has a math error.  Throws if the contract is not allowed to transfer enough tokens.  Throws if there is a token transfer failure.  Throws if the projectFundDeposit is smaller than projectActualFundDeposit."
      },
      "deltaOf(uint256)": {
        "notice": "Returns either the delta in seconds between `block.timestamp` and `startTime` or  between `exitStopTime` and `startTime, whichever is smaller. If `block.timestamp` iis starts before  `startTime`, it returns 0."
      },
      "disputeIDtoArbitrationID(uint256)": {
        "notice": "The disputeID identifiable by their unsigned integer ids."
      },
      "getCancelProjectForInvest(uint256)": {
        "notice": "Returns the project with all its properties."
      },
      "getProject(uint256)": {
        "notice": "Returns the project with all its properties."
      },
      "getStream(uint256)": {
        "notice": "Returns the stream with all its properties."
      },
      "handleReceivedRequest(uint256)": {
        "notice": "Handles arbitration request after it has been received and validated."
      },
      "handleRejectedRequest(uint256)": {
        "notice": "Handles arbitration request after it has been rejected."
      },
      "investBalanceOf(uint256)": {
        "notice": "Returns the sellToken balance and fundToken balance for invest."
      },
      "nextEvidenceGroup()": {
        "notice": "Counter for EvidenceGroup ids."
      },
      "nextProjectId()": {
        "notice": "Counter for project stream ids."
      },
      "nextStreamId()": {
        "notice": "Counter for invest stream ids."
      },
      "projectBalanceOf(uint256)": {
        "notice": "Returns the sellToken balance and fundToken balance for project."
      },
      "projectRefunds(uint256)": {
        "notice": "Project refund sellToken for Unsold and must exceed project stopTime + lock period!"
      },
      "projects(uint256)": {
        "notice": "The project stream objects identifiable by their unsigned integer ids."
      },
      "receiveArbitrationAnswer(uint256,uint256)": {
        "notice": "Receives the answer to a specified question. TRUSTED."
      },
      "receiveArbitrationFailure(uint256)": {
        "notice": "Receives a failed attempt to request arbitration. TRUSTED."
      },
      "receiveCreateDisputeRequest(uint256)": {
        "notice": "project pay arbitration fee."
      },
      "reclaimFunds(uint256)": {
        "notice": "investor reclaim funds when project not pay arbitration fee."
      },
      "streams(uint256)": {
        "notice": "The invest stream objects identifiable by their unsigned integer ids."
      },
      "withdrawFromInvest(uint256,uint256)": {
        "notice": "Withdraws from the contract to the investor's account."
      },
      "withdrawFromProject(uint256,uint256)": {
        "notice": "Withdraws from the contract to the Project's account."
      }
    },
    "version": 1
  },
  "storageLayout": {
    "storage": [
      {
        "astId": 162,
        "contract": "src/DAISO.sol:DAISO",
        "label": "_owner",
        "offset": 0,
        "slot": "0",
        "type": "t_address"
      },
      {
        "astId": 269,
        "contract": "src/DAISO.sol:DAISO",
        "label": "_status",
        "offset": 0,
        "slot": "1",
        "type": "t_uint256"
      },
      {
        "astId": 3689,
        "contract": "src/DAISO.sol:DAISO",
        "label": "fxChild",
        "offset": 0,
        "slot": "2",
        "type": "t_address"
      },
      {
        "astId": 3691,
        "contract": "src/DAISO.sol:DAISO",
        "label": "fxRootTunnel",
        "offset": 0,
        "slot": "3",
        "type": "t_address"
      },
      {
        "astId": 871,
        "contract": "src/DAISO.sol:DAISO",
        "label": "nextStreamId",
        "offset": 0,
        "slot": "4",
        "type": "t_uint256"
      },
      {
        "astId": 874,
        "contract": "src/DAISO.sol:DAISO",
        "label": "nextProjectId",
        "offset": 0,
        "slot": "5",
        "type": "t_uint256"
      },
      {
        "astId": 877,
        "contract": "src/DAISO.sol:DAISO",
        "label": "nextEvidenceGroup",
        "offset": 0,
        "slot": "6",
        "type": "t_uint256"
      },
      {
        "astId": 883,
        "contract": "src/DAISO.sol:DAISO",
        "label": "calProjectBalances",
        "offset": 0,
        "slot": "7",
        "type": "t_mapping(t_uint256,t_struct(CalProjectBalance)3667_storage)"
      },
      {
        "astId": 889,
        "contract": "src/DAISO.sol:DAISO",
        "label": "streams",
        "offset": 0,
        "slot": "8",
        "type": "t_mapping(t_uint256,t_struct(Stream)3626_storage)"
      },
      {
        "astId": 895,
        "contract": "src/DAISO.sol:DAISO",
        "label": "projects",
        "offset": 0,
        "slot": "9",
        "type": "t_mapping(t_uint256,t_struct(Project)3607_storage)"
      },
      {
        "astId": 901,
        "contract": "src/DAISO.sol:DAISO",
        "label": "cancelProjectForInvests",
        "offset": 0,
        "slot": "10",
        "type": "t_mapping(t_uint256,t_struct(CancelProjectForInvest)3639_storage)"
      },
      {
        "astId": 907,
        "contract": "src/DAISO.sol:DAISO",
        "label": "arbitrations",
        "offset": 0,
        "slot": "11",
        "type": "t_mapping(t_uint256,t_struct(Arbitration)3656_storage)"
      },
      {
        "astId": 912,
        "contract": "src/DAISO.sol:DAISO",
        "label": "disputeIDtoArbitrationID",
        "offset": 0,
        "slot": "12",
        "type": "t_mapping(t_uint256,t_uint256)"
      }
    ],
    "types": {
      "t_address": {
        "encoding": "inplace",
        "label": "address",
        "numberOfBytes": "20"
      },
      "t_address_payable": {
        "encoding": "inplace",
        "label": "address payable",
        "numberOfBytes": "20"
      },
      "t_array(t_uint256)dyn_storage": {
        "base": "t_uint256",
        "encoding": "dynamic_array",
        "label": "uint256[]",
        "numberOfBytes": "32"
      },
      "t_enum(Status)3646": {
        "encoding": "inplace",
        "label": "enum Types.Status",
        "numberOfBytes": "1"
      },
      "t_mapping(t_uint256,t_struct(Arbitration)3656_storage)": {
        "encoding": "mapping",
        "key": "t_uint256",
        "label": "mapping(uint256 => struct Types.Arbitration)",
        "numberOfBytes": "32",
        "value": "t_struct(Arbitration)3656_storage"
      },
      "t_mapping(t_uint256,t_struct(CalProjectBalance)3667_storage)": {
        "encoding": "mapping",
        "key": "t_uint256",
        "label": "mapping(uint256 => struct Types.CalProjectBalance)",
        "numberOfBytes": "32",
        "value": "t_struct(CalProjectBalance)3667_storage"
      },
      "t_mapping(t_uint256,t_struct(CancelProjectForInvest)3639_storage)": {
        "encoding": "mapping",
        "key": "t_uint256",
        "label": "mapping(uint256 => struct Types.CancelProjectForInvest)",
        "numberOfBytes": "32",
        "value": "t_struct(CancelProjectForInvest)3639_storage"
      },
      "t_mapping(t_uint256,t_struct(Project)3607_storage)": {
        "encoding": "mapping",
        "key": "t_uint256",
        "label": "mapping(uint256 => struct Types.Project)",
        "numberOfBytes": "32",
        "value": "t_struct(Project)3607_storage"
      },
      "t_mapping(t_uint256,t_struct(Stream)3626_storage)": {
        "encoding": "mapping",
        "key": "t_uint256",
        "label": "mapping(uint256 => struct Types.Stream)",
        "numberOfBytes": "32",
        "value": "t_struct(Stream)3626_storage"
      },
      "t_mapping(t_uint256,t_uint256)": {
        "encoding": "mapping",
        "key": "t_uint256",
        "label": "mapping(uint256 => uint256)",
        "numberOfBytes": "32",
        "value": "t_uint256"
      },
      "t_string_storage": {
        "encoding": "bytes",
        "label": "string",
        "numberOfBytes": "32"
      },
      "t_struct(Arbitration)3656_storage": {
        "encoding": "inplace",
        "label": "struct Types.Arbitration",
        "members": [
          {
            "astId": 3648,
            "contract": "src/DAISO.sol:DAISO",
            "label": "invest",
            "offset": 0,
            "slot": "0",
            "type": "t_address_payable"
          },
          {
            "astId": 3650,
            "contract": "src/DAISO.sol:DAISO",
            "label": "project",
            "offset": 0,
            "slot": "1",
            "type": "t_address_payable"
          },
          {
            "astId": 3653,
            "contract": "src/DAISO.sol:DAISO",
            "label": "status",
            "offset": 20,
            "slot": "1",
            "type": "t_enum(Status)3646"
          },
          {
            "astId": 3655,
            "contract": "src/DAISO.sol:DAISO",
            "label": "reclaimedAt",
            "offset": 0,
            "slot": "2",
            "type": "t_uint256"
          }
        ],
        "numberOfBytes": "96"
      },
      "t_struct(CalProjectBalance)3667_storage": {
        "encoding": "inplace",
        "label": "struct Types.CalProjectBalance",
        "members": [
          {
            "astId": 3662,
            "contract": "src/DAISO.sol:DAISO",
            "label": "sumOfRatePerSecondOfInvestFund",
            "offset": 0,
            "slot": "0",
            "type": "t_uint256"
          },
          {
            "astId": 3664,
            "contract": "src/DAISO.sol:DAISO",
            "label": "sumOfCalBalance",
            "offset": 0,
            "slot": "1",
            "type": "t_uint256"
          },
          {
            "astId": 3666,
            "contract": "src/DAISO.sol:DAISO",
            "label": "sumOfCancelInvestor",
            "offset": 0,
            "slot": "2",
            "type": "t_uint256"
          }
        ],
        "numberOfBytes": "96"
      },
      "t_struct(CancelProjectForInvest)3639_storage": {
        "encoding": "inplace",
        "label": "struct Types.CancelProjectForInvest",
        "members": [
          {
            "astId": 3628,
            "contract": "src/DAISO.sol:DAISO",
            "label": "exitProjectSellBalance",
            "offset": 0,
            "slot": "0",
            "type": "t_uint256"
          },
          {
            "astId": 3630,
            "contract": "src/DAISO.sol:DAISO",
            "label": "exitProjectFundBalance",
            "offset": 0,
            "slot": "1",
            "type": "t_uint256"
          },
          {
            "astId": 3632,
            "contract": "src/DAISO.sol:DAISO",
            "label": "exitStopTime",
            "offset": 0,
            "slot": "2",
            "type": "t_uint256"
          },
          {
            "astId": 3634,
            "contract": "src/DAISO.sol:DAISO",
            "label": "sumForExistInvest",
            "offset": 0,
            "slot": "3",
            "type": "t_uint256"
          },
          {
            "astId": 3636,
            "contract": "src/DAISO.sol:DAISO",
            "label": "proposalForCancelStatus",
            "offset": 0,
            "slot": "4",
            "type": "t_uint256"
          },
          {
            "astId": 3638,
            "contract": "src/DAISO.sol:DAISO",
            "label": "preReclaimedAt",
            "offset": 0,
            "slot": "5",
            "type": "t_uint256"
          }
        ],
        "numberOfBytes": "192"
      },
      "t_struct(Project)3607_storage": {
        "encoding": "inplace",
        "label": "struct Types.Project",
        "members": [
          {
            "astId": 3579,
            "contract": "src/DAISO.sol:DAISO",
            "label": "projectSellDeposit",
            "offset": 0,
            "slot": "0",
            "type": "t_uint256"
          },
          {
            "astId": 3581,
            "contract": "src/DAISO.sol:DAISO",
            "label": "projectFundDeposit",
            "offset": 0,
            "slot": "1",
            "type": "t_uint256"
          },
          {
            "astId": 3583,
            "contract": "src/DAISO.sol:DAISO",
            "label": "projectActualSellDeposit",
            "offset": 0,
            "slot": "2",
            "type": "t_uint256"
          },
          {
            "astId": 3585,
            "contract": "src/DAISO.sol:DAISO",
            "label": "projectActualFundDeposit",
            "offset": 0,
            "slot": "3",
            "type": "t_uint256"
          },
          {
            "astId": 3587,
            "contract": "src/DAISO.sol:DAISO",
            "label": "projectWithdrawalAmount",
            "offset": 0,
            "slot": "4",
            "type": "t_uint256"
          },
          {
            "astId": 3589,
            "contract": "src/DAISO.sol:DAISO",
            "label": "sender",
            "offset": 0,
            "slot": "5",
            "type": "t_address_payable"
          },
          {
            "astId": 3591,
            "contract": "src/DAISO.sol:DAISO",
            "label": "startTime",
            "offset": 0,
            "slot": "6",
            "type": "t_uint256"
          },
          {
            "astId": 3593,
            "contract": "src/DAISO.sol:DAISO",
            "label": "stopTime",
            "offset": 0,
            "slot": "7",
            "type": "t_uint256"
          },
          {
            "astId": 3595,
            "contract": "src/DAISO.sol:DAISO",
            "label": "projectSellTokenAddress",
            "offset": 0,
            "slot": "8",
            "type": "t_address"
          },
          {
            "astId": 3597,
            "contract": "src/DAISO.sol:DAISO",
            "label": "projectFundTokenAddress",
            "offset": 0,
            "slot": "9",
            "type": "t_address"
          },
          {
            "astId": 3599,
            "contract": "src/DAISO.sol:DAISO",
            "label": "lockPeriod",
            "offset": 0,
            "slot": "10",
            "type": "t_uint256"
          },
          {
            "astId": 3602,
            "contract": "src/DAISO.sol:DAISO",
            "label": "streamId",
            "offset": 0,
            "slot": "11",
            "type": "t_array(t_uint256)dyn_storage"
          },
          {
            "astId": 3604,
            "contract": "src/DAISO.sol:DAISO",
            "label": "hash",
            "offset": 0,
            "slot": "12",
            "type": "t_string_storage"
          },
          {
            "astId": 3606,
            "contract": "src/DAISO.sol:DAISO",
            "label": "refunded",
            "offset": 0,
            "slot": "13",
            "type": "t_uint8"
          }
        ],
        "numberOfBytes": "448"
      },
      "t_struct(Stream)3626_storage": {
        "encoding": "inplace",
        "label": "struct Types.Stream",
        "members": [
          {
            "astId": 3609,
            "contract": "src/DAISO.sol:DAISO",
            "label": "projectId",
            "offset": 0,
            "slot": "0",
            "type": "t_uint256"
          },
          {
            "astId": 3611,
            "contract": "src/DAISO.sol:DAISO",
            "label": "investSellDeposit",
            "offset": 0,
            "slot": "1",
            "type": "t_uint256"
          },
          {
            "astId": 3613,
            "contract": "src/DAISO.sol:DAISO",
            "label": "investFundDeposit",
            "offset": 0,
            "slot": "2",
            "type": "t_uint256"
          },
          {
            "astId": 3615,
            "contract": "src/DAISO.sol:DAISO",
            "label": "ratePerSecondOfInvestSell",
            "offset": 0,
            "slot": "3",
            "type": "t_uint256"
          },
          {
            "astId": 3617,
            "contract": "src/DAISO.sol:DAISO",
            "label": "ratePerSecondOfInvestFund",
            "offset": 0,
            "slot": "4",
            "type": "t_uint256"
          },
          {
            "astId": 3619,
            "contract": "src/DAISO.sol:DAISO",
            "label": "startTime",
            "offset": 0,
            "slot": "5",
            "type": "t_uint256"
          },
          {
            "astId": 3621,
            "contract": "src/DAISO.sol:DAISO",
            "label": "stopTime",
            "offset": 0,
            "slot": "6",
            "type": "t_uint256"
          },
          {
            "astId": 3623,
            "contract": "src/DAISO.sol:DAISO",
            "label": "sender",
            "offset": 0,
            "slot": "7",
            "type": "t_address"
          },
          {
            "astId": 3625,
            "contract": "src/DAISO.sol:DAISO",
            "label": "investWithdrawalAmount",
            "offset": 0,
            "slot": "8",
            "type": "t_uint256"
          }
        ],
        "numberOfBytes": "288"
      },
      "t_uint256": {
        "encoding": "inplace",
        "label": "uint256",
        "numberOfBytes": "32"
      },
      "t_uint8": {
        "encoding": "inplace",
        "label": "uint8",
        "numberOfBytes": "1"
      }
    }
  }
}